{
  "_format": "hh-sol-artifact-1",
  "contractName": "ReferralContract",
  "sourceName": "contracts/ReferralContract.sol",
  "abi": [
    {
      "inputs": [],
      "stateMutability": "nonpayable",
      "type": "constructor"
    },
    {
      "anonymous": false,
      "inputs": [
        {
          "indexed": false,
          "internalType": "address",
          "name": "previousAdmin",
          "type": "address"
        },
        {
          "indexed": false,
          "internalType": "address",
          "name": "newAdmin",
          "type": "address"
        }
      ],
      "name": "AdminChanged",
      "type": "event"
    },
    {
      "anonymous": false,
      "inputs": [
        {
          "indexed": true,
          "internalType": "address",
          "name": "beacon",
          "type": "address"
        }
      ],
      "name": "BeaconUpgraded",
      "type": "event"
    },
    {
      "anonymous": false,
      "inputs": [
        {
          "indexed": true,
          "internalType": "address",
          "name": "previousOwner",
          "type": "address"
        },
        {
          "indexed": true,
          "internalType": "address",
          "name": "newOwner",
          "type": "address"
        }
      ],
      "name": "OwnershipTransferred",
      "type": "event"
    },
    {
      "anonymous": false,
      "inputs": [
        {
          "indexed": true,
          "internalType": "address",
          "name": "implementation",
          "type": "address"
        }
      ],
      "name": "Upgraded",
      "type": "event"
    },
    {
      "inputs": [
        {
          "internalType": "string",
          "name": "_programCode",
          "type": "string"
        },
        {
          "internalType": "address",
          "name": "_tokenAddress",
          "type": "address"
        }
      ],
      "name": "addProgram",
      "outputs": [],
      "stateMutability": "nonpayable",
      "type": "function"
    },
    {
      "inputs": [
        {
          "internalType": "address",
          "name": "",
          "type": "address"
        }
      ],
      "name": "addressJoined",
      "outputs": [
        {
          "internalType": "string",
          "name": "",
          "type": "string"
        }
      ],
      "stateMutability": "view",
      "type": "function"
    },
    {
      "inputs": [
        {
          "internalType": "address",
          "name": "",
          "type": "address"
        }
      ],
      "name": "admins",
      "outputs": [
        {
          "internalType": "bool",
          "name": "",
          "type": "bool"
        }
      ],
      "stateMutability": "view",
      "type": "function"
    },
    {
      "inputs": [
        {
          "internalType": "string",
          "name": "_programCode",
          "type": "string"
        }
      ],
      "name": "approveAllIncentive",
      "outputs": [],
      "stateMutability": "nonpayable",
      "type": "function"
    },
    {
      "inputs": [
        {
          "internalType": "string",
          "name": "_programCode",
          "type": "string"
        },
        {
          "internalType": "uint256",
          "name": "_index",
          "type": "uint256"
        }
      ],
      "name": "deniedIncentive",
      "outputs": [],
      "stateMutability": "nonpayable",
      "type": "function"
    },
    {
      "inputs": [
        {
          "internalType": "address",
          "name": "_tokenAddress",
          "type": "address"
        },
        {
          "internalType": "uint256",
          "name": "_amount",
          "type": "uint256"
        }
      ],
      "name": "emergencyWithdrawToken",
      "outputs": [],
      "stateMutability": "nonpayable",
      "type": "function"
    },
    {
      "inputs": [
        {
          "internalType": "string",
          "name": "",
          "type": "string"
        },
        {
          "internalType": "uint256",
          "name": "",
          "type": "uint256"
        }
      ],
      "name": "holdReferrer",
      "outputs": [
        {
          "internalType": "string",
          "name": "",
          "type": "string"
        }
      ],
      "stateMutability": "view",
      "type": "function"
    },
    {
      "inputs": [
        {
          "internalType": "string",
          "name": "",
          "type": "string"
        },
        {
          "internalType": "string",
          "name": "",
          "type": "string"
        }
      ],
      "name": "incentiveHold",
      "outputs": [
        {
          "internalType": "uint256",
          "name": "",
          "type": "uint256"
        }
      ],
      "stateMutability": "view",
      "type": "function"
    },
    {
      "inputs": [],
      "name": "initialize",
      "outputs": [],
      "stateMutability": "nonpayable",
      "type": "function"
    },
    {
      "inputs": [
        {
          "internalType": "string",
          "name": "_programCode",
          "type": "string"
        },
        {
          "internalType": "string",
          "name": "_uid",
          "type": "string"
        },
        {
          "internalType": "string",
          "name": "_referrerCode",
          "type": "string"
        }
      ],
      "name": "joinProgram",
      "outputs": [],
      "stateMutability": "nonpayable",
      "type": "function"
    },
    {
      "inputs": [],
      "name": "owner",
      "outputs": [
        {
          "internalType": "address",
          "name": "",
          "type": "address"
        }
      ],
      "stateMutability": "view",
      "type": "function"
    },
    {
      "inputs": [
        {
          "internalType": "string",
          "name": "",
          "type": "string"
        }
      ],
      "name": "programs",
      "outputs": [
        {
          "internalType": "string",
          "name": "code",
          "type": "string"
        },
        {
          "internalType": "address",
          "name": "tokenAddress",
          "type": "address"
        },
        {
          "internalType": "uint256",
          "name": "incentiveL0",
          "type": "uint256"
        },
        {
          "internalType": "uint256",
          "name": "incentiveL1",
          "type": "uint256"
        },
        {
          "internalType": "uint256",
          "name": "incentiveL2",
          "type": "uint256"
        },
        {
          "internalType": "bool",
          "name": "paused",
          "type": "bool"
        }
      ],
      "stateMutability": "view",
      "type": "function"
    },
    {
      "inputs": [
        {
          "internalType": "string",
          "name": "",
          "type": "string"
        },
        {
          "internalType": "address",
          "name": "",
          "type": "address"
        }
      ],
      "name": "rUserFromReferer",
      "outputs": [
        {
          "internalType": "address",
          "name": "",
          "type": "address"
        }
      ],
      "stateMutability": "view",
      "type": "function"
    },
    {
      "inputs": [
        {
          "internalType": "string",
          "name": "_programCode",
          "type": "string"
        },
        {
          "internalType": "string",
          "name": "_uid",
          "type": "string"
        }
      ],
      "name": "removeJoinProgram",
      "outputs": [],
      "stateMutability": "nonpayable",
      "type": "function"
    },
    {
      "inputs": [],
      "name": "renounceOwnership",
      "outputs": [],
      "stateMutability": "nonpayable",
      "type": "function"
    },
    {
      "inputs": [
        {
          "internalType": "address",
          "name": "_adminAddress",
          "type": "address"
        },
        {
          "internalType": "bool",
          "name": "_allow",
          "type": "bool"
        }
      ],
      "name": "setAdmin",
      "outputs": [],
      "stateMutability": "nonpayable",
      "type": "function"
    },
    {
      "inputs": [
        {
          "internalType": "string",
          "name": "_programCode",
          "type": "string"
        },
        {
          "internalType": "uint256",
          "name": "_amount1",
          "type": "uint256"
        },
        {
          "internalType": "uint256",
          "name": "_amount2",
          "type": "uint256"
        },
        {
          "internalType": "uint256",
          "name": "_amount3",
          "type": "uint256"
        }
      ],
      "name": "setIncentiveAmount",
      "outputs": [],
      "stateMutability": "nonpayable",
      "type": "function"
    },
    {
      "inputs": [
        {
          "internalType": "string",
          "name": "_programCode",
          "type": "string"
        },
        {
          "internalType": "bool",
          "name": "_pause",
          "type": "bool"
        }
      ],
      "name": "setPause",
      "outputs": [],
      "stateMutability": "nonpayable",
      "type": "function"
    },
    {
      "inputs": [],
      "name": "token",
      "outputs": [
        {
          "internalType": "contract IERC20Upgradeable",
          "name": "",
          "type": "address"
        }
      ],
      "stateMutability": "view",
      "type": "function"
    },
    {
      "inputs": [
        {
          "internalType": "address",
          "name": "newOwner",
          "type": "address"
        }
      ],
      "name": "transferOwnership",
      "outputs": [],
      "stateMutability": "nonpayable",
      "type": "function"
    },
    {
      "inputs": [
        {
          "internalType": "string",
          "name": "",
          "type": "string"
        },
        {
          "internalType": "string",
          "name": "",
          "type": "string"
        }
      ],
      "name": "uidJoined",
      "outputs": [
        {
          "internalType": "address",
          "name": "",
          "type": "address"
        }
      ],
      "stateMutability": "view",
      "type": "function"
    },
    {
      "inputs": [
        {
          "internalType": "address",
          "name": "newImplementation",
          "type": "address"
        }
      ],
      "name": "upgradeTo",
      "outputs": [],
      "stateMutability": "nonpayable",
      "type": "function"
    },
    {
      "inputs": [
        {
          "internalType": "address",
          "name": "newImplementation",
          "type": "address"
        },
        {
          "internalType": "bytes",
          "name": "data",
          "type": "bytes"
        }
      ],
      "name": "upgradeToAndCall",
      "outputs": [],
      "stateMutability": "payable",
      "type": "function"
    },
    {
      "inputs": [
        {
          "internalType": "string",
          "name": "",
          "type": "string"
        }
      ],
      "name": "userJoined",
      "outputs": [
        {
          "internalType": "address",
          "name": "",
          "type": "address"
        }
      ],
      "stateMutability": "view",
      "type": "function"
    },
    {
      "inputs": [
        {
          "internalType": "string",
          "name": "",
          "type": "string"
        },
        {
          "internalType": "address",
          "name": "",
          "type": "address"
        },
        {
          "internalType": "uint256",
          "name": "",
          "type": "uint256"
        }
      ],
      "name": "userReferees",
      "outputs": [
        {
          "internalType": "address",
          "name": "",
          "type": "address"
        }
      ],
      "stateMutability": "view",
      "type": "function"
    },
    {
      "inputs": [],
      "name": "version",
      "outputs": [
        {
          "internalType": "string",
          "name": "",
          "type": "string"
        }
      ],
      "stateMutability": "pure",
      "type": "function"
    }
  ],
  "bytecode": "0x60a06040523073ffffffffffffffffffffffffffffffffffffffff1660809073ffffffffffffffffffffffffffffffffffffffff1660601b8152503480156200004757600080fd5b50600060019054906101000a900460ff16806200006f575060008054906101000a900460ff16155b620000b1576040517f08c379a0000000000000000000000000000000000000000000000000000000008152600401620000a89062000152565b60405180910390fd5b60008060019054906101000a900460ff16159050801562000102576001600060016101000a81548160ff02191690831515021790555060016000806101000a81548160ff0219169083151502179055505b8015620001245760008060016101000a81548160ff0219169083151502179055505b50620001d4565b60006200013a602e8362000174565b9150620001478262000185565b604082019050919050565b600060208201905081810360008301526200016d816200012b565b9050919050565b600082825260208201905092915050565b7f496e697469616c697a61626c653a20636f6e747261637420697320616c72656160008201527f647920696e697469616c697a6564000000000000000000000000000000000000602082015250565b60805160601c6154786200020860003960008181610b5801528181610be701528181610fd8015261106701526154786000f3fe6080604052600436106101815760003560e01c806373742514116100d1578063b055b2711161008a578063cb25b67d11610064578063cb25b67d14610598578063df7662b8146105c1578063f2fde38b146105ea578063fc0c546a1461061357610181565b8063b055b271146104f0578063b5dd4a321461052d578063ca0f059a1461056f57610181565b806373742514146103e257806375f274a21461041f5780638129fc1c146104485780638da5cb5b1461045f578063922f91781461048a578063a4c3b091146104c757610181565b8063429b62e51161013e5780634f1ef286116101185780634f1ef2861461034757806354fd4d50146103635780636326a0a01461038e578063715018a6146103cb57610181565b8063429b62e5146102a457806346782354146102e15780634b0bddd21461031e57610181565b80630b3d3f461461018657806319e9e88f146101af5780632e2a3cc7146101ec57806333ae0e7a146102155780633659cfe614610252578063398fa16a1461027b575b600080fd5b34801561019257600080fd5b506101ad60048036038101906101a89190613fda565b61063e565b005b3480156101bb57600080fd5b506101d660048036038101906101d191906140e9565b6108a3565b6040516101e39190614b98565b60405180910390f35b3480156101f857600080fd5b50610213600480360381019061020e91906141ec565b6108f4565b005b34801561022157600080fd5b5061023c6004803603810190610237919061402e565b610ae5565b60405161024991906147f4565b60405180910390f35b34801561025e57600080fd5b5061027960048036038101906102749190613e7b565b610b56565b005b34801561028757600080fd5b506102a2600480360381019061029d9190614240565b610d05565b005b3480156102b057600080fd5b506102cb60048036038101906102c69190613e7b565b610e10565b6040516102d89190614838565b60405180910390f35b3480156102ed57600080fd5b50610308600480360381019061030391906141ec565b610e30565b604051610315919061486e565b60405180910390f35b34801561032a57600080fd5b5061034560048036038101906103409190613ea4565b610eff565b005b610361600480360381019061035c9190613ee0565b610fd6565b005b34801561036f57600080fd5b50610378611113565b604051610385919061486e565b60405180910390f35b34801561039a57600080fd5b506103b560048036038101906103b09190613e7b565b611150565b6040516103c2919061486e565b60405180910390f35b3480156103d757600080fd5b506103e06111f0565b005b3480156103ee57600080fd5b50610409600480360381019061040491906140e9565b611278565b60405161041691906147f4565b60405180910390f35b34801561042b57600080fd5b50610446600480360381019061044191906140e9565b6112e6565b005b34801561045457600080fd5b5061045d6114c1565b005b34801561046b57600080fd5b50610474611601565b60405161048191906147f4565b60405180910390f35b34801561049657600080fd5b506104b160048036038101906104ac9190613f99565b61162b565b6040516104be91906147f4565b60405180910390f35b3480156104d357600080fd5b506104ee60048036038101906104e99190613f34565b611674565b005b3480156104fc57600080fd5b5061051760048036038101906105129190613fda565b611876565b60405161052491906147f4565b60405180910390f35b34801561053957600080fd5b50610554600480360381019061054f9190613f99565b6118ce565b60405161056696959493929190614890565b60405180910390f35b34801561057b57600080fd5b5061059660048036038101906105919190613f99565b6119d5565b005b3480156105a457600080fd5b506105bf60048036038101906105ba9190614155565b611e2a565b005b3480156105cd57600080fd5b506105e860048036038101906105e39190614095565b612ca5565b005b3480156105f657600080fd5b50610611600480360381019061060c9190613e7b565b612d75565b005b34801561061f57600080fd5b50610628612e6d565b6040516106359190614853565b60405180910390f35b6001151560c960003373ffffffffffffffffffffffffffffffffffffffff1673ffffffffffffffffffffffffffffffffffffffff16815260200190815260200160002060009054906101000a900460ff161515146106d1576040517f08c379a00000000000000000000000000000000000000000000000000000000081526004016106c890614958565b60405180910390fd5b600073ffffffffffffffffffffffffffffffffffffffff1660ca836040516106f991906147c6565b908152602001604051809103902060010160009054906101000a900473ffffffffffffffffffffffffffffffffffffffff1673ffffffffffffffffffffffffffffffffffffffff1614610781576040517f08c379a000000000000000000000000000000000000000000000000000000000815260040161077890614b18565b60405180910390fd5b6040518060c001604052808381526020018273ffffffffffffffffffffffffffffffffffffffff16815260200166470de4df8200008152602001662386f26fc10000815260200166038d7ea4c6800081526020016000151581525060ca836040516107ec91906147c6565b90815260200160405180910390206000820151816000019080519060200190610816929190613bd2565b5060208201518160010160006101000a81548173ffffffffffffffffffffffffffffffffffffffff021916908373ffffffffffffffffffffffffffffffffffffffff16021790555060408201518160020155606082015181600301556080820151816004015560a08201518160050160006101000a81548160ff0219169083151502179055509050505050565b60d18280516020810182018051848252602083016020850120818352809550505050505081805160208101820180518482526020830160208501208183528095505050505050600091509150505481565b6001151560c960003373ffffffffffffffffffffffffffffffffffffffff1673ffffffffffffffffffffffffffffffffffffffff16815260200190815260200160002060009054906101000a900460ff16151514610987576040517f08c379a000000000000000000000000000000000000000000000000000000000815260040161097e90614958565b60405180910390fd5b600073ffffffffffffffffffffffffffffffffffffffff1660ca836040516109af91906147c6565b908152602001604051809103902060010160009054906101000a900473ffffffffffffffffffffffffffffffffffffffff1673ffffffffffffffffffffffffffffffffffffffff161415610a38576040517f08c379a0000000000000000000000000000000000000000000000000000000008152600401610a2f906149b8565b60405180910390fd5b600060d183604051610a4a91906147c6565b908152602001604051809103902060d084604051610a6891906147c6565b90815260200160405180910390208381548110610aae577f4e487b7100000000000000000000000000000000000000000000000000000000600052603260045260246000fd5b90600052602060002001604051610ac591906147dd565b908152602001604051809103902081905550610ae18282612e93565b5050565b60cd838051602081018201805184825260208301602085012081835280955050505050506020528160005260406000208181548110610b2357600080fd5b90600052602060002001600092509250509054906101000a900473ffffffffffffffffffffffffffffffffffffffff1681565b7f000000000000000000000000000000000000000000000000000000000000000073ffffffffffffffffffffffffffffffffffffffff163073ffffffffffffffffffffffffffffffffffffffff161415610be5576040517f08c379a0000000000000000000000000000000000000000000000000000000008152600401610bdc90614938565b60405180910390fd5b7f000000000000000000000000000000000000000000000000000000000000000073ffffffffffffffffffffffffffffffffffffffff16610c246130bf565b73ffffffffffffffffffffffffffffffffffffffff1614610c7a576040517f08c379a0000000000000000000000000000000000000000000000000000000008152600401610c7190614978565b60405180910390fd5b610c8381613116565b610d0281600067ffffffffffffffff811115610cc8577f4e487b7100000000000000000000000000000000000000000000000000000000600052604160045260246000fd5b6040519080825280601f01601f191660200182016040528015610cfa5781602001600182028036833780820191505090505b506000613195565b50565b6001151560c960003373ffffffffffffffffffffffffffffffffffffffff1673ffffffffffffffffffffffffffffffffffffffff16815260200190815260200160002060009054906101000a900460ff16151514610d98576040517f08c379a0000000000000000000000000000000000000000000000000000000008152600401610d8f90614958565b60405180910390fd5b8260ca85604051610da991906147c6565b9081526020016040518091039020600201819055508160ca85604051610dcf91906147c6565b9081526020016040518091039020600301819055508060ca85604051610df591906147c6565b90815260200160405180910390206004018190555050505050565b60c96020528060005260406000206000915054906101000a900460ff1681565b60d0828051602081018201805184825260208301602085012081835280955050505050508181548110610e6257600080fd5b90600052602060002001600091509150508054610e7e90614dd9565b80601f0160208091040260200160405190810160405280929190818152602001828054610eaa90614dd9565b8015610ef75780601f10610ecc57610100808354040283529160200191610ef7565b820191906000526020600020905b815481529060010190602001808311610eda57829003601f168201915b505050505081565b610f07613366565b73ffffffffffffffffffffffffffffffffffffffff16610f25611601565b73ffffffffffffffffffffffffffffffffffffffff1614610f7b576040517f08c379a0000000000000000000000000000000000000000000000000000000008152600401610f7290614a58565b60405180910390fd5b8060c960008473ffffffffffffffffffffffffffffffffffffffff1673ffffffffffffffffffffffffffffffffffffffff16815260200190815260200160002060006101000a81548160ff0219169083151502179055505050565b7f000000000000000000000000000000000000000000000000000000000000000073ffffffffffffffffffffffffffffffffffffffff163073ffffffffffffffffffffffffffffffffffffffff161415611065576040517f08c379a000000000000000000000000000000000000000000000000000000000815260040161105c90614938565b60405180910390fd5b7f000000000000000000000000000000000000000000000000000000000000000073ffffffffffffffffffffffffffffffffffffffff166110a46130bf565b73ffffffffffffffffffffffffffffffffffffffff16146110fa576040517f08c379a00000000000000000000000000000000000000000000000000000000081526004016110f190614978565b60405180910390fd5b61110382613116565b61110f82826001613195565b5050565b60606040518060400160405280600281526020017f7631000000000000000000000000000000000000000000000000000000000000815250905090565b60cf602052806000526040600020600091509050805461116f90614dd9565b80601f016020809104026020016040519081016040528092919081815260200182805461119b90614dd9565b80156111e85780601f106111bd576101008083540402835291602001916111e8565b820191906000526020600020905b8154815290600101906020018083116111cb57829003601f168201915b505050505081565b6111f8613366565b73ffffffffffffffffffffffffffffffffffffffff16611216611601565b73ffffffffffffffffffffffffffffffffffffffff161461126c576040517f08c379a000000000000000000000000000000000000000000000000000000000815260040161126390614a58565b60405180910390fd5b611276600061336e565b565b60cb82805160208101820180518482526020830160208501208183528095505050505050818051602081018201805184825260208301602085012081835280955050505050506000915091509054906101000a900473ffffffffffffffffffffffffffffffffffffffff1681565b6001151560c960003373ffffffffffffffffffffffffffffffffffffffff1673ffffffffffffffffffffffffffffffffffffffff16815260200190815260200160002060009054906101000a900460ff16151514611379576040517f08c379a000000000000000000000000000000000000000000000000000000000815260040161137090614958565b60405180910390fd5b600073ffffffffffffffffffffffffffffffffffffffff1660cb836040516113a191906147c6565b9081526020016040518091039020826040516113bd91906147c6565b908152602001604051809103902060009054906101000a900473ffffffffffffffffffffffffffffffffffffffff1673ffffffffffffffffffffffffffffffffffffffff161415611443576040517f08c379a000000000000000000000000000000000000000000000000000000000815260040161143a90614a18565b60405180910390fd5b600060cb8360405161145591906147c6565b90815260200160405180910390208260405161147191906147c6565b908152602001604051809103902060006101000a81548173ffffffffffffffffffffffffffffffffffffffff021916908373ffffffffffffffffffffffffffffffffffffffff1602179055505050565b600060019054906101000a900460ff16806114e7575060008054906101000a900460ff16155b611526576040517f08c379a000000000000000000000000000000000000000000000000000000000815260040161151d906149f8565b60405180910390fd5b60008060019054906101000a900460ff161590508015611576576001600060016101000a81548160ff02191690831515021790555060016000806101000a81548160ff0219169083151502179055505b61157e613434565b600160c9600061158c611601565b73ffffffffffffffffffffffffffffffffffffffff1673ffffffffffffffffffffffffffffffffffffffff16815260200190815260200160002060006101000a81548160ff02191690831515021790555080156115fe5760008060016101000a81548160ff0219169083151502179055505b50565b6000609760009054906101000a900473ffffffffffffffffffffffffffffffffffffffff16905090565b60ce818051602081018201805184825260208301602085012081835280955050505050506000915054906101000a900473ffffffffffffffffffffffffffffffffffffffff1681565b61167c613366565b73ffffffffffffffffffffffffffffffffffffffff1661169a611601565b73ffffffffffffffffffffffffffffffffffffffff16146116f0576040517f08c379a00000000000000000000000000000000000000000000000000000000081526004016116e790614a58565b60405180910390fd5b8160d260006101000a81548173ffffffffffffffffffffffffffffffffffffffff021916908373ffffffffffffffffffffffffffffffffffffffff1602179055508060d260009054906101000a900473ffffffffffffffffffffffffffffffffffffffff1673ffffffffffffffffffffffffffffffffffffffff166370a08231306040518263ffffffff1660e01b815260040161178d91906147f4565b60206040518083038186803b1580156117a557600080fd5b505afa1580156117b9573d6000803e3d6000fd5b505050506040513d601f19601f820116820180604052508101906117dd91906142bb565b101561181e576040517f08c379a000000000000000000000000000000000000000000000000000000000815260040161181590614b58565b60405180910390fd5b611872611829611601565b8260d260009054906101000a900473ffffffffffffffffffffffffffffffffffffffff1673ffffffffffffffffffffffffffffffffffffffff1661351d9092919063ffffffff16565b5050565b60cc828051602081018201805184825260208301602085012081835280955050505050506020528060005260406000206000915091509054906101000a900473ffffffffffffffffffffffffffffffffffffffff1681565b60ca8180516020810182018051848252602083016020850120818352809550505050505060009150905080600001805461190790614dd9565b80601f016020809104026020016040519081016040528092919081815260200182805461193390614dd9565b80156119805780601f1061195557610100808354040283529160200191611980565b820191906000526020600020905b81548152906001019060200180831161196357829003601f168201915b5050505050908060010160009054906101000a900473ffffffffffffffffffffffffffffffffffffffff16908060020154908060030154908060040154908060050160009054906101000a900460ff16905086565b6001151560c960003373ffffffffffffffffffffffffffffffffffffffff1673ffffffffffffffffffffffffffffffffffffffff16815260200190815260200160002060009054906101000a900460ff16151514611a68576040517f08c379a0000000000000000000000000000000000000000000000000000000008152600401611a5f90614958565b60405180910390fd5b600073ffffffffffffffffffffffffffffffffffffffff1660ca82604051611a9091906147c6565b908152602001604051809103902060010160009054906101000a900473ffffffffffffffffffffffffffffffffffffffff1673ffffffffffffffffffffffffffffffffffffffff161415611b19576040517f08c379a0000000000000000000000000000000000000000000000000000000008152600401611b10906149b8565b60405180910390fd5b600060ca82604051611b2b91906147c6565b908152602001604051809103902060010160009054906101000a900473ffffffffffffffffffffffffffffffffffffffff1690508060d260006101000a81548173ffffffffffffffffffffffffffffffffffffffff021916908373ffffffffffffffffffffffffffffffffffffffff16021790555060005b60d083604051611bb391906147c6565b908152602001604051809103902080549050811015611ddb57600060ce60d085604051611be091906147c6565b90815260200160405180910390208381548110611c26577f4e487b7100000000000000000000000000000000000000000000000000000000600052603260045260246000fd5b90600052602060002001604051611c3d91906147dd565b908152602001604051809103902060009054906101000a900473ffffffffffffffffffffffffffffffffffffffff169050600060d185604051611c8091906147c6565b908152602001604051809103902060d086604051611c9e91906147c6565b90815260200160405180910390208481548110611ce4577f4e487b7100000000000000000000000000000000000000000000000000000000600052603260045260246000fd5b90600052602060002001604051611cfb91906147dd565b90815260200160405180910390205490506000811115611dc65760d260009054906101000a900473ffffffffffffffffffffffffffffffffffffffff1673ffffffffffffffffffffffffffffffffffffffff1663a9059cbb83836040518363ffffffff1660e01b8152600401611d7292919061480f565b602060405180830381600087803b158015611d8c57600080fd5b505af1158015611da0573d6000803e3d6000fd5b505050506040513d601f19601f82011682018060405250810190611dc49190613f70565b505b50508080611dd390614e3c565b915050611ba3565b5060005b60d083604051611def91906147c6565b908152602001604051809103902080549050811015611e2557611e1283826108f4565b8080611e1d90614e3c565b915050611ddf565b505050565b6000151560ca84604051611e3e91906147c6565b908152602001604051809103902060050160009054906101000a900460ff16151514611e9f576040517f08c379a0000000000000000000000000000000000000000000000000000000008152600401611e9690614af8565b60405180910390fd5b600073ffffffffffffffffffffffffffffffffffffffff1660ca84604051611ec791906147c6565b908152602001604051809103902060010160009054906101000a900473ffffffffffffffffffffffffffffffffffffffff1673ffffffffffffffffffffffffffffffffffffffff161415611f50576040517f08c379a0000000000000000000000000000000000000000000000000000000008152600401611f47906149b8565b60405180910390fd5b600081905060008151111561205f57818051906020012083805190602001201415611fb0576040517f08c379a0000000000000000000000000000000000000000000000000000000008152600401611fa790614ab8565b60405180910390fd5b600073ffffffffffffffffffffffffffffffffffffffff1660ce83604051611fd891906147c6565b908152602001604051809103902060009054906101000a900473ffffffffffffffffffffffffffffffffffffffff1673ffffffffffffffffffffffffffffffffffffffff16141561205e576040517f08c379a0000000000000000000000000000000000000000000000000000000008152600401612055906149d8565b60405180910390fd5b5b600073ffffffffffffffffffffffffffffffffffffffff1660cb8560405161208791906147c6565b9081526020016040518091039020846040516120a391906147c6565b908152602001604051809103902060009054906101000a900473ffffffffffffffffffffffffffffffffffffffff1673ffffffffffffffffffffffffffffffffffffffff1614612128576040517f08c379a000000000000000000000000000000000000000000000000000000000815260040161211f90614b78565b60405180910390fd5b600073ffffffffffffffffffffffffffffffffffffffff1660cc8560405161215091906147c6565b908152602001604051809103902060003373ffffffffffffffffffffffffffffffffffffffff1673ffffffffffffffffffffffffffffffffffffffff16815260200190815260200160002060009054906101000a900473ffffffffffffffffffffffffffffffffffffffff1673ffffffffffffffffffffffffffffffffffffffff16146122745760cf60003373ffffffffffffffffffffffffffffffffffffffff1673ffffffffffffffffffffffffffffffffffffffff16815260200190815260200160002060405161222391906147af565b6040518091039020838051906020012014612273576040517f08c379a000000000000000000000000000000000000000000000000000000000815260040161226a90614b38565b60405180910390fd5b5b600081511115612b7557600060ce8360405161229091906147c6565b908152602001604051809103902060009054906101000a900473ffffffffffffffffffffffffffffffffffffffff169050600060019050600073ffffffffffffffffffffffffffffffffffffffff1660cc876040516122ef91906147c6565b908152602001604051809103902060003373ffffffffffffffffffffffffffffffffffffffff1673ffffffffffffffffffffffffffffffffffffffff16815260200190815260200160002060009054906101000a900473ffffffffffffffffffffffffffffffffffffffff1673ffffffffffffffffffffffffffffffffffffffff161461237b57600090505b8015612b7257600060ca8760405161239391906147c6565b908152602001604051809103902060010160009054906101000a900473ffffffffffffffffffffffffffffffffffffffff1690508060d260006101000a81548173ffffffffffffffffffffffffffffffffffffffff021916908373ffffffffffffffffffffffffffffffffffffffff1602179055508260cc8860405161241991906147c6565b908152602001604051809103902060003373ffffffffffffffffffffffffffffffffffffffff1673ffffffffffffffffffffffffffffffffffffffff16815260200190815260200160002060006101000a81548173ffffffffffffffffffffffffffffffffffffffff021916908373ffffffffffffffffffffffffffffffffffffffff16021790555060cd876040516124b291906147c6565b908152602001604051809103902060008473ffffffffffffffffffffffffffffffffffffffff1673ffffffffffffffffffffffffffffffffffffffff168152602001908152602001600020339080600181540180825580915050600190039060005260206000200160009091909190916101000a81548173ffffffffffffffffffffffffffffffffffffffff021916908373ffffffffffffffffffffffffffffffffffffffff160217905550600060d18860405161257091906147c6565b90815260200160405180910390208660405161258c91906147c6565b90815260200160405180910390205414156125fa5760d0876040516125b191906147c6565b9081526020016040518091039020859080600181540180825580915050600190039060005260206000200160009091909190915090805190602001906125f8929190613bd2565b505b60ca8760405161260a91906147c6565b90815260200160405180910390206002015460d18860405161262c91906147c6565b90815260200160405180910390208660405161264891906147c6565b908152602001604051809103902060008282546126659190614ca1565b92505081905550600060cc8860405161267e91906147c6565b908152602001604051809103902060008573ffffffffffffffffffffffffffffffffffffffff1673ffffffffffffffffffffffffffffffffffffffff16815260200190815260200160002060009054906101000a900473ffffffffffffffffffffffffffffffffffffffff169050600073ffffffffffffffffffffffffffffffffffffffff168173ffffffffffffffffffffffffffffffffffffffff1614612b6f57600060d18960405161273291906147c6565b908152602001604051809103902060cf60008473ffffffffffffffffffffffffffffffffffffffff1673ffffffffffffffffffffffffffffffffffffffff16815260200190815260200160002060405161278c91906147dd565b908152602001604051809103902054141561283c5760d0886040516127b191906147c6565b908152602001604051809103902060cf60008373ffffffffffffffffffffffffffffffffffffffff1673ffffffffffffffffffffffffffffffffffffffff1681526020019081526020016000209080600181540180825580915050600190039060005260206000200160009091909190915090805461282f90614dd9565b61283a929190613c58565b505b60ca8860405161284c91906147c6565b90815260200160405180910390206003015460d18960405161286e91906147c6565b908152602001604051809103902060cf60008473ffffffffffffffffffffffffffffffffffffffff1673ffffffffffffffffffffffffffffffffffffffff1681526020019081526020016000206040516128c891906147dd565b908152602001604051809103902060008282546128e59190614ca1565b92505081905550600060cc896040516128fe91906147c6565b908152602001604051809103902060008373ffffffffffffffffffffffffffffffffffffffff1673ffffffffffffffffffffffffffffffffffffffff16815260200190815260200160002060009054906101000a900473ffffffffffffffffffffffffffffffffffffffff169050600073ffffffffffffffffffffffffffffffffffffffff168173ffffffffffffffffffffffffffffffffffffffff1614612b6d57600060d18a6040516129b291906147c6565b908152602001604051809103902060cf60008473ffffffffffffffffffffffffffffffffffffffff1673ffffffffffffffffffffffffffffffffffffffff168152602001908152602001600020604051612a0c91906147dd565b9081526020016040518091039020541415612abc5760d089604051612a3191906147c6565b908152602001604051809103902060cf60008373ffffffffffffffffffffffffffffffffffffffff1673ffffffffffffffffffffffffffffffffffffffff16815260200190815260200160002090806001815401808255809150506001900390600052602060002001600090919091909150908054612aaf90614dd9565b612aba929190613c58565b505b60ca89604051612acc91906147c6565b90815260200160405180910390206004015460d18a604051612aee91906147c6565b908152602001604051809103902060cf60008473ffffffffffffffffffffffffffffffffffffffff1673ffffffffffffffffffffffffffffffffffffffff168152602001908152602001600020604051612b4891906147dd565b90815260200160405180910390206000828254612b659190614ca1565b925050819055505b505b50505b50505b3360cb85604051612b8691906147c6565b908152602001604051809103902084604051612ba291906147c6565b908152602001604051809103902060006101000a81548173ffffffffffffffffffffffffffffffffffffffff021916908373ffffffffffffffffffffffffffffffffffffffff1602179055503360ce84604051612bff91906147c6565b908152602001604051809103902060006101000a81548173ffffffffffffffffffffffffffffffffffffffff021916908373ffffffffffffffffffffffffffffffffffffffff1602179055508260cf60003373ffffffffffffffffffffffffffffffffffffffff1673ffffffffffffffffffffffffffffffffffffffff1681526020019081526020016000209080519060200190612c9e929190613bd2565b5050505050565b6001151560c960003373ffffffffffffffffffffffffffffffffffffffff1673ffffffffffffffffffffffffffffffffffffffff16815260200190815260200160002060009054906101000a900460ff16151514612d38576040517f08c379a0000000000000000000000000000000000000000000000000000000008152600401612d2f90614958565b60405180910390fd5b8060ca83604051612d4991906147c6565b908152602001604051809103902060050160006101000a81548160ff0219169083151502179055505050565b612d7d613366565b73ffffffffffffffffffffffffffffffffffffffff16612d9b611601565b73ffffffffffffffffffffffffffffffffffffffff1614612df1576040517f08c379a0000000000000000000000000000000000000000000000000000000008152600401612de890614a58565b60405180910390fd5b600073ffffffffffffffffffffffffffffffffffffffff168173ffffffffffffffffffffffffffffffffffffffff161415612e61576040517f08c379a0000000000000000000000000000000000000000000000000000000008152600401612e5890614918565b60405180910390fd5b612e6a8161336e565b50565b60d260009054906101000a900473ffffffffffffffffffffffffffffffffffffffff1681565b600073ffffffffffffffffffffffffffffffffffffffff1660ca83604051612ebb91906147c6565b908152602001604051809103902060010160009054906101000a900473ffffffffffffffffffffffffffffffffffffffff1673ffffffffffffffffffffffffffffffffffffffff161415612f44576040517f08c379a0000000000000000000000000000000000000000000000000000000008152600401612f3b906149b8565b60405180910390fd5b60d082604051612f5491906147c6565b9081526020016040518091039020600160d084604051612f7491906147c6565b908152602001604051809103902080549050612f909190614cf7565b81548110612fc7577f4e487b7100000000000000000000000000000000000000000000000000000000600052603260045260246000fd5b9060005260206000200160d083604051612fe191906147c6565b90815260200160405180910390208281548110613027577f4e487b7100000000000000000000000000000000000000000000000000000000600052603260045260246000fd5b9060005260206000200190805461303d90614dd9565b613048929190613c58565b5060d08260405161305991906147c6565b908152602001604051809103902080548061309d577f4e487b7100000000000000000000000000000000000000000000000000000000600052603160045260246000fd5b6001900381819060005260206000200160006130b99190613ce5565b90555050565b60006130ed7f360894a13ba1a3210667c828492db98dca3e2076cc3735a920a3ca505d382bbc60001b6135a3565b60000160009054906101000a900473ffffffffffffffffffffffffffffffffffffffff16905090565b61311e613366565b73ffffffffffffffffffffffffffffffffffffffff1661313c611601565b73ffffffffffffffffffffffffffffffffffffffff1614613192576040517f08c379a000000000000000000000000000000000000000000000000000000000815260040161318990614a58565b60405180910390fd5b50565b600061319f6130bf565b90506131aa846135ad565b6000835111806131b75750815b156131c8576131c68484613666565b505b60006131f67f4910fdfa16fed3260ed0e7147f7cc6da11a60208b5b9406d12a635614ffd914360001b61374a565b90508060000160009054906101000a900460ff1661335f5760018160000160006101000a81548160ff0219169083151502179055506132c2858360405160240161324091906147f4565b6040516020818303038152906040527f3659cfe6000000000000000000000000000000000000000000000000000000007bffffffffffffffffffffffffffffffffffffffffffffffffffffffff19166020820180517bffffffffffffffffffffffffffffffffffffffffffffffffffffffff8381831617835250505050613666565b5060008160000160006101000a81548160ff0219169083151502179055506132e86130bf565b73ffffffffffffffffffffffffffffffffffffffff168273ffffffffffffffffffffffffffffffffffffffff1614613355576040517f08c379a000000000000000000000000000000000000000000000000000000000815260040161334c906148f8565b60405180910390fd5b61335e85613754565b5b5050505050565b600033905090565b6000609760009054906101000a900473ffffffffffffffffffffffffffffffffffffffff16905081609760006101000a81548173ffffffffffffffffffffffffffffffffffffffff021916908373ffffffffffffffffffffffffffffffffffffffff1602179055508173ffffffffffffffffffffffffffffffffffffffff168173ffffffffffffffffffffffffffffffffffffffff167f8be0079c531659141344cd1fd0a4f28419497f9722a3daafe3b4186f6b6457e060405160405180910390a35050565b600060019054906101000a900460ff168061345a575060008054906101000a900460ff16155b613499576040517f08c379a0000000000000000000000000000000000000000000000000000000008152600401613490906149f8565b60405180910390fd5b60008060019054906101000a900460ff1615905080156134e9576001600060016101000a81548160ff02191690831515021790555060016000806101000a81548160ff0219169083151502179055505b6134f16137a3565b6134f961387c565b801561351a5760008060016101000a81548160ff0219169083151502179055505b50565b61359e8363a9059cbb60e01b848460405160240161353c92919061480f565b604051602081830303815290604052907bffffffffffffffffffffffffffffffffffffffffffffffffffffffff19166020820180517bffffffffffffffffffffffffffffffffffffffffffffffffffffffff8381831617835250505050613965565b505050565b6000819050919050565b6135b681613a2c565b6135f5576040517f08c379a00000000000000000000000000000000000000000000000000000000081526004016135ec90614a38565b60405180910390fd5b806136227f360894a13ba1a3210667c828492db98dca3e2076cc3735a920a3ca505d382bbc60001b6135a3565b60000160006101000a81548173ffffffffffffffffffffffffffffffffffffffff021916908373ffffffffffffffffffffffffffffffffffffffff16021790555050565b606061367183613a2c565b6136b0576040517f08c379a00000000000000000000000000000000000000000000000000000000081526004016136a790614a78565b60405180910390fd5b6000808473ffffffffffffffffffffffffffffffffffffffff16846040516136d89190614798565b600060405180830381855af49150503d8060008114613713576040519150601f19603f3d011682016040523d82523d6000602084013e613718565b606091505b5091509150613740828260405180606001604052806027815260200161541c60279139613a3f565b9250505092915050565b6000819050919050565b61375d816135ad565b8073ffffffffffffffffffffffffffffffffffffffff167fbc7cd75a20ee27fd9adebab32041f755214dbc6bffa90cc0225b39da2e5c2d3b60405160405180910390a250565b600060019054906101000a900460ff16806137c9575060008054906101000a900460ff16155b613808576040517f08c379a00000000000000000000000000000000000000000000000000000000081526004016137ff906149f8565b60405180910390fd5b60008060019054906101000a900460ff161590508015613858576001600060016101000a81548160ff02191690831515021790555060016000806101000a81548160ff0219169083151502179055505b80156138795760008060016101000a81548160ff0219169083151502179055505b50565b600060019054906101000a900460ff16806138a2575060008054906101000a900460ff16155b6138e1576040517f08c379a00000000000000000000000000000000000000000000000000000000081526004016138d8906149f8565b60405180910390fd5b60008060019054906101000a900460ff161590508015613931576001600060016101000a81548160ff02191690831515021790555060016000806101000a81548160ff0219169083151502179055505b61394161393c613366565b61336e565b80156139625760008060016101000a81548160ff0219169083151502179055505b50565b60006139c7826040518060400160405280602081526020017f5361666545524332303a206c6f772d6c6576656c2063616c6c206661696c65648152508573ffffffffffffffffffffffffffffffffffffffff16613aa69092919063ffffffff16565b9050600081511115613a2757808060200190518101906139e79190613f70565b613a26576040517f08c379a0000000000000000000000000000000000000000000000000000000008152600401613a1d90614ad8565b60405180910390fd5b5b505050565b600080823b905060008111915050919050565b60608315613a4f57829050613a9f565b600083511115613a625782518084602001fd5b816040517f08c379a0000000000000000000000000000000000000000000000000000000008152600401613a96919061486e565b60405180910390fd5b9392505050565b6060613ab58484600085613abe565b90509392505050565b606082471015613b03576040517f08c379a0000000000000000000000000000000000000000000000000000000008152600401613afa90614998565b60405180910390fd5b613b0c85613a2c565b613b4b576040517f08c379a0000000000000000000000000000000000000000000000000000000008152600401613b4290614a98565b60405180910390fd5b6000808673ffffffffffffffffffffffffffffffffffffffff168587604051613b749190614798565b60006040518083038185875af1925050503d8060008114613bb1576040519150601f19603f3d011682016040523d82523d6000602084013e613bb6565b606091505b5091509150613bc6828286613a3f565b92505050949350505050565b828054613bde90614dd9565b90600052602060002090601f016020900481019282613c005760008555613c47565b82601f10613c1957805160ff1916838001178555613c47565b82800160010185558215613c47579182015b82811115613c46578251825591602001919060010190613c2b565b5b509050613c549190613d25565b5090565b828054613c6490614dd9565b90600052602060002090601f016020900481019282613c865760008555613cd4565b82601f10613c975780548555613cd4565b82800160010185558215613cd457600052602060002091601f016020900482015b82811115613cd3578254825591600101919060010190613cb8565b5b509050613ce19190613d25565b5090565b508054613cf190614dd9565b6000825580601f10613d035750613d22565b601f016020900490600052602060002090810190613d219190613d25565b5b50565b5b80821115613d3e576000816000905550600101613d26565b5090565b6000613d55613d5084614bd8565b614bb3565b905082815260208101848484011115613d6d57600080fd5b613d78848285614d97565b509392505050565b6000613d93613d8e84614c09565b614bb3565b905082815260208101848484011115613dab57600080fd5b613db6848285614d97565b509392505050565b600081359050613dcd816153d6565b92915050565b600081359050613de2816153ed565b92915050565b600081519050613df7816153ed565b92915050565b600082601f830112613e0e57600080fd5b8135613e1e848260208601613d42565b91505092915050565b600082601f830112613e3857600080fd5b8135613e48848260208601613d80565b91505092915050565b600081359050613e6081615404565b92915050565b600081519050613e7581615404565b92915050565b600060208284031215613e8d57600080fd5b6000613e9b84828501613dbe565b91505092915050565b60008060408385031215613eb757600080fd5b6000613ec585828601613dbe565b9250506020613ed685828601613dd3565b9150509250929050565b60008060408385031215613ef357600080fd5b6000613f0185828601613dbe565b925050602083013567ffffffffffffffff811115613f1e57600080fd5b613f2a85828601613dfd565b9150509250929050565b60008060408385031215613f4757600080fd5b6000613f5585828601613dbe565b9250506020613f6685828601613e51565b9150509250929050565b600060208284031215613f8257600080fd5b6000613f9084828501613de8565b91505092915050565b600060208284031215613fab57600080fd5b600082013567ffffffffffffffff811115613fc557600080fd5b613fd184828501613e27565b91505092915050565b60008060408385031215613fed57600080fd5b600083013567ffffffffffffffff81111561400757600080fd5b61401385828601613e27565b925050602061402485828601613dbe565b9150509250929050565b60008060006060848603121561404357600080fd5b600084013567ffffffffffffffff81111561405d57600080fd5b61406986828701613e27565b935050602061407a86828701613dbe565b925050604061408b86828701613e51565b9150509250925092565b600080604083850312156140a857600080fd5b600083013567ffffffffffffffff8111156140c257600080fd5b6140ce85828601613e27565b92505060206140df85828601613dd3565b9150509250929050565b600080604083850312156140fc57600080fd5b600083013567ffffffffffffffff81111561411657600080fd5b61412285828601613e27565b925050602083013567ffffffffffffffff81111561413f57600080fd5b61414b85828601613e27565b9150509250929050565b60008060006060848603121561416a57600080fd5b600084013567ffffffffffffffff81111561418457600080fd5b61419086828701613e27565b935050602084013567ffffffffffffffff8111156141ad57600080fd5b6141b986828701613e27565b925050604084013567ffffffffffffffff8111156141d657600080fd5b6141e286828701613e27565b9150509250925092565b600080604083850312156141ff57600080fd5b600083013567ffffffffffffffff81111561421957600080fd5b61422585828601613e27565b925050602061423685828601613e51565b9150509250929050565b6000806000806080858703121561425657600080fd5b600085013567ffffffffffffffff81111561427057600080fd5b61427c87828801613e27565b945050602061428d87828801613e51565b935050604061429e87828801613e51565b92505060606142af87828801613e51565b91505092959194509250565b6000602082840312156142cd57600080fd5b60006142db84828501613e66565b91505092915050565b6142ed81614d2b565b82525050565b6142fc81614d3d565b82525050565b600061430d82614c64565b6143178185614c7a565b9350614327818560208601614da6565b80840191505092915050565b6000815461434081614dd9565b61434a8186614c7a565b945060018216600081146143655760018114614376576143a9565b60ff198316865281860193506143a9565b61437f85614c3a565b60005b838110156143a157815481890152600182019150602081019050614382565b838801955050505b50505092915050565b6143bb81614d73565b82525050565b60006143cc82614c6f565b6143d68185614c85565b93506143e6818560208601614da6565b6143ef81614f12565b840191505092915050565b600061440582614c6f565b61440f8185614c96565b935061441f818560208601614da6565b80840191505092915050565b6000815461443881614dd9565b6144428186614c96565b9450600182166000811461445d576001811461446e576144a1565b60ff198316865281860193506144a1565b61447785614c4f565b60005b838110156144995781548189015260018201915060208101905061447a565b838801955050505b50505092915050565b60006144b7602f83614c85565b91506144c282614f23565b604082019050919050565b60006144da602683614c85565b91506144e582614f72565b604082019050919050565b60006144fd602c83614c85565b915061450882614fc1565b604082019050919050565b6000614520601d83614c85565b915061452b82615010565b602082019050919050565b6000614543602c83614c85565b915061454e82615039565b604082019050919050565b6000614566602683614c85565b915061457182615088565b604082019050919050565b6000614589601183614c85565b9150614594826150d7565b602082019050919050565b60006145ac601383614c85565b91506145b782615100565b602082019050919050565b60006145cf602e83614c85565b91506145da82615129565b604082019050919050565b60006145f2601183614c85565b91506145fd82615178565b602082019050919050565b6000614615602d83614c85565b9150614620826151a1565b604082019050919050565b6000614638602083614c85565b9150614643826151f0565b602082019050919050565b600061465b602683614c85565b915061466682615219565b604082019050919050565b600061467e601d83614c85565b915061468982615268565b602082019050919050565b60006146a1601483614c85565b91506146ac82615291565b602082019050919050565b60006146c4602a83614c85565b91506146cf826152ba565b604082019050919050565b60006146e7601283614c85565b91506146f282615309565b602082019050919050565b600061470a601383614c85565b915061471582615332565b602082019050919050565b600061472d601b83614c85565b91506147388261535b565b602082019050919050565b6000614750600e83614c85565b915061475b82615384565b602082019050919050565b6000614773600b83614c85565b915061477e826153ad565b602082019050919050565b61479281614d69565b82525050565b60006147a48284614302565b915081905092915050565b60006147bb8284614333565b915081905092915050565b60006147d282846143fa565b915081905092915050565b60006147e9828461442b565b915081905092915050565b600060208201905061480960008301846142e4565b92915050565b600060408201905061482460008301856142e4565b6148316020830184614789565b9392505050565b600060208201905061484d60008301846142f3565b92915050565b600060208201905061486860008301846143b2565b92915050565b6000602082019050818103600083015261488881846143c1565b905092915050565b600060c08201905081810360008301526148aa81896143c1565b90506148b960208301886142e4565b6148c66040830187614789565b6148d36060830186614789565b6148e06080830185614789565b6148ed60a08301846142f3565b979650505050505050565b60006020820190508181036000830152614911816144aa565b9050919050565b60006020820190508181036000830152614931816144cd565b9050919050565b60006020820190508181036000830152614951816144f0565b9050919050565b6000602082019050818103600083015261497181614513565b9050919050565b6000602082019050818103600083015261499181614536565b9050919050565b600060208201905081810360008301526149b181614559565b9050919050565b600060208201905081810360008301526149d18161457c565b9050919050565b600060208201905081810360008301526149f18161459f565b9050919050565b60006020820190508181036000830152614a11816145c2565b9050919050565b60006020820190508181036000830152614a31816145e5565b9050919050565b60006020820190508181036000830152614a5181614608565b9050919050565b60006020820190508181036000830152614a718161462b565b9050919050565b60006020820190508181036000830152614a918161464e565b9050919050565b60006020820190508181036000830152614ab181614671565b9050919050565b60006020820190508181036000830152614ad181614694565b9050919050565b60006020820190508181036000830152614af1816146b7565b9050919050565b60006020820190508181036000830152614b11816146da565b9050919050565b60006020820190508181036000830152614b31816146fd565b9050919050565b60006020820190508181036000830152614b5181614720565b9050919050565b60006020820190508181036000830152614b7181614743565b9050919050565b60006020820190508181036000830152614b9181614766565b9050919050565b6000602082019050614bad6000830184614789565b92915050565b6000614bbd614bce565b9050614bc98282614e0b565b919050565b6000604051905090565b600067ffffffffffffffff821115614bf357614bf2614ee3565b5b614bfc82614f12565b9050602081019050919050565b600067ffffffffffffffff821115614c2457614c23614ee3565b5b614c2d82614f12565b9050602081019050919050565b60008190508160005260206000209050919050565b60008190508160005260206000209050919050565b600081519050919050565b600081519050919050565b600081905092915050565b600082825260208201905092915050565b600081905092915050565b6000614cac82614d69565b9150614cb783614d69565b9250827fffffffffffffffffffffffffffffffffffffffffffffffffffffffffffffffff03821115614cec57614ceb614e85565b5b828201905092915050565b6000614d0282614d69565b9150614d0d83614d69565b925082821015614d2057614d1f614e85565b5b828203905092915050565b6000614d3682614d49565b9050919050565b60008115159050919050565b600073ffffffffffffffffffffffffffffffffffffffff82169050919050565b6000819050919050565b6000614d7e82614d85565b9050919050565b6000614d9082614d49565b9050919050565b82818337600083830152505050565b60005b83811015614dc4578082015181840152602081019050614da9565b83811115614dd3576000848401525b50505050565b60006002820490506001821680614df157607f821691505b60208210811415614e0557614e04614eb4565b5b50919050565b614e1482614f12565b810181811067ffffffffffffffff82111715614e3357614e32614ee3565b5b80604052505050565b6000614e4782614d69565b91507fffffffffffffffffffffffffffffffffffffffffffffffffffffffffffffffff821415614e7a57614e79614e85565b5b600182019050919050565b7f4e487b7100000000000000000000000000000000000000000000000000000000600052601160045260246000fd5b7f4e487b7100000000000000000000000000000000000000000000000000000000600052602260045260246000fd5b7f4e487b7100000000000000000000000000000000000000000000000000000000600052604160045260246000fd5b6000601f19601f8301169050919050565b7f45524331393637557067726164653a207570677261646520627265616b73206660008201527f7572746865722075706772616465730000000000000000000000000000000000602082015250565b7f4f776e61626c653a206e6577206f776e657220697320746865207a65726f206160008201527f6464726573730000000000000000000000000000000000000000000000000000602082015250565b7f46756e6374696f6e206d7573742062652063616c6c6564207468726f7567682060008201527f64656c656761746563616c6c0000000000000000000000000000000000000000602082015250565b7f43616c6c6572206973206e6f74206120617070726f76616c2075736572000000600082015250565b7f46756e6374696f6e206d7573742062652063616c6c6564207468726f7567682060008201527f6163746976652070726f78790000000000000000000000000000000000000000602082015250565b7f416464726573733a20696e73756666696369656e742062616c616e636520666f60008201527f722063616c6c0000000000000000000000000000000000000000000000000000602082015250565b7f50726f6772616d206e6f7420666f756e64000000000000000000000000000000600082015250565b7f57726f6e6720726566657272657220636f646500000000000000000000000000600082015250565b7f496e697469616c697a61626c653a20636f6e747261637420697320616c72656160008201527f647920696e697469616c697a6564000000000000000000000000000000000000602082015250565b7f4163636f756e74206e6f7420666f756e64000000000000000000000000000000600082015250565b7f455243313936373a206e657720696d706c656d656e746174696f6e206973206e60008201527f6f74206120636f6e747261637400000000000000000000000000000000000000602082015250565b7f4f776e61626c653a2063616c6c6572206973206e6f7420746865206f776e6572600082015250565b7f416464726573733a2064656c65676174652063616c6c20746f206e6f6e2d636f60008201527f6e74726163740000000000000000000000000000000000000000000000000000602082015250565b7f416464726573733a2063616c6c20746f206e6f6e2d636f6e7472616374000000600082015250565b7f43616e6e6f74206a6f696e20796f757273656c66000000000000000000000000600082015250565b7f5361666545524332303a204552433230206f7065726174696f6e20646964206e60008201527f6f74207375636365656400000000000000000000000000000000000000000000602082015250565b7f50726f6772616d2069732070617573696e670000000000000000000000000000600082015250565b7f50726f6772616d206973206578697374696e6700000000000000000000000000600082015250565b7f54686973207569642075736564206f7468657220616464726573730000000000600082015250565b7f416d6f756e742065786365656473000000000000000000000000000000000000600082015250565b7f55736572206a6f696e6564000000000000000000000000000000000000000000600082015250565b6153df81614d2b565b81146153ea57600080fd5b50565b6153f681614d3d565b811461540157600080fd5b50565b61540d81614d69565b811461541857600080fd5b5056fe416464726573733a206c6f772d6c6576656c2064656c65676174652063616c6c206661696c6564a26469706673582212206c96c0022882663335ffe96cdc2c9fe39be8f9143596d984ac2a07eda69bc85764736f6c63430008020033",
  "linkReferences": {},
  "deployedLinkReferences": {}
}