{
  "_format": "hh-sol-artifact-1",
  "contractName": "ReferralContract",
  "sourceName": "contracts/ReferralContract.sol",
  "abi": [
    {
      "inputs": [],
      "stateMutability": "nonpayable",
      "type": "constructor"
    },
    {
      "anonymous": false,
      "inputs": [
        {
          "indexed": false,
          "internalType": "address",
          "name": "previousAdmin",
          "type": "address"
        },
        {
          "indexed": false,
          "internalType": "address",
          "name": "newAdmin",
          "type": "address"
        }
      ],
      "name": "AdminChanged",
      "type": "event"
    },
    {
      "anonymous": false,
      "inputs": [
        {
          "indexed": true,
          "internalType": "address",
          "name": "beacon",
          "type": "address"
        }
      ],
      "name": "BeaconUpgraded",
      "type": "event"
    },
    {
      "anonymous": false,
      "inputs": [
        {
          "indexed": true,
          "internalType": "address",
          "name": "previousOwner",
          "type": "address"
        },
        {
          "indexed": true,
          "internalType": "address",
          "name": "newOwner",
          "type": "address"
        }
      ],
      "name": "OwnershipTransferred",
      "type": "event"
    },
    {
      "anonymous": false,
      "inputs": [
        {
          "indexed": true,
          "internalType": "address",
          "name": "implementation",
          "type": "address"
        }
      ],
      "name": "Upgraded",
      "type": "event"
    },
    {
      "inputs": [
        {
          "internalType": "string",
          "name": "_programCode",
          "type": "string"
        },
        {
          "internalType": "address",
          "name": "_tokenAddress",
          "type": "address"
        }
      ],
      "name": "addProgram",
      "outputs": [],
      "stateMutability": "nonpayable",
      "type": "function"
    },
    {
      "inputs": [
        {
          "internalType": "address",
          "name": "",
          "type": "address"
        }
      ],
      "name": "addressJoined",
      "outputs": [
        {
          "internalType": "string",
          "name": "",
          "type": "string"
        }
      ],
      "stateMutability": "view",
      "type": "function"
    },
    {
      "inputs": [
        {
          "internalType": "address",
          "name": "",
          "type": "address"
        }
      ],
      "name": "admins",
      "outputs": [
        {
          "internalType": "bool",
          "name": "",
          "type": "bool"
        }
      ],
      "stateMutability": "view",
      "type": "function"
    },
    {
      "inputs": [
        {
          "internalType": "string",
          "name": "_programCode",
          "type": "string"
        }
      ],
      "name": "approveAllIncentive",
      "outputs": [],
      "stateMutability": "nonpayable",
      "type": "function"
    },
    {
      "inputs": [
        {
          "internalType": "string",
          "name": "_programCode",
          "type": "string"
        },
        {
          "internalType": "string",
          "name": "_uid",
          "type": "string"
        }
      ],
      "name": "denyIncentive",
      "outputs": [],
      "stateMutability": "nonpayable",
      "type": "function"
    },
    {
      "inputs": [
        {
          "internalType": "address",
          "name": "_tokenAddress",
          "type": "address"
        },
        {
          "internalType": "uint256",
          "name": "_amount",
          "type": "uint256"
        }
      ],
      "name": "emergencyWithdrawToken",
      "outputs": [],
      "stateMutability": "nonpayable",
      "type": "function"
    },
    {
      "inputs": [
        {
          "internalType": "string",
          "name": "_programCode",
          "type": "string"
        }
      ],
      "name": "getIncentiveHolders",
      "outputs": [
        {
          "internalType": "string[]",
          "name": "",
          "type": "string[]"
        }
      ],
      "stateMutability": "view",
      "type": "function"
    },
    {
      "inputs": [
        {
          "internalType": "string",
          "name": "_programCode",
          "type": "string"
        }
      ],
      "name": "getIncentiveHoldersCount",
      "outputs": [
        {
          "internalType": "uint256",
          "name": "",
          "type": "uint256"
        }
      ],
      "stateMutability": "view",
      "type": "function"
    },
    {
      "inputs": [
        {
          "internalType": "string",
          "name": "_programCode",
          "type": "string"
        }
      ],
      "name": "getJoiner",
      "outputs": [
        {
          "internalType": "string[]",
          "name": "",
          "type": "string[]"
        }
      ],
      "stateMutability": "view",
      "type": "function"
    },
    {
      "inputs": [
        {
          "internalType": "string",
          "name": "_programCode",
          "type": "string"
        }
      ],
      "name": "getTotalJoiner",
      "outputs": [
        {
          "internalType": "uint256",
          "name": "",
          "type": "uint256"
        }
      ],
      "stateMutability": "view",
      "type": "function"
    },
    {
      "inputs": [
        {
          "internalType": "string",
          "name": "",
          "type": "string"
        },
        {
          "internalType": "uint256",
          "name": "",
          "type": "uint256"
        }
      ],
      "name": "holdReferrer",
      "outputs": [
        {
          "internalType": "string",
          "name": "",
          "type": "string"
        }
      ],
      "stateMutability": "view",
      "type": "function"
    },
    {
      "inputs": [
        {
          "internalType": "string",
          "name": "",
          "type": "string"
        },
        {
          "internalType": "string",
          "name": "",
          "type": "string"
        }
      ],
      "name": "incentiveHold",
      "outputs": [
        {
          "internalType": "uint256",
          "name": "",
          "type": "uint256"
        }
      ],
      "stateMutability": "view",
      "type": "function"
    },
    {
      "inputs": [
        {
          "internalType": "string",
          "name": "",
          "type": "string"
        }
      ],
      "name": "incentiveProgram",
      "outputs": [
        {
          "internalType": "uint256",
          "name": "",
          "type": "uint256"
        }
      ],
      "stateMutability": "view",
      "type": "function"
    },
    {
      "inputs": [],
      "name": "initialize",
      "outputs": [],
      "stateMutability": "nonpayable",
      "type": "function"
    },
    {
      "inputs": [
        {
          "internalType": "string",
          "name": "_programCode",
          "type": "string"
        },
        {
          "internalType": "string",
          "name": "_uid",
          "type": "string"
        },
        {
          "internalType": "string",
          "name": "_referrerCode",
          "type": "string"
        }
      ],
      "name": "joinProgram",
      "outputs": [],
      "stateMutability": "nonpayable",
      "type": "function"
    },
    {
      "inputs": [],
      "name": "owner",
      "outputs": [
        {
          "internalType": "address",
          "name": "",
          "type": "address"
        }
      ],
      "stateMutability": "view",
      "type": "function"
    },
    {
      "inputs": [
        {
          "internalType": "string",
          "name": "",
          "type": "string"
        }
      ],
      "name": "programs",
      "outputs": [
        {
          "internalType": "string",
          "name": "code",
          "type": "string"
        },
        {
          "internalType": "address",
          "name": "tokenAddress",
          "type": "address"
        },
        {
          "internalType": "uint256",
          "name": "incentiveL0",
          "type": "uint256"
        },
        {
          "internalType": "uint256",
          "name": "incentiveL1",
          "type": "uint256"
        },
        {
          "internalType": "uint256",
          "name": "incentiveL2",
          "type": "uint256"
        },
        {
          "internalType": "bool",
          "name": "paused",
          "type": "bool"
        }
      ],
      "stateMutability": "view",
      "type": "function"
    },
    {
      "inputs": [
        {
          "internalType": "string",
          "name": "",
          "type": "string"
        },
        {
          "internalType": "address",
          "name": "",
          "type": "address"
        }
      ],
      "name": "rUserFromReferer",
      "outputs": [
        {
          "internalType": "address",
          "name": "",
          "type": "address"
        }
      ],
      "stateMutability": "view",
      "type": "function"
    },
    {
      "inputs": [
        {
          "internalType": "string",
          "name": "",
          "type": "string"
        },
        {
          "internalType": "uint256",
          "name": "",
          "type": "uint256"
        }
      ],
      "name": "refereesProgram",
      "outputs": [
        {
          "internalType": "string",
          "name": "",
          "type": "string"
        }
      ],
      "stateMutability": "view",
      "type": "function"
    },
    {
      "inputs": [
        {
          "internalType": "string",
          "name": "_programCode",
          "type": "string"
        },
        {
          "internalType": "string",
          "name": "_uid",
          "type": "string"
        }
      ],
      "name": "removeJoinProgram",
      "outputs": [],
      "stateMutability": "nonpayable",
      "type": "function"
    },
    {
      "inputs": [],
      "name": "renounceOwnership",
      "outputs": [],
      "stateMutability": "nonpayable",
      "type": "function"
    },
    {
      "inputs": [
        {
          "internalType": "address",
          "name": "_adminAddress",
          "type": "address"
        },
        {
          "internalType": "bool",
          "name": "_allow",
          "type": "bool"
        }
      ],
      "name": "setAdmin",
      "outputs": [],
      "stateMutability": "nonpayable",
      "type": "function"
    },
    {
      "inputs": [
        {
          "internalType": "string",
          "name": "_programCode",
          "type": "string"
        },
        {
          "internalType": "uint256",
          "name": "_amount1",
          "type": "uint256"
        },
        {
          "internalType": "uint256",
          "name": "_amount2",
          "type": "uint256"
        },
        {
          "internalType": "uint256",
          "name": "_amount3",
          "type": "uint256"
        }
      ],
      "name": "setIncentiveAmount",
      "outputs": [],
      "stateMutability": "nonpayable",
      "type": "function"
    },
    {
      "inputs": [
        {
          "internalType": "string",
          "name": "_programCode",
          "type": "string"
        },
        {
          "internalType": "bool",
          "name": "_pause",
          "type": "bool"
        }
      ],
      "name": "setPause",
      "outputs": [],
      "stateMutability": "nonpayable",
      "type": "function"
    },
    {
      "inputs": [],
      "name": "token",
      "outputs": [
        {
          "internalType": "contract IERC20Upgradeable",
          "name": "",
          "type": "address"
        }
      ],
      "stateMutability": "view",
      "type": "function"
    },
    {
      "inputs": [
        {
          "internalType": "address",
          "name": "newOwner",
          "type": "address"
        }
      ],
      "name": "transferOwnership",
      "outputs": [],
      "stateMutability": "nonpayable",
      "type": "function"
    },
    {
      "inputs": [
        {
          "internalType": "string",
          "name": "",
          "type": "string"
        },
        {
          "internalType": "string",
          "name": "",
          "type": "string"
        }
      ],
      "name": "uidJoined",
      "outputs": [
        {
          "internalType": "address",
          "name": "",
          "type": "address"
        }
      ],
      "stateMutability": "view",
      "type": "function"
    },
    {
      "inputs": [
        {
          "internalType": "address",
          "name": "newImplementation",
          "type": "address"
        }
      ],
      "name": "upgradeTo",
      "outputs": [],
      "stateMutability": "nonpayable",
      "type": "function"
    },
    {
      "inputs": [
        {
          "internalType": "address",
          "name": "newImplementation",
          "type": "address"
        },
        {
          "internalType": "bytes",
          "name": "data",
          "type": "bytes"
        }
      ],
      "name": "upgradeToAndCall",
      "outputs": [],
      "stateMutability": "payable",
      "type": "function"
    },
    {
      "inputs": [
        {
          "internalType": "string",
          "name": "",
          "type": "string"
        }
      ],
      "name": "userJoined",
      "outputs": [
        {
          "internalType": "address",
          "name": "",
          "type": "address"
        }
      ],
      "stateMutability": "view",
      "type": "function"
    },
    {
      "inputs": [
        {
          "internalType": "string",
          "name": "",
          "type": "string"
        },
        {
          "internalType": "address",
          "name": "",
          "type": "address"
        },
        {
          "internalType": "uint256",
          "name": "",
          "type": "uint256"
        }
      ],
      "name": "userReferees",
      "outputs": [
        {
          "internalType": "address",
          "name": "",
          "type": "address"
        }
      ],
      "stateMutability": "view",
      "type": "function"
    },
    {
      "inputs": [],
      "name": "version",
      "outputs": [
        {
          "internalType": "string",
          "name": "",
          "type": "string"
        }
      ],
      "stateMutability": "pure",
      "type": "function"
    }
  ],
  "bytecode": "0x60a06040523073ffffffffffffffffffffffffffffffffffffffff1660809073ffffffffffffffffffffffffffffffffffffffff1660601b8152503480156200004757600080fd5b50600060019054906101000a900460ff16806200006f575060008054906101000a900460ff16155b620000b1576040517f08c379a0000000000000000000000000000000000000000000000000000000008152600401620000a89062000152565b60405180910390fd5b60008060019054906101000a900460ff16159050801562000102576001600060016101000a81548160ff02191690831515021790555060016000806101000a81548160ff0219169083151502179055505b8015620001245760008060016101000a81548160ff0219169083151502179055505b50620001d4565b60006200013a602e8362000174565b9150620001478262000185565b604082019050919050565b600060208201905081810360008301526200016d816200012b565b9050919050565b600082825260208201905092915050565b7f496e697469616c697a61626c653a20636f6e747261637420697320616c72656160008201527f647920696e697469616c697a6564000000000000000000000000000000000000602082015250565b60805160601c61582b6200020860003960008181610b3701528181610bc601528181610fb70152611046015261582b6000f3fe6080604052600436106101e35760003560e01c80638129fc1c11610102578063ca0f059a11610095578063e465727211610064578063e465727214610740578063f161862d1461077d578063f2fde38b146107ba578063fc0c546a146107e3576101e3565b8063ca0f059a14610688578063cb25b67d146106b1578063d3f0b702146106da578063df7662b814610717576101e3565b8063a9fb69fa116100d1578063a9fb69fa1461058f578063b055b271146105cc578063b5dd4a3214610609578063c2e44d7d1461064b576101e3565b80638129fc1c146104e75780638da5cb5b146104fe578063922f917814610529578063a4c3b09114610566576101e3565b80634f1ef2861161017a5780637185ef3c116101495780637185ef3c1461041b578063737425141461044457806374b47a1b1461048157806375f274a2146104be576101e3565b80634f1ef2861461038057806354fd4d501461039c5780636326a0a0146103c7578063715018a614610404576101e3565b8063398fa16a116101b6578063398fa16a146102b4578063429b62e5146102dd578063467823541461031a5780634b0bddd214610357576101e3565b80630b3d3f46146101e857806319e9e88f1461021157806333ae0e7a1461024e5780633659cfe61461028b575b600080fd5b3480156101f457600080fd5b5061020f600480360381019061020a9190614293565b61080e565b005b34801561021d57600080fd5b50610238600480360381019061023391906143a2565b610a73565b6040516102459190614f35565b60405180910390f35b34801561025a57600080fd5b50610275600480360381019061027091906142e7565b610ac4565b6040516102829190614b6f565b60405180910390f35b34801561029757600080fd5b506102b260048036038101906102ad9190614134565b610b35565b005b3480156102c057600080fd5b506102db60048036038101906102d691906144f9565b610ce4565b005b3480156102e957600080fd5b5061030460048036038101906102ff9190614134565b610def565b6040516103119190614bd5565b60405180910390f35b34801561032657600080fd5b50610341600480360381019061033c91906144a5565b610e0f565b60405161034e9190614c0b565b60405180910390f35b34801561036357600080fd5b5061037e6004803603810190610379919061415d565b610ede565b005b61039a60048036038101906103959190614199565b610fb5565b005b3480156103a857600080fd5b506103b16110f2565b6040516103be9190614c0b565b60405180910390f35b3480156103d357600080fd5b506103ee60048036038101906103e99190614134565b61112f565b6040516103fb9190614c0b565b60405180910390f35b34801561041057600080fd5b506104196111cf565b005b34801561042757600080fd5b50610442600480360381019061043d91906143a2565b611257565b005b34801561045057600080fd5b5061046b600480360381019061046691906143a2565b6113df565b6040516104789190614b6f565b60405180910390f35b34801561048d57600080fd5b506104a860048036038101906104a39190614252565b61144d565b6040516104b59190614bb3565b60405180910390f35b3480156104ca57600080fd5b506104e560048036038101906104e091906143a2565b611544565b005b3480156104f357600080fd5b506104fc61171f565b005b34801561050a57600080fd5b5061051361185f565b6040516105209190614b6f565b60405180910390f35b34801561053557600080fd5b50610550600480360381019061054b9190614252565b611889565b60405161055d9190614b6f565b60405180910390f35b34801561057257600080fd5b5061058d600480360381019061058891906141ed565b6118d2565b005b34801561059b57600080fd5b506105b660048036038101906105b19190614252565b611ad4565b6040516105c39190614f35565b60405180910390f35b3480156105d857600080fd5b506105f360048036038101906105ee9190614293565b611aff565b6040516106009190614b6f565b60405180910390f35b34801561061557600080fd5b50610630600480360381019061062b9190614252565b611b57565b60405161064296959493929190614c2d565b60405180910390f35b34801561065757600080fd5b50610672600480360381019061066d9190614252565b611c5e565b60405161067f9190614bb3565b60405180910390f35b34801561069457600080fd5b506106af60048036038101906106aa9190614252565b611d55565b005b3480156106bd57600080fd5b506106d860048036038101906106d3919061440e565b6121cf565b005b3480156106e657600080fd5b5061070160048036038101906106fc9190614252565b6130a2565b60405161070e9190614f35565b60405180910390f35b34801561072357600080fd5b5061073e6004803603810190610739919061434e565b6130cd565b005b34801561074c57600080fd5b5061076760048036038101906107629190614252565b61319d565b6040516107749190614f35565b60405180910390f35b34801561078957600080fd5b506107a4600480360381019061079f91906144a5565b6131cb565b6040516107b19190614c0b565b60405180910390f35b3480156107c657600080fd5b506107e160048036038101906107dc9190614134565b61329a565b005b3480156107ef57600080fd5b506107f8613392565b6040516108059190614bf0565b60405180910390f35b6001151560c960003373ffffffffffffffffffffffffffffffffffffffff1673ffffffffffffffffffffffffffffffffffffffff16815260200190815260200160002060009054906101000a900460ff161515146108a1576040517f08c379a000000000000000000000000000000000000000000000000000000000815260040161089890614cf5565b60405180910390fd5b600073ffffffffffffffffffffffffffffffffffffffff1660ca836040516108c99190614b41565b908152602001604051809103902060010160009054906101000a900473ffffffffffffffffffffffffffffffffffffffff1673ffffffffffffffffffffffffffffffffffffffff1614610951576040517f08c379a000000000000000000000000000000000000000000000000000000000815260040161094890614eb5565b60405180910390fd5b6040518060c001604052808381526020018273ffffffffffffffffffffffffffffffffffffffff16815260200166470de4df8200008152602001662386f26fc10000815260200166038d7ea4c6800081526020016000151581525060ca836040516109bc9190614b41565b908152602001604051809103902060008201518160000190805190602001906109e6929190613ecb565b5060208201518160010160006101000a81548173ffffffffffffffffffffffffffffffffffffffff021916908373ffffffffffffffffffffffffffffffffffffffff16021790555060408201518160020155606082015181600301556080820151816004015560a08201518160050160006101000a81548160ff0219169083151502179055509050505050565b60d38280516020810182018051848252602083016020850120818352809550505050505081805160208101820180518482526020830160208501208183528095505050505050600091509150505481565b60cd838051602081018201805184825260208301602085012081835280955050505050506020528160005260406000208181548110610b0257600080fd5b90600052602060002001600092509250509054906101000a900473ffffffffffffffffffffffffffffffffffffffff1681565b7f000000000000000000000000000000000000000000000000000000000000000073ffffffffffffffffffffffffffffffffffffffff163073ffffffffffffffffffffffffffffffffffffffff161415610bc4576040517f08c379a0000000000000000000000000000000000000000000000000000000008152600401610bbb90614cd5565b60405180910390fd5b7f000000000000000000000000000000000000000000000000000000000000000073ffffffffffffffffffffffffffffffffffffffff16610c036133b8565b73ffffffffffffffffffffffffffffffffffffffff1614610c59576040517f08c379a0000000000000000000000000000000000000000000000000000000008152600401610c5090614d15565b60405180910390fd5b610c628161340f565b610ce181600067ffffffffffffffff811115610ca7577f4e487b7100000000000000000000000000000000000000000000000000000000600052604160045260246000fd5b6040519080825280601f01601f191660200182016040528015610cd95781602001600182028036833780820191505090505b50600061348e565b50565b6001151560c960003373ffffffffffffffffffffffffffffffffffffffff1673ffffffffffffffffffffffffffffffffffffffff16815260200190815260200160002060009054906101000a900460ff16151514610d77576040517f08c379a0000000000000000000000000000000000000000000000000000000008152600401610d6e90614cf5565b60405180910390fd5b8260ca85604051610d889190614b41565b9081526020016040518091039020600201819055508160ca85604051610dae9190614b41565b9081526020016040518091039020600301819055508060ca85604051610dd49190614b41565b90815260200160405180910390206004018190555050505050565b60c96020528060005260406000206000915054906101000a900460ff1681565b60d2828051602081018201805184825260208301602085012081835280955050505050508181548110610e4157600080fd5b90600052602060002001600091509150508054610e5d9061518c565b80601f0160208091040260200160405190810160405280929190818152602001828054610e899061518c565b8015610ed65780601f10610eab57610100808354040283529160200191610ed6565b820191906000526020600020905b815481529060010190602001808311610eb957829003601f168201915b505050505081565b610ee661365f565b73ffffffffffffffffffffffffffffffffffffffff16610f0461185f565b73ffffffffffffffffffffffffffffffffffffffff1614610f5a576040517f08c379a0000000000000000000000000000000000000000000000000000000008152600401610f5190614df5565b60405180910390fd5b8060c960008473ffffffffffffffffffffffffffffffffffffffff1673ffffffffffffffffffffffffffffffffffffffff16815260200190815260200160002060006101000a81548160ff0219169083151502179055505050565b7f000000000000000000000000000000000000000000000000000000000000000073ffffffffffffffffffffffffffffffffffffffff163073ffffffffffffffffffffffffffffffffffffffff161415611044576040517f08c379a000000000000000000000000000000000000000000000000000000000815260040161103b90614cd5565b60405180910390fd5b7f000000000000000000000000000000000000000000000000000000000000000073ffffffffffffffffffffffffffffffffffffffff166110836133b8565b73ffffffffffffffffffffffffffffffffffffffff16146110d9576040517f08c379a00000000000000000000000000000000000000000000000000000000081526004016110d090614d15565b60405180910390fd5b6110e28261340f565b6110ee8282600161348e565b5050565b60606040518060400160405280600281526020017f7631000000000000000000000000000000000000000000000000000000000000815250905090565b60cf602052806000526040600020600091509050805461114e9061518c565b80601f016020809104026020016040519081016040528092919081815260200182805461117a9061518c565b80156111c75780601f1061119c576101008083540402835291602001916111c7565b820191906000526020600020905b8154815290600101906020018083116111aa57829003601f168201915b505050505081565b6111d761365f565b73ffffffffffffffffffffffffffffffffffffffff166111f561185f565b73ffffffffffffffffffffffffffffffffffffffff161461124b576040517f08c379a000000000000000000000000000000000000000000000000000000000815260040161124290614df5565b60405180910390fd5b6112556000613667565b565b6001151560c960003373ffffffffffffffffffffffffffffffffffffffff1673ffffffffffffffffffffffffffffffffffffffff16815260200190815260200160002060009054906101000a900460ff161515146112ea576040517f08c379a00000000000000000000000000000000000000000000000000000000081526004016112e190614cf5565b60405180910390fd5b600073ffffffffffffffffffffffffffffffffffffffff1660ca836040516113129190614b41565b908152602001604051809103902060010160009054906101000a900473ffffffffffffffffffffffffffffffffffffffff1673ffffffffffffffffffffffffffffffffffffffff16141561139b576040517f08c379a000000000000000000000000000000000000000000000000000000000815260040161139290614d55565b60405180910390fd5b600060d3836040516113ad9190614b41565b9081526020016040518091039020826040516113c99190614b41565b9081526020016040518091039020819055505050565b60cb82805160208101820180518482526020830160208501208183528095505050505050818051602081018201805184825260208301602085012081835280955050505050506000915091509054906101000a900473ffffffffffffffffffffffffffffffffffffffff1681565b606060d08260405161145f9190614b41565b9081526020016040518091039020805480602002602001604051908101604052809291908181526020016000905b828210156115395783829060005260206000200180546114ac9061518c565b80601f01602080910402602001604051908101604052809291908181526020018280546114d89061518c565b80156115255780601f106114fa57610100808354040283529160200191611525565b820191906000526020600020905b81548152906001019060200180831161150857829003601f168201915b50505050508152602001906001019061148d565b505050509050919050565b6001151560c960003373ffffffffffffffffffffffffffffffffffffffff1673ffffffffffffffffffffffffffffffffffffffff16815260200190815260200160002060009054906101000a900460ff161515146115d7576040517f08c379a00000000000000000000000000000000000000000000000000000000081526004016115ce90614cf5565b60405180910390fd5b600073ffffffffffffffffffffffffffffffffffffffff1660cb836040516115ff9190614b41565b90815260200160405180910390208260405161161b9190614b41565b908152602001604051809103902060009054906101000a900473ffffffffffffffffffffffffffffffffffffffff1673ffffffffffffffffffffffffffffffffffffffff1614156116a1576040517f08c379a000000000000000000000000000000000000000000000000000000000815260040161169890614db5565b60405180910390fd5b600060cb836040516116b39190614b41565b9081526020016040518091039020826040516116cf9190614b41565b908152602001604051809103902060006101000a81548173ffffffffffffffffffffffffffffffffffffffff021916908373ffffffffffffffffffffffffffffffffffffffff1602179055505050565b600060019054906101000a900460ff1680611745575060008054906101000a900460ff16155b611784576040517f08c379a000000000000000000000000000000000000000000000000000000000815260040161177b90614d95565b60405180910390fd5b60008060019054906101000a900460ff1615905080156117d4576001600060016101000a81548160ff02191690831515021790555060016000806101000a81548160ff0219169083151502179055505b6117dc61372d565b600160c960006117ea61185f565b73ffffffffffffffffffffffffffffffffffffffff1673ffffffffffffffffffffffffffffffffffffffff16815260200190815260200160002060006101000a81548160ff021916908315150217905550801561185c5760008060016101000a81548160ff0219169083151502179055505b50565b6000609760009054906101000a900473ffffffffffffffffffffffffffffffffffffffff16905090565b60ce818051602081018201805184825260208301602085012081835280955050505050506000915054906101000a900473ffffffffffffffffffffffffffffffffffffffff1681565b6118da61365f565b73ffffffffffffffffffffffffffffffffffffffff166118f861185f565b73ffffffffffffffffffffffffffffffffffffffff161461194e576040517f08c379a000000000000000000000000000000000000000000000000000000000815260040161194590614df5565b60405180910390fd5b8160d460006101000a81548173ffffffffffffffffffffffffffffffffffffffff021916908373ffffffffffffffffffffffffffffffffffffffff1602179055508060d460009054906101000a900473ffffffffffffffffffffffffffffffffffffffff1673ffffffffffffffffffffffffffffffffffffffff166370a08231306040518263ffffffff1660e01b81526004016119eb9190614b6f565b60206040518083038186803b158015611a0357600080fd5b505afa158015611a17573d6000803e3d6000fd5b505050506040513d601f19601f82011682018060405250810190611a3b9190614574565b1015611a7c576040517f08c379a0000000000000000000000000000000000000000000000000000000008152600401611a7390614ef5565b60405180910390fd5b611ad0611a8761185f565b8260d460009054906101000a900473ffffffffffffffffffffffffffffffffffffffff1673ffffffffffffffffffffffffffffffffffffffff166138169092919063ffffffff16565b5050565b600060d082604051611ae69190614b41565b9081526020016040518091039020805490509050919050565b60cc828051602081018201805184825260208301602085012081835280955050505050506020528060005260406000206000915091509054906101000a900473ffffffffffffffffffffffffffffffffffffffff1681565b60ca81805160208101820180518482526020830160208501208183528095505050505050600091509050806000018054611b909061518c565b80601f0160208091040260200160405190810160405280929190818152602001828054611bbc9061518c565b8015611c095780601f10611bde57610100808354040283529160200191611c09565b820191906000526020600020905b815481529060010190602001808311611bec57829003601f168201915b5050505050908060010160009054906101000a900473ffffffffffffffffffffffffffffffffffffffff16908060020154908060030154908060040154908060050160009054906101000a900460ff16905086565b606060d282604051611c709190614b41565b9081526020016040518091039020805480602002602001604051908101604052809291908181526020016000905b82821015611d4a578382906000526020600020018054611cbd9061518c565b80601f0160208091040260200160405190810160405280929190818152602001828054611ce99061518c565b8015611d365780601f10611d0b57610100808354040283529160200191611d36565b820191906000526020600020905b815481529060010190602001808311611d1957829003601f168201915b505050505081526020019060010190611c9e565b505050509050919050565b6001151560c960003373ffffffffffffffffffffffffffffffffffffffff1673ffffffffffffffffffffffffffffffffffffffff16815260200190815260200160002060009054906101000a900460ff16151514611de8576040517f08c379a0000000000000000000000000000000000000000000000000000000008152600401611ddf90614cf5565b60405180910390fd5b600073ffffffffffffffffffffffffffffffffffffffff1660ca82604051611e109190614b41565b908152602001604051809103902060010160009054906101000a900473ffffffffffffffffffffffffffffffffffffffff1673ffffffffffffffffffffffffffffffffffffffff161415611e99576040517f08c379a0000000000000000000000000000000000000000000000000000000008152600401611e9090614d55565b60405180910390fd5b600060ca82604051611eab9190614b41565b908152602001604051809103902060010160009054906101000a900473ffffffffffffffffffffffffffffffffffffffff1690508060d460006101000a81548173ffffffffffffffffffffffffffffffffffffffff021916908373ffffffffffffffffffffffffffffffffffffffff16021790555060005b60d283604051611f339190614b41565b9081526020016040518091039020805490508110156121ca57600060d284604051611f5e9190614b41565b90815260200160405180910390208281548110611fa4577f4e487b7100000000000000000000000000000000000000000000000000000000600052603260045260246000fd5b906000526020600020018054611fb99061518c565b80601f0160208091040260200160405190810160405280929190818152602001828054611fe59061518c565b80156120325780601f1061200757610100808354040283529160200191612032565b820191906000526020600020905b81548152906001019060200180831161201557829003601f168201915b50505050509050600060ce8260405161204b9190614b41565b908152602001604051809103902060009054906101000a900473ffffffffffffffffffffffffffffffffffffffff169050600060d38660405161208e9190614b41565b9081526020016040518091039020836040516120aa9190614b41565b908152602001604051809103902054905060008111156121b45760d460009054906101000a900473ffffffffffffffffffffffffffffffffffffffff1673ffffffffffffffffffffffffffffffffffffffff1663a9059cbb83836040518363ffffffff1660e01b8152600401612121929190614b8a565b602060405180830381600087803b15801561213b57600080fd5b505af115801561214f573d6000803e3d6000fd5b505050506040513d601f19601f820116820180604052508101906121739190614229565b508060d1876040516121859190614b41565b908152602001604051809103902060008282546121a29190615088565b925050819055506121b38684611257565b5b50505080806121c2906151ef565b915050611f23565b505050565b6000151560ca846040516121e39190614b41565b908152602001604051809103902060050160009054906101000a900460ff16151514612244576040517f08c379a000000000000000000000000000000000000000000000000000000000815260040161223b90614e95565b60405180910390fd5b600073ffffffffffffffffffffffffffffffffffffffff1660ca8460405161226c9190614b41565b908152602001604051809103902060010160009054906101000a900473ffffffffffffffffffffffffffffffffffffffff1673ffffffffffffffffffffffffffffffffffffffff1614156122f5576040517f08c379a00000000000000000000000000000000000000000000000000000000081526004016122ec90614d55565b60405180910390fd5b600081905060008151111561240457818051906020012083805190602001201415612355576040517f08c379a000000000000000000000000000000000000000000000000000000000815260040161234c90614e55565b60405180910390fd5b600073ffffffffffffffffffffffffffffffffffffffff1660ce8360405161237d9190614b41565b908152602001604051809103902060009054906101000a900473ffffffffffffffffffffffffffffffffffffffff1673ffffffffffffffffffffffffffffffffffffffff161415612403576040517f08c379a00000000000000000000000000000000000000000000000000000000081526004016123fa90614d75565b60405180910390fd5b5b600073ffffffffffffffffffffffffffffffffffffffff1660cb8560405161242c9190614b41565b9081526020016040518091039020846040516124489190614b41565b908152602001604051809103902060009054906101000a900473ffffffffffffffffffffffffffffffffffffffff1673ffffffffffffffffffffffffffffffffffffffff16146124cd576040517f08c379a00000000000000000000000000000000000000000000000000000000081526004016124c490614f15565b60405180910390fd5b600073ffffffffffffffffffffffffffffffffffffffff1660cc856040516124f59190614b41565b908152602001604051809103902060003373ffffffffffffffffffffffffffffffffffffffff1673ffffffffffffffffffffffffffffffffffffffff16815260200190815260200160002060009054906101000a900473ffffffffffffffffffffffffffffffffffffffff1673ffffffffffffffffffffffffffffffffffffffff16146126195760cf60003373ffffffffffffffffffffffffffffffffffffffff1673ffffffffffffffffffffffffffffffffffffffff1681526020019081526020016000206040516125c89190614b2a565b6040518091039020838051906020012014612618576040517f08c379a000000000000000000000000000000000000000000000000000000000815260040161260f90614ed5565b60405180910390fd5b5b600081511115612f1a57600060ce836040516126359190614b41565b908152602001604051809103902060009054906101000a900473ffffffffffffffffffffffffffffffffffffffff169050600060019050600073ffffffffffffffffffffffffffffffffffffffff1660cc876040516126949190614b41565b908152602001604051809103902060003373ffffffffffffffffffffffffffffffffffffffff1673ffffffffffffffffffffffffffffffffffffffff16815260200190815260200160002060009054906101000a900473ffffffffffffffffffffffffffffffffffffffff1673ffffffffffffffffffffffffffffffffffffffff161461272057600090505b8015612f1757600060ca876040516127389190614b41565b908152602001604051809103902060010160009054906101000a900473ffffffffffffffffffffffffffffffffffffffff1690508060d460006101000a81548173ffffffffffffffffffffffffffffffffffffffff021916908373ffffffffffffffffffffffffffffffffffffffff1602179055508260cc886040516127be9190614b41565b908152602001604051809103902060003373ffffffffffffffffffffffffffffffffffffffff1673ffffffffffffffffffffffffffffffffffffffff16815260200190815260200160002060006101000a81548173ffffffffffffffffffffffffffffffffffffffff021916908373ffffffffffffffffffffffffffffffffffffffff16021790555060cd876040516128579190614b41565b908152602001604051809103902060008473ffffffffffffffffffffffffffffffffffffffff1673ffffffffffffffffffffffffffffffffffffffff168152602001908152602001600020339080600181540180825580915050600190039060005260206000200160009091909190916101000a81548173ffffffffffffffffffffffffffffffffffffffff021916908373ffffffffffffffffffffffffffffffffffffffff160217905550600060d3886040516129159190614b41565b9081526020016040518091039020866040516129319190614b41565b908152602001604051809103902054141561299f5760d2876040516129569190614b41565b90815260200160405180910390208590806001815401808255809150506001900390600052602060002001600090919091909150908051906020019061299d929190613ecb565b505b60ca876040516129af9190614b41565b90815260200160405180910390206002015460d3886040516129d19190614b41565b9081526020016040518091039020866040516129ed9190614b41565b90815260200160405180910390206000828254612a0a9190615088565b92505081905550600060cc88604051612a239190614b41565b908152602001604051809103902060008573ffffffffffffffffffffffffffffffffffffffff1673ffffffffffffffffffffffffffffffffffffffff16815260200190815260200160002060009054906101000a900473ffffffffffffffffffffffffffffffffffffffff169050600073ffffffffffffffffffffffffffffffffffffffff168173ffffffffffffffffffffffffffffffffffffffff1614612f1457600060d389604051612ad79190614b41565b908152602001604051809103902060cf60008473ffffffffffffffffffffffffffffffffffffffff1673ffffffffffffffffffffffffffffffffffffffff168152602001908152602001600020604051612b319190614b58565b9081526020016040518091039020541415612be15760d288604051612b569190614b41565b908152602001604051809103902060cf60008373ffffffffffffffffffffffffffffffffffffffff1673ffffffffffffffffffffffffffffffffffffffff16815260200190815260200160002090806001815401808255809150506001900390600052602060002001600090919091909150908054612bd49061518c565b612bdf929190613f51565b505b60ca88604051612bf19190614b41565b90815260200160405180910390206003015460d389604051612c139190614b41565b908152602001604051809103902060cf60008473ffffffffffffffffffffffffffffffffffffffff1673ffffffffffffffffffffffffffffffffffffffff168152602001908152602001600020604051612c6d9190614b58565b90815260200160405180910390206000828254612c8a9190615088565b92505081905550600060cc89604051612ca39190614b41565b908152602001604051809103902060008373ffffffffffffffffffffffffffffffffffffffff1673ffffffffffffffffffffffffffffffffffffffff16815260200190815260200160002060009054906101000a900473ffffffffffffffffffffffffffffffffffffffff169050600073ffffffffffffffffffffffffffffffffffffffff168173ffffffffffffffffffffffffffffffffffffffff1614612f1257600060d38a604051612d579190614b41565b908152602001604051809103902060cf60008473ffffffffffffffffffffffffffffffffffffffff1673ffffffffffffffffffffffffffffffffffffffff168152602001908152602001600020604051612db19190614b58565b9081526020016040518091039020541415612e615760d289604051612dd69190614b41565b908152602001604051809103902060cf60008373ffffffffffffffffffffffffffffffffffffffff1673ffffffffffffffffffffffffffffffffffffffff16815260200190815260200160002090806001815401808255809150506001900390600052602060002001600090919091909150908054612e549061518c565b612e5f929190613f51565b505b60ca89604051612e719190614b41565b90815260200160405180910390206004015460d38a604051612e939190614b41565b908152602001604051809103902060cf60008473ffffffffffffffffffffffffffffffffffffffff1673ffffffffffffffffffffffffffffffffffffffff168152602001908152602001600020604051612eed9190614b58565b90815260200160405180910390206000828254612f0a9190615088565b925050819055505b505b50505b50505b3360cb85604051612f2b9190614b41565b908152602001604051809103902084604051612f479190614b41565b908152602001604051809103902060006101000a81548173ffffffffffffffffffffffffffffffffffffffff021916908373ffffffffffffffffffffffffffffffffffffffff1602179055503360ce84604051612fa49190614b41565b908152602001604051809103902060006101000a81548173ffffffffffffffffffffffffffffffffffffffff021916908373ffffffffffffffffffffffffffffffffffffffff1602179055508260cf60003373ffffffffffffffffffffffffffffffffffffffff1673ffffffffffffffffffffffffffffffffffffffff1681526020019081526020016000209080519060200190613043929190613ecb565b5060d0846040516130549190614b41565b90815260200160405180910390208390806001815401808255809150506001900390600052602060002001600090919091909150908051906020019061309b929190613ecb565b5050505050565b600060d2826040516130b49190614b41565b9081526020016040518091039020805490509050919050565b6001151560c960003373ffffffffffffffffffffffffffffffffffffffff1673ffffffffffffffffffffffffffffffffffffffff16815260200190815260200160002060009054906101000a900460ff16151514613160576040517f08c379a000000000000000000000000000000000000000000000000000000000815260040161315790614cf5565b60405180910390fd5b8060ca836040516131719190614b41565b908152602001604051809103902060050160006101000a81548160ff0219169083151502179055505050565b60d1818051602081018201805184825260208301602085012081835280955050505050506000915090505481565b60d08280516020810182018051848252602083016020850120818352809550505050505081815481106131fd57600080fd5b906000526020600020016000915091505080546132199061518c565b80601f01602080910402602001604051908101604052809291908181526020018280546132459061518c565b80156132925780601f1061326757610100808354040283529160200191613292565b820191906000526020600020905b81548152906001019060200180831161327557829003601f168201915b505050505081565b6132a261365f565b73ffffffffffffffffffffffffffffffffffffffff166132c061185f565b73ffffffffffffffffffffffffffffffffffffffff1614613316576040517f08c379a000000000000000000000000000000000000000000000000000000000815260040161330d90614df5565b60405180910390fd5b600073ffffffffffffffffffffffffffffffffffffffff168173ffffffffffffffffffffffffffffffffffffffff161415613386576040517f08c379a000000000000000000000000000000000000000000000000000000000815260040161337d90614cb5565b60405180910390fd5b61338f81613667565b50565b60d460009054906101000a900473ffffffffffffffffffffffffffffffffffffffff1681565b60006133e67f360894a13ba1a3210667c828492db98dca3e2076cc3735a920a3ca505d382bbc60001b61389c565b60000160009054906101000a900473ffffffffffffffffffffffffffffffffffffffff16905090565b61341761365f565b73ffffffffffffffffffffffffffffffffffffffff1661343561185f565b73ffffffffffffffffffffffffffffffffffffffff161461348b576040517f08c379a000000000000000000000000000000000000000000000000000000000815260040161348290614df5565b60405180910390fd5b50565b60006134986133b8565b90506134a3846138a6565b6000835111806134b05750815b156134c1576134bf848461395f565b505b60006134ef7f4910fdfa16fed3260ed0e7147f7cc6da11a60208b5b9406d12a635614ffd914360001b613a43565b90508060000160009054906101000a900460ff166136585760018160000160006101000a81548160ff0219169083151502179055506135bb85836040516024016135399190614b6f565b6040516020818303038152906040527f3659cfe6000000000000000000000000000000000000000000000000000000007bffffffffffffffffffffffffffffffffffffffffffffffffffffffff19166020820180517bffffffffffffffffffffffffffffffffffffffffffffffffffffffff838183161783525050505061395f565b5060008160000160006101000a81548160ff0219169083151502179055506135e16133b8565b73ffffffffffffffffffffffffffffffffffffffff168273ffffffffffffffffffffffffffffffffffffffff161461364e576040517f08c379a000000000000000000000000000000000000000000000000000000000815260040161364590614c95565b60405180910390fd5b61365785613a4d565b5b5050505050565b600033905090565b6000609760009054906101000a900473ffffffffffffffffffffffffffffffffffffffff16905081609760006101000a81548173ffffffffffffffffffffffffffffffffffffffff021916908373ffffffffffffffffffffffffffffffffffffffff1602179055508173ffffffffffffffffffffffffffffffffffffffff168173ffffffffffffffffffffffffffffffffffffffff167f8be0079c531659141344cd1fd0a4f28419497f9722a3daafe3b4186f6b6457e060405160405180910390a35050565b600060019054906101000a900460ff1680613753575060008054906101000a900460ff16155b613792576040517f08c379a000000000000000000000000000000000000000000000000000000000815260040161378990614d95565b60405180910390fd5b60008060019054906101000a900460ff1615905080156137e2576001600060016101000a81548160ff02191690831515021790555060016000806101000a81548160ff0219169083151502179055505b6137ea613a9c565b6137f2613b75565b80156138135760008060016101000a81548160ff0219169083151502179055505b50565b6138978363a9059cbb60e01b8484604051602401613835929190614b8a565b604051602081830303815290604052907bffffffffffffffffffffffffffffffffffffffffffffffffffffffff19166020820180517bffffffffffffffffffffffffffffffffffffffffffffffffffffffff8381831617835250505050613c5e565b505050565b6000819050919050565b6138af81613d25565b6138ee576040517f08c379a00000000000000000000000000000000000000000000000000000000081526004016138e590614dd5565b60405180910390fd5b8061391b7f360894a13ba1a3210667c828492db98dca3e2076cc3735a920a3ca505d382bbc60001b61389c565b60000160006101000a81548173ffffffffffffffffffffffffffffffffffffffff021916908373ffffffffffffffffffffffffffffffffffffffff16021790555050565b606061396a83613d25565b6139a9576040517f08c379a00000000000000000000000000000000000000000000000000000000081526004016139a090614e15565b60405180910390fd5b6000808473ffffffffffffffffffffffffffffffffffffffff16846040516139d19190614b13565b600060405180830381855af49150503d8060008114613a0c576040519150601f19603f3d011682016040523d82523d6000602084013e613a11565b606091505b5091509150613a3982826040518060600160405280602781526020016157cf60279139613d38565b9250505092915050565b6000819050919050565b613a56816138a6565b8073ffffffffffffffffffffffffffffffffffffffff167fbc7cd75a20ee27fd9adebab32041f755214dbc6bffa90cc0225b39da2e5c2d3b60405160405180910390a250565b600060019054906101000a900460ff1680613ac2575060008054906101000a900460ff16155b613b01576040517f08c379a0000000000000000000000000000000000000000000000000000000008152600401613af890614d95565b60405180910390fd5b60008060019054906101000a900460ff161590508015613b51576001600060016101000a81548160ff02191690831515021790555060016000806101000a81548160ff0219169083151502179055505b8015613b725760008060016101000a81548160ff0219169083151502179055505b50565b600060019054906101000a900460ff1680613b9b575060008054906101000a900460ff16155b613bda576040517f08c379a0000000000000000000000000000000000000000000000000000000008152600401613bd190614d95565b60405180910390fd5b60008060019054906101000a900460ff161590508015613c2a576001600060016101000a81548160ff02191690831515021790555060016000806101000a81548160ff0219169083151502179055505b613c3a613c3561365f565b613667565b8015613c5b5760008060016101000a81548160ff0219169083151502179055505b50565b6000613cc0826040518060400160405280602081526020017f5361666545524332303a206c6f772d6c6576656c2063616c6c206661696c65648152508573ffffffffffffffffffffffffffffffffffffffff16613d9f9092919063ffffffff16565b9050600081511115613d205780806020019051810190613ce09190614229565b613d1f576040517f08c379a0000000000000000000000000000000000000000000000000000000008152600401613d1690614e75565b60405180910390fd5b5b505050565b600080823b905060008111915050919050565b60608315613d4857829050613d98565b600083511115613d5b5782518084602001fd5b816040517f08c379a0000000000000000000000000000000000000000000000000000000008152600401613d8f9190614c0b565b60405180910390fd5b9392505050565b6060613dae8484600085613db7565b90509392505050565b606082471015613dfc576040517f08c379a0000000000000000000000000000000000000000000000000000000008152600401613df390614d35565b60405180910390fd5b613e0585613d25565b613e44576040517f08c379a0000000000000000000000000000000000000000000000000000000008152600401613e3b90614e35565b60405180910390fd5b6000808673ffffffffffffffffffffffffffffffffffffffff168587604051613e6d9190614b13565b60006040518083038185875af1925050503d8060008114613eaa576040519150601f19603f3d011682016040523d82523d6000602084013e613eaf565b606091505b5091509150613ebf828286613d38565b92505050949350505050565b828054613ed79061518c565b90600052602060002090601f016020900481019282613ef95760008555613f40565b82601f10613f1257805160ff1916838001178555613f40565b82800160010185558215613f40579182015b82811115613f3f578251825591602001919060010190613f24565b5b509050613f4d9190613fde565b5090565b828054613f5d9061518c565b90600052602060002090601f016020900481019282613f7f5760008555613fcd565b82601f10613f905780548555613fcd565b82800160010185558215613fcd57600052602060002091601f016020900482015b82811115613fcc578254825591600101919060010190613fb1565b5b509050613fda9190613fde565b5090565b5b80821115613ff7576000816000905550600101613fdf565b5090565b600061400e61400984614f75565b614f50565b90508281526020810184848401111561402657600080fd5b61403184828561514a565b509392505050565b600061404c61404784614fa6565b614f50565b90508281526020810184848401111561406457600080fd5b61406f84828561514a565b509392505050565b60008135905061408681615789565b92915050565b60008135905061409b816157a0565b92915050565b6000815190506140b0816157a0565b92915050565b600082601f8301126140c757600080fd5b81356140d7848260208601613ffb565b91505092915050565b600082601f8301126140f157600080fd5b8135614101848260208601614039565b91505092915050565b600081359050614119816157b7565b92915050565b60008151905061412e816157b7565b92915050565b60006020828403121561414657600080fd5b600061415484828501614077565b91505092915050565b6000806040838503121561417057600080fd5b600061417e85828601614077565b925050602061418f8582860161408c565b9150509250929050565b600080604083850312156141ac57600080fd5b60006141ba85828601614077565b925050602083013567ffffffffffffffff8111156141d757600080fd5b6141e3858286016140b6565b9150509250929050565b6000806040838503121561420057600080fd5b600061420e85828601614077565b925050602061421f8582860161410a565b9150509250929050565b60006020828403121561423b57600080fd5b6000614249848285016140a1565b91505092915050565b60006020828403121561426457600080fd5b600082013567ffffffffffffffff81111561427e57600080fd5b61428a848285016140e0565b91505092915050565b600080604083850312156142a657600080fd5b600083013567ffffffffffffffff8111156142c057600080fd5b6142cc858286016140e0565b92505060206142dd85828601614077565b9150509250929050565b6000806000606084860312156142fc57600080fd5b600084013567ffffffffffffffff81111561431657600080fd5b614322868287016140e0565b935050602061433386828701614077565b92505060406143448682870161410a565b9150509250925092565b6000806040838503121561436157600080fd5b600083013567ffffffffffffffff81111561437b57600080fd5b614387858286016140e0565b92505060206143988582860161408c565b9150509250929050565b600080604083850312156143b557600080fd5b600083013567ffffffffffffffff8111156143cf57600080fd5b6143db858286016140e0565b925050602083013567ffffffffffffffff8111156143f857600080fd5b614404858286016140e0565b9150509250929050565b60008060006060848603121561442357600080fd5b600084013567ffffffffffffffff81111561443d57600080fd5b614449868287016140e0565b935050602084013567ffffffffffffffff81111561446657600080fd5b614472868287016140e0565b925050604084013567ffffffffffffffff81111561448f57600080fd5b61449b868287016140e0565b9150509250925092565b600080604083850312156144b857600080fd5b600083013567ffffffffffffffff8111156144d257600080fd5b6144de858286016140e0565b92505060206144ef8582860161410a565b9150509250929050565b6000806000806080858703121561450f57600080fd5b600085013567ffffffffffffffff81111561452957600080fd5b614535878288016140e0565b94505060206145468782880161410a565b93505060406145578782880161410a565b92505060606145688782880161410a565b91505092959194509250565b60006020828403121561458657600080fd5b60006145948482850161411f565b91505092915050565b60006145a98383614703565b905092915050565b6145ba816150de565b82525050565b60006145cb82615011565b6145d5818561503f565b9350836020820285016145e785614fd7565b8060005b858110156146235784840389528151614604858261459d565b945061460f83615032565b925060208a019950506001810190506145eb565b50829750879550505050505092915050565b61463e816150f0565b82525050565b600061464f8261501c565b6146598185615050565b9350614669818560208601615159565b80840191505092915050565b600081546146828161518c565b61468c8186615050565b945060018216600081146146a757600181146146b8576146eb565b60ff198316865281860193506146eb565b6146c185614fe7565b60005b838110156146e3578154818901526001820191506020810190506146c4565b838801955050505b50505092915050565b6146fd81615126565b82525050565b600061470e82615027565b614718818561505b565b9350614728818560208601615159565b614731816152c5565b840191505092915050565b600061474782615027565b614751818561506c565b9350614761818560208601615159565b61476a816152c5565b840191505092915050565b600061478082615027565b61478a818561507d565b935061479a818560208601615159565b80840191505092915050565b600081546147b38161518c565b6147bd818661507d565b945060018216600081146147d857600181146147e95761481c565b60ff1983168652818601935061481c565b6147f285614ffc565b60005b83811015614814578154818901526001820191506020810190506147f5565b838801955050505b50505092915050565b6000614832602f8361506c565b915061483d826152d6565b604082019050919050565b600061485560268361506c565b915061486082615325565b604082019050919050565b6000614878602c8361506c565b915061488382615374565b604082019050919050565b600061489b601d8361506c565b91506148a6826153c3565b602082019050919050565b60006148be602c8361506c565b91506148c9826153ec565b604082019050919050565b60006148e160268361506c565b91506148ec8261543b565b604082019050919050565b600061490460118361506c565b915061490f8261548a565b602082019050919050565b600061492760138361506c565b9150614932826154b3565b602082019050919050565b600061494a602e8361506c565b9150614955826154dc565b604082019050919050565b600061496d60118361506c565b91506149788261552b565b602082019050919050565b6000614990602d8361506c565b915061499b82615554565b604082019050919050565b60006149b360208361506c565b91506149be826155a3565b602082019050919050565b60006149d660268361506c565b91506149e1826155cc565b604082019050919050565b60006149f9601d8361506c565b9150614a048261561b565b602082019050919050565b6000614a1c60148361506c565b9150614a2782615644565b602082019050919050565b6000614a3f602a8361506c565b9150614a4a8261566d565b604082019050919050565b6000614a6260128361506c565b9150614a6d826156bc565b602082019050919050565b6000614a8560138361506c565b9150614a90826156e5565b602082019050919050565b6000614aa8601b8361506c565b9150614ab38261570e565b602082019050919050565b6000614acb600e8361506c565b9150614ad682615737565b602082019050919050565b6000614aee600b8361506c565b9150614af982615760565b602082019050919050565b614b0d8161511c565b82525050565b6000614b1f8284614644565b915081905092915050565b6000614b368284614675565b915081905092915050565b6000614b4d8284614775565b915081905092915050565b6000614b6482846147a6565b915081905092915050565b6000602082019050614b8460008301846145b1565b92915050565b6000604082019050614b9f60008301856145b1565b614bac6020830184614b04565b9392505050565b60006020820190508181036000830152614bcd81846145c0565b905092915050565b6000602082019050614bea6000830184614635565b92915050565b6000602082019050614c0560008301846146f4565b92915050565b60006020820190508181036000830152614c25818461473c565b905092915050565b600060c0820190508181036000830152614c47818961473c565b9050614c5660208301886145b1565b614c636040830187614b04565b614c706060830186614b04565b614c7d6080830185614b04565b614c8a60a0830184614635565b979650505050505050565b60006020820190508181036000830152614cae81614825565b9050919050565b60006020820190508181036000830152614cce81614848565b9050919050565b60006020820190508181036000830152614cee8161486b565b9050919050565b60006020820190508181036000830152614d0e8161488e565b9050919050565b60006020820190508181036000830152614d2e816148b1565b9050919050565b60006020820190508181036000830152614d4e816148d4565b9050919050565b60006020820190508181036000830152614d6e816148f7565b9050919050565b60006020820190508181036000830152614d8e8161491a565b9050919050565b60006020820190508181036000830152614dae8161493d565b9050919050565b60006020820190508181036000830152614dce81614960565b9050919050565b60006020820190508181036000830152614dee81614983565b9050919050565b60006020820190508181036000830152614e0e816149a6565b9050919050565b60006020820190508181036000830152614e2e816149c9565b9050919050565b60006020820190508181036000830152614e4e816149ec565b9050919050565b60006020820190508181036000830152614e6e81614a0f565b9050919050565b60006020820190508181036000830152614e8e81614a32565b9050919050565b60006020820190508181036000830152614eae81614a55565b9050919050565b60006020820190508181036000830152614ece81614a78565b9050919050565b60006020820190508181036000830152614eee81614a9b565b9050919050565b60006020820190508181036000830152614f0e81614abe565b9050919050565b60006020820190508181036000830152614f2e81614ae1565b9050919050565b6000602082019050614f4a6000830184614b04565b92915050565b6000614f5a614f6b565b9050614f6682826151be565b919050565b6000604051905090565b600067ffffffffffffffff821115614f9057614f8f615296565b5b614f99826152c5565b9050602081019050919050565b600067ffffffffffffffff821115614fc157614fc0615296565b5b614fca826152c5565b9050602081019050919050565b6000819050602082019050919050565b60008190508160005260206000209050919050565b60008190508160005260206000209050919050565b600081519050919050565b600081519050919050565b600081519050919050565b6000602082019050919050565b600082825260208201905092915050565b600081905092915050565b600082825260208201905092915050565b600082825260208201905092915050565b600081905092915050565b60006150938261511c565b915061509e8361511c565b9250827fffffffffffffffffffffffffffffffffffffffffffffffffffffffffffffffff038211156150d3576150d2615238565b5b828201905092915050565b60006150e9826150fc565b9050919050565b60008115159050919050565b600073ffffffffffffffffffffffffffffffffffffffff82169050919050565b6000819050919050565b600061513182615138565b9050919050565b6000615143826150fc565b9050919050565b82818337600083830152505050565b60005b8381101561517757808201518184015260208101905061515c565b83811115615186576000848401525b50505050565b600060028204905060018216806151a457607f821691505b602082108114156151b8576151b7615267565b5b50919050565b6151c7826152c5565b810181811067ffffffffffffffff821117156151e6576151e5615296565b5b80604052505050565b60006151fa8261511c565b91507fffffffffffffffffffffffffffffffffffffffffffffffffffffffffffffffff82141561522d5761522c615238565b5b600182019050919050565b7f4e487b7100000000000000000000000000000000000000000000000000000000600052601160045260246000fd5b7f4e487b7100000000000000000000000000000000000000000000000000000000600052602260045260246000fd5b7f4e487b7100000000000000000000000000000000000000000000000000000000600052604160045260246000fd5b6000601f19601f8301169050919050565b7f45524331393637557067726164653a207570677261646520627265616b73206660008201527f7572746865722075706772616465730000000000000000000000000000000000602082015250565b7f4f776e61626c653a206e6577206f776e657220697320746865207a65726f206160008201527f6464726573730000000000000000000000000000000000000000000000000000602082015250565b7f46756e6374696f6e206d7573742062652063616c6c6564207468726f7567682060008201527f64656c656761746563616c6c0000000000000000000000000000000000000000602082015250565b7f43616c6c6572206973206e6f74206120617070726f76616c2075736572000000600082015250565b7f46756e6374696f6e206d7573742062652063616c6c6564207468726f7567682060008201527f6163746976652070726f78790000000000000000000000000000000000000000602082015250565b7f416464726573733a20696e73756666696369656e742062616c616e636520666f60008201527f722063616c6c0000000000000000000000000000000000000000000000000000602082015250565b7f50726f6772616d206e6f7420666f756e64000000000000000000000000000000600082015250565b7f57726f6e6720726566657272657220636f646500000000000000000000000000600082015250565b7f496e697469616c697a61626c653a20636f6e747261637420697320616c72656160008201527f647920696e697469616c697a6564000000000000000000000000000000000000602082015250565b7f4163636f756e74206e6f7420666f756e64000000000000000000000000000000600082015250565b7f455243313936373a206e657720696d706c656d656e746174696f6e206973206e60008201527f6f74206120636f6e747261637400000000000000000000000000000000000000602082015250565b7f4f776e61626c653a2063616c6c6572206973206e6f7420746865206f776e6572600082015250565b7f416464726573733a2064656c65676174652063616c6c20746f206e6f6e2d636f60008201527f6e74726163740000000000000000000000000000000000000000000000000000602082015250565b7f416464726573733a2063616c6c20746f206e6f6e2d636f6e7472616374000000600082015250565b7f43616e6e6f74206a6f696e20796f757273656c66000000000000000000000000600082015250565b7f5361666545524332303a204552433230206f7065726174696f6e20646964206e60008201527f6f74207375636365656400000000000000000000000000000000000000000000602082015250565b7f50726f6772616d2069732070617573696e670000000000000000000000000000600082015250565b7f50726f6772616d206973206578697374696e6700000000000000000000000000600082015250565b7f54686973207569642075736564206f7468657220616464726573730000000000600082015250565b7f416d6f756e742065786365656473000000000000000000000000000000000000600082015250565b7f55736572206a6f696e6564000000000000000000000000000000000000000000600082015250565b615792816150de565b811461579d57600080fd5b50565b6157a9816150f0565b81146157b457600080fd5b50565b6157c08161511c565b81146157cb57600080fd5b5056fe416464726573733a206c6f772d6c6576656c2064656c65676174652063616c6c206661696c6564a26469706673582212201e73267d7332d966dc6a76c4fe3460093bbe4d769a14f63cd8f74bf7ddb6f4af64736f6c63430008020033",
  "linkReferences": {},
  "deployedLinkReferences": {}
}