{
  "_format": "hh-sol-artifact-1",
  "contractName": "ReferralContract",
  "sourceName": "contracts/ReferralContract.sol",
  "abi": [
    {
      "inputs": [],
      "stateMutability": "nonpayable",
      "type": "constructor"
    },
    {
      "anonymous": false,
      "inputs": [
        {
          "indexed": false,
          "internalType": "address",
          "name": "previousAdmin",
          "type": "address"
        },
        {
          "indexed": false,
          "internalType": "address",
          "name": "newAdmin",
          "type": "address"
        }
      ],
      "name": "AdminChanged",
      "type": "event"
    },
    {
      "anonymous": false,
      "inputs": [
        {
          "indexed": true,
          "internalType": "address",
          "name": "beacon",
          "type": "address"
        }
      ],
      "name": "BeaconUpgraded",
      "type": "event"
    },
    {
      "anonymous": false,
      "inputs": [
        {
          "indexed": true,
          "internalType": "address",
          "name": "previousOwner",
          "type": "address"
        },
        {
          "indexed": true,
          "internalType": "address",
          "name": "newOwner",
          "type": "address"
        }
      ],
      "name": "OwnershipTransferred",
      "type": "event"
    },
    {
      "anonymous": false,
      "inputs": [
        {
          "indexed": true,
          "internalType": "address",
          "name": "implementation",
          "type": "address"
        }
      ],
      "name": "Upgraded",
      "type": "event"
    },
    {
      "inputs": [
        {
          "internalType": "string",
          "name": "_programCode",
          "type": "string"
        },
        {
          "internalType": "address",
          "name": "_tokenAddress",
          "type": "address"
        }
      ],
      "name": "addProgram",
      "outputs": [],
      "stateMutability": "nonpayable",
      "type": "function"
    },
    {
      "inputs": [
        {
          "internalType": "address",
          "name": "",
          "type": "address"
        }
      ],
      "name": "addressJoined",
      "outputs": [
        {
          "internalType": "string",
          "name": "",
          "type": "string"
        }
      ],
      "stateMutability": "view",
      "type": "function"
    },
    {
      "inputs": [
        {
          "internalType": "address",
          "name": "",
          "type": "address"
        }
      ],
      "name": "admins",
      "outputs": [
        {
          "internalType": "bool",
          "name": "",
          "type": "bool"
        }
      ],
      "stateMutability": "view",
      "type": "function"
    },
    {
      "inputs": [
        {
          "internalType": "string",
          "name": "_programCode",
          "type": "string"
        }
      ],
      "name": "approveAllIncentive",
      "outputs": [],
      "stateMutability": "nonpayable",
      "type": "function"
    },
    {
      "inputs": [
        {
          "internalType": "string",
          "name": "_programCode",
          "type": "string"
        },
        {
          "internalType": "string",
          "name": "_uid",
          "type": "string"
        }
      ],
      "name": "denyIncentive",
      "outputs": [],
      "stateMutability": "nonpayable",
      "type": "function"
    },
    {
      "inputs": [
        {
          "internalType": "address",
          "name": "_tokenAddress",
          "type": "address"
        },
        {
          "internalType": "uint256",
          "name": "_amount",
          "type": "uint256"
        }
      ],
      "name": "emergencyWithdrawToken",
      "outputs": [],
      "stateMutability": "nonpayable",
      "type": "function"
    },
    {
      "inputs": [
        {
          "internalType": "string",
          "name": "_programCode",
          "type": "string"
        }
      ],
      "name": "getIncentiveHolders",
      "outputs": [
        {
          "internalType": "string[]",
          "name": "",
          "type": "string[]"
        }
      ],
      "stateMutability": "view",
      "type": "function"
    },
    {
      "inputs": [
        {
          "internalType": "string",
          "name": "_programCode",
          "type": "string"
        }
      ],
      "name": "getIncentiveHoldersCount",
      "outputs": [
        {
          "internalType": "uint256",
          "name": "",
          "type": "uint256"
        }
      ],
      "stateMutability": "view",
      "type": "function"
    },
    {
      "inputs": [
        {
          "internalType": "string",
          "name": "_programCode",
          "type": "string"
        }
      ],
      "name": "getJoiner",
      "outputs": [
        {
          "internalType": "string[]",
          "name": "",
          "type": "string[]"
        }
      ],
      "stateMutability": "view",
      "type": "function"
    },
    {
      "inputs": [
        {
          "internalType": "string",
          "name": "_programCode",
          "type": "string"
        },
        {
          "internalType": "string",
          "name": "_uid",
          "type": "string"
        }
      ],
      "name": "getJoinerReferees",
      "outputs": [
        {
          "internalType": "string[]",
          "name": "",
          "type": "string[]"
        }
      ],
      "stateMutability": "view",
      "type": "function"
    },
    {
      "inputs": [
        {
          "internalType": "string",
          "name": "_programCode",
          "type": "string"
        }
      ],
      "name": "getTotalJoiner",
      "outputs": [
        {
          "internalType": "uint256",
          "name": "",
          "type": "uint256"
        }
      ],
      "stateMutability": "view",
      "type": "function"
    },
    {
      "inputs": [
        {
          "internalType": "string",
          "name": "",
          "type": "string"
        },
        {
          "internalType": "uint256",
          "name": "",
          "type": "uint256"
        }
      ],
      "name": "holdReferrer",
      "outputs": [
        {
          "internalType": "string",
          "name": "",
          "type": "string"
        }
      ],
      "stateMutability": "view",
      "type": "function"
    },
    {
      "inputs": [
        {
          "internalType": "string",
          "name": "",
          "type": "string"
        },
        {
          "internalType": "string",
          "name": "",
          "type": "string"
        }
      ],
      "name": "incentiveHold",
      "outputs": [
        {
          "internalType": "uint256",
          "name": "",
          "type": "uint256"
        }
      ],
      "stateMutability": "view",
      "type": "function"
    },
    {
      "inputs": [
        {
          "internalType": "string",
          "name": "",
          "type": "string"
        },
        {
          "internalType": "string",
          "name": "",
          "type": "string"
        }
      ],
      "name": "incentivePaid",
      "outputs": [
        {
          "internalType": "uint256",
          "name": "",
          "type": "uint256"
        }
      ],
      "stateMutability": "view",
      "type": "function"
    },
    {
      "inputs": [],
      "name": "initialize",
      "outputs": [],
      "stateMutability": "nonpayable",
      "type": "function"
    },
    {
      "inputs": [
        {
          "internalType": "string",
          "name": "_programCode",
          "type": "string"
        },
        {
          "internalType": "string",
          "name": "_uid",
          "type": "string"
        },
        {
          "internalType": "string",
          "name": "_referrerCode",
          "type": "string"
        }
      ],
      "name": "joinProgram",
      "outputs": [],
      "stateMutability": "nonpayable",
      "type": "function"
    },
    {
      "inputs": [],
      "name": "owner",
      "outputs": [
        {
          "internalType": "address",
          "name": "",
          "type": "address"
        }
      ],
      "stateMutability": "view",
      "type": "function"
    },
    {
      "inputs": [
        {
          "internalType": "string",
          "name": "",
          "type": "string"
        }
      ],
      "name": "programs",
      "outputs": [
        {
          "internalType": "string",
          "name": "code",
          "type": "string"
        },
        {
          "internalType": "address",
          "name": "tokenAddress",
          "type": "address"
        },
        {
          "internalType": "uint256",
          "name": "incentiveL0",
          "type": "uint256"
        },
        {
          "internalType": "uint256",
          "name": "incentiveL1",
          "type": "uint256"
        },
        {
          "internalType": "uint256",
          "name": "incentiveL2",
          "type": "uint256"
        },
        {
          "internalType": "bool",
          "name": "paused",
          "type": "bool"
        },
        {
          "internalType": "uint256",
          "name": "tokenAllocation",
          "type": "uint256"
        },
        {
          "internalType": "uint256",
          "name": "tokenIncentive",
          "type": "uint256"
        },
        {
          "internalType": "uint256",
          "name": "incentiveHold",
          "type": "uint256"
        },
        {
          "internalType": "uint256",
          "name": "startTime",
          "type": "uint256"
        },
        {
          "internalType": "uint256",
          "name": "endTime",
          "type": "uint256"
        }
      ],
      "stateMutability": "view",
      "type": "function"
    },
    {
      "inputs": [
        {
          "internalType": "string",
          "name": "",
          "type": "string"
        },
        {
          "internalType": "address",
          "name": "",
          "type": "address"
        }
      ],
      "name": "rUserFromReferer",
      "outputs": [
        {
          "internalType": "address",
          "name": "",
          "type": "address"
        }
      ],
      "stateMutability": "view",
      "type": "function"
    },
    {
      "inputs": [
        {
          "internalType": "string",
          "name": "",
          "type": "string"
        },
        {
          "internalType": "uint256",
          "name": "",
          "type": "uint256"
        }
      ],
      "name": "refereesProgram",
      "outputs": [
        {
          "internalType": "string",
          "name": "",
          "type": "string"
        }
      ],
      "stateMutability": "view",
      "type": "function"
    },
    {
      "inputs": [
        {
          "internalType": "string",
          "name": "_programCode",
          "type": "string"
        },
        {
          "internalType": "string",
          "name": "_uid",
          "type": "string"
        }
      ],
      "name": "removeJoinProgram",
      "outputs": [],
      "stateMutability": "nonpayable",
      "type": "function"
    },
    {
      "inputs": [],
      "name": "renounceOwnership",
      "outputs": [],
      "stateMutability": "nonpayable",
      "type": "function"
    },
    {
      "inputs": [
        {
          "internalType": "address",
          "name": "_adminAddress",
          "type": "address"
        },
        {
          "internalType": "bool",
          "name": "_allow",
          "type": "bool"
        }
      ],
      "name": "setAdmin",
      "outputs": [],
      "stateMutability": "nonpayable",
      "type": "function"
    },
    {
      "inputs": [
        {
          "internalType": "string",
          "name": "_programCode",
          "type": "string"
        },
        {
          "internalType": "bool",
          "name": "_pause",
          "type": "bool"
        }
      ],
      "name": "setPause",
      "outputs": [],
      "stateMutability": "nonpayable",
      "type": "function"
    },
    {
      "inputs": [],
      "name": "token",
      "outputs": [
        {
          "internalType": "contract IERC20Upgradeable",
          "name": "",
          "type": "address"
        }
      ],
      "stateMutability": "view",
      "type": "function"
    },
    {
      "inputs": [
        {
          "internalType": "address",
          "name": "newOwner",
          "type": "address"
        }
      ],
      "name": "transferOwnership",
      "outputs": [],
      "stateMutability": "nonpayable",
      "type": "function"
    },
    {
      "inputs": [
        {
          "internalType": "string",
          "name": "",
          "type": "string"
        },
        {
          "internalType": "string",
          "name": "",
          "type": "string"
        }
      ],
      "name": "uidJoined",
      "outputs": [
        {
          "internalType": "address",
          "name": "",
          "type": "address"
        }
      ],
      "stateMutability": "view",
      "type": "function"
    },
    {
      "inputs": [
        {
          "internalType": "string",
          "name": "_programCode",
          "type": "string"
        },
        {
          "internalType": "uint256",
          "name": "_amount1",
          "type": "uint256"
        },
        {
          "internalType": "uint256",
          "name": "_amount2",
          "type": "uint256"
        },
        {
          "internalType": "uint256",
          "name": "_amount3",
          "type": "uint256"
        },
        {
          "internalType": "uint256",
          "name": "_tokenAllocation",
          "type": "uint256"
        },
        {
          "internalType": "uint256",
          "name": "_startTime",
          "type": "uint256"
        },
        {
          "internalType": "uint256",
          "name": "_endTime",
          "type": "uint256"
        }
      ],
      "name": "updateProgram",
      "outputs": [],
      "stateMutability": "nonpayable",
      "type": "function"
    },
    {
      "inputs": [
        {
          "internalType": "address",
          "name": "newImplementation",
          "type": "address"
        }
      ],
      "name": "upgradeTo",
      "outputs": [],
      "stateMutability": "nonpayable",
      "type": "function"
    },
    {
      "inputs": [
        {
          "internalType": "address",
          "name": "newImplementation",
          "type": "address"
        },
        {
          "internalType": "bytes",
          "name": "data",
          "type": "bytes"
        }
      ],
      "name": "upgradeToAndCall",
      "outputs": [],
      "stateMutability": "payable",
      "type": "function"
    },
    {
      "inputs": [
        {
          "internalType": "string",
          "name": "",
          "type": "string"
        }
      ],
      "name": "userJoined",
      "outputs": [
        {
          "internalType": "address",
          "name": "",
          "type": "address"
        }
      ],
      "stateMutability": "view",
      "type": "function"
    },
    {
      "inputs": [
        {
          "internalType": "string",
          "name": "",
          "type": "string"
        },
        {
          "internalType": "string",
          "name": "",
          "type": "string"
        },
        {
          "internalType": "uint256",
          "name": "",
          "type": "uint256"
        }
      ],
      "name": "userReferees",
      "outputs": [
        {
          "internalType": "string",
          "name": "",
          "type": "string"
        }
      ],
      "stateMutability": "view",
      "type": "function"
    },
    {
      "inputs": [],
      "name": "version",
      "outputs": [
        {
          "internalType": "string",
          "name": "",
          "type": "string"
        }
      ],
      "stateMutability": "pure",
      "type": "function"
    }
  ],
  "bytecode": "0x60a06040523073ffffffffffffffffffffffffffffffffffffffff1660809073ffffffffffffffffffffffffffffffffffffffff1660601b8152503480156200004757600080fd5b50600060019054906101000a900460ff16806200006f575060008054906101000a900460ff16155b620000b1576040517f08c379a0000000000000000000000000000000000000000000000000000000008152600401620000a89062000152565b60405180910390fd5b60008060019054906101000a900460ff16159050801562000102576001600060016101000a81548160ff02191690831515021790555060016000806101000a81548160ff0219169083151502179055505b8015620001245760008060016101000a81548160ff0219169083151502179055505b50620001d4565b60006200013a602e8362000174565b9150620001478262000185565b604082019050919050565b600060208201905081810360008301526200016d816200012b565b9050919050565b600082825260208201905092915050565b7f496e697469616c697a61626c653a20636f6e747261637420697320616c72656160008201527f647920696e697469616c697a6564000000000000000000000000000000000000602082015250565b60805160601c615f3d6200020860003960008181610b6c01528181610bfb01528181610ee10152610f700152615f3d6000f3fe6080604052600436106101ee5760003560e01c80638129fc1c1161010d578063b690520a116100a0578063d3f0b7021161006f578063d3f0b70214610764578063df7662b8146107a1578063f161862d146107ca578063f2fde38b14610807578063fc0c546a14610830576101ee565b8063b690520a14610698578063c2e44d7d146106d5578063ca0f059a14610712578063cb25b67d1461073b576101ee565b8063a9fb69fa116100dc578063a9fb69fa1461059a578063b055b271146105d7578063b4c4d58a14610614578063b5dd4a3214610651576101ee565b80638129fc1c146104f25780638da5cb5b14610509578063922f917814610534578063a4c3b09114610571576101ee565b80636326a0a01161018557806374b47a1b1161015457806374b47a1b1461042657806375f274a2146104635780637b4e68d31461048c578063800bb5d6146104c9576101ee565b80636326a0a01461036c578063715018a6146103a95780637185ef3c146103c057806373742514146103e9576101ee565b806346782354116101c157806346782354146102bf5780634b0bddd2146102fc5780634f1ef2861461032557806354fd4d5014610341576101ee565b80630b3d3f46146101f357806319e9e88f1461021c5780633659cfe614610259578063429b62e514610282575b600080fd5b3480156101ff57600080fd5b5061021a60048036038101906102159190614830565b61085b565b005b34801561022857600080fd5b50610243600480360381019061023e91906148d8565b610b19565b60405161025091906155f5565b60405180910390f35b34801561026557600080fd5b50610280600480360381019061027b91906146d1565b610b6a565b005b34801561028e57600080fd5b506102a960048036038101906102a491906146d1565b610d19565b6040516102b6919061520b565b60405180910390f35b3480156102cb57600080fd5b506102e660048036038101906102e19190614a5a565b610d39565b6040516102f39190615241565b60405180910390f35b34801561030857600080fd5b50610323600480360381019061031e91906146fa565b610e08565b005b61033f600480360381019061033a9190614736565b610edf565b005b34801561034d57600080fd5b5061035661101c565b6040516103639190615241565b60405180910390f35b34801561037857600080fd5b50610393600480360381019061038e91906146d1565b611059565b6040516103a09190615241565b60405180910390f35b3480156103b557600080fd5b506103be6110f9565b005b3480156103cc57600080fd5b506103e760048036038101906103e291906148d8565b611181565b005b3480156103f557600080fd5b50610410600480360381019061040b91906148d8565b611309565b60405161041d91906151a5565b60405180910390f35b34801561043257600080fd5b5061044d600480360381019061044891906147ef565b611377565b60405161045a91906151e9565b60405180910390f35b34801561046f57600080fd5b5061048a600480360381019061048591906148d8565b61146e565b005b34801561049857600080fd5b506104b360048036038101906104ae91906149db565b611649565b6040516104c09190615241565b60405180910390f35b3480156104d557600080fd5b506104f060048036038101906104eb9190614aae565b61173b565b005b3480156104fe57600080fd5b506105076118bb565b005b34801561051557600080fd5b5061051e6119fb565b60405161052b91906151a5565b60405180910390f35b34801561054057600080fd5b5061055b600480360381019061055691906147ef565b611a25565b60405161056891906151a5565b60405180910390f35b34801561057d57600080fd5b506105986004803603810190610593919061478a565b611a6e565b005b3480156105a657600080fd5b506105c160048036038101906105bc91906147ef565b611c70565b6040516105ce91906155f5565b60405180910390f35b3480156105e357600080fd5b506105fe60048036038101906105f99190614830565b611c9b565b60405161060b91906151a5565b60405180910390f35b34801561062057600080fd5b5061063b600480360381019061063691906148d8565b611cf3565b60405161064891906151e9565b60405180910390f35b34801561065d57600080fd5b50610678600480360381019061067391906147ef565b611e07565b60405161068f9b9a99989796959493929190615263565b60405180910390f35b3480156106a457600080fd5b506106bf60048036038101906106ba91906148d8565b611f2c565b6040516106cc91906155f5565b60405180910390f35b3480156106e157600080fd5b506106fc60048036038101906106f791906147ef565b611f7d565b60405161070991906151e9565b60405180910390f35b34801561071e57600080fd5b50610739600480360381019061073491906147ef565b612074565b005b34801561074757600080fd5b50610762600480360381019061075d9190614944565b612569565b005b34801561077057600080fd5b5061078b600480360381019061078691906147ef565b61366d565b60405161079891906155f5565b60405180910390f35b3480156107ad57600080fd5b506107c860048036038101906107c39190614884565b613698565b005b3480156107d657600080fd5b506107f160048036038101906107ec9190614a5a565b613768565b6040516107fe9190615241565b60405180910390f35b34801561081357600080fd5b5061082e600480360381019061082991906146d1565b613837565b005b34801561083c57600080fd5b5061084561392f565b6040516108529190615226565b60405180910390f35b6001151560c960003373ffffffffffffffffffffffffffffffffffffffff1673ffffffffffffffffffffffffffffffffffffffff16815260200190815260200160002060009054906101000a900460ff161515146108ee576040517f08c379a00000000000000000000000000000000000000000000000000000000081526004016108e590615395565b60405180910390fd5b600073ffffffffffffffffffffffffffffffffffffffff1660ca836040516109169190615177565b908152602001604051809103902060010160009054906101000a900473ffffffffffffffffffffffffffffffffffffffff1673ffffffffffffffffffffffffffffffffffffffff161461099e576040517f08c379a000000000000000000000000000000000000000000000000000000000815260040161099590615575565b60405180910390fd5b6040518061016001604052808381526020018273ffffffffffffffffffffffffffffffffffffffff16815260200166470de4df8200008152602001662386f26fc10000815260200166038d7ea4c68000815260200160001515815260200160008152602001600081526020016000815260200160008152602001600081525060ca83604051610a2d9190615177565b90815260200160405180910390206000820151816000019080519060200190610a57929190614468565b5060208201518160010160006101000a81548173ffffffffffffffffffffffffffffffffffffffff021916908373ffffffffffffffffffffffffffffffffffffffff16021790555060408201518160020155606082015181600301556080820151816004015560a08201518160050160006101000a81548160ff02191690831515021790555060c0820151816006015560e082015181600701556101008201518160080155610120820151816009015561014082015181600a01559050505050565b60d38280516020810182018051848252602083016020850120818352809550505050505081805160208101820180518482526020830160208501208183528095505050505050600091509150505481565b7f000000000000000000000000000000000000000000000000000000000000000073ffffffffffffffffffffffffffffffffffffffff163073ffffffffffffffffffffffffffffffffffffffff161415610bf9576040517f08c379a0000000000000000000000000000000000000000000000000000000008152600401610bf090615375565b60405180910390fd5b7f000000000000000000000000000000000000000000000000000000000000000073ffffffffffffffffffffffffffffffffffffffff16610c38613955565b73ffffffffffffffffffffffffffffffffffffffff1614610c8e576040517f08c379a0000000000000000000000000000000000000000000000000000000008152600401610c85906153b5565b60405180910390fd5b610c97816139ac565b610d1681600067ffffffffffffffff811115610cdc577f4e487b7100000000000000000000000000000000000000000000000000000000600052604160045260246000fd5b6040519080825280601f01601f191660200182016040528015610d0e5781602001600182028036833780820191505090505b506000613a2b565b50565b60c96020528060005260406000206000915054906101000a900460ff1681565b60d2828051602081018201805184825260208301602085012081835280955050505050508181548110610d6b57600080fd5b90600052602060002001600091509150508054610d879061584c565b80601f0160208091040260200160405190810160405280929190818152602001828054610db39061584c565b8015610e005780601f10610dd557610100808354040283529160200191610e00565b820191906000526020600020905b815481529060010190602001808311610de357829003601f168201915b505050505081565b610e10613bfc565b73ffffffffffffffffffffffffffffffffffffffff16610e2e6119fb565b73ffffffffffffffffffffffffffffffffffffffff1614610e84576040517f08c379a0000000000000000000000000000000000000000000000000000000008152600401610e7b90615495565b60405180910390fd5b8060c960008473ffffffffffffffffffffffffffffffffffffffff1673ffffffffffffffffffffffffffffffffffffffff16815260200190815260200160002060006101000a81548160ff0219169083151502179055505050565b7f000000000000000000000000000000000000000000000000000000000000000073ffffffffffffffffffffffffffffffffffffffff163073ffffffffffffffffffffffffffffffffffffffff161415610f6e576040517f08c379a0000000000000000000000000000000000000000000000000000000008152600401610f6590615375565b60405180910390fd5b7f000000000000000000000000000000000000000000000000000000000000000073ffffffffffffffffffffffffffffffffffffffff16610fad613955565b73ffffffffffffffffffffffffffffffffffffffff1614611003576040517f08c379a0000000000000000000000000000000000000000000000000000000008152600401610ffa906153b5565b60405180910390fd5b61100c826139ac565b61101882826001613a2b565b5050565b60606040518060400160405280600281526020017f7631000000000000000000000000000000000000000000000000000000000000815250905090565b60d160205280600052604060002060009150905080546110789061584c565b80601f01602080910402602001604051908101604052809291908181526020018280546110a49061584c565b80156110f15780601f106110c6576101008083540402835291602001916110f1565b820191906000526020600020905b8154815290600101906020018083116110d457829003601f168201915b505050505081565b611101613bfc565b73ffffffffffffffffffffffffffffffffffffffff1661111f6119fb565b73ffffffffffffffffffffffffffffffffffffffff1614611175576040517f08c379a000000000000000000000000000000000000000000000000000000000815260040161116c90615495565b60405180910390fd5b61117f6000613c04565b565b6001151560c960003373ffffffffffffffffffffffffffffffffffffffff1673ffffffffffffffffffffffffffffffffffffffff16815260200190815260200160002060009054906101000a900460ff16151514611214576040517f08c379a000000000000000000000000000000000000000000000000000000000815260040161120b90615395565b60405180910390fd5b600073ffffffffffffffffffffffffffffffffffffffff1660ca8360405161123c9190615177565b908152602001604051809103902060010160009054906101000a900473ffffffffffffffffffffffffffffffffffffffff1673ffffffffffffffffffffffffffffffffffffffff1614156112c5576040517f08c379a00000000000000000000000000000000000000000000000000000000081526004016112bc906153f5565b60405180910390fd5b600060d3836040516112d79190615177565b9081526020016040518091039020826040516112f39190615177565b9081526020016040518091039020819055505050565b60cb82805160208101820180518482526020830160208501208183528095505050505050818051602081018201805184825260208301602085012081835280955050505050506000915091509054906101000a900473ffffffffffffffffffffffffffffffffffffffff1681565b606060ce826040516113899190615177565b9081526020016040518091039020805480602002602001604051908101604052809291908181526020016000905b828210156114635783829060005260206000200180546113d69061584c565b80601f01602080910402602001604051908101604052809291908181526020018280546114029061584c565b801561144f5780601f106114245761010080835404028352916020019161144f565b820191906000526020600020905b81548152906001019060200180831161143257829003601f168201915b5050505050815260200190600101906113b7565b505050509050919050565b6001151560c960003373ffffffffffffffffffffffffffffffffffffffff1673ffffffffffffffffffffffffffffffffffffffff16815260200190815260200160002060009054906101000a900460ff16151514611501576040517f08c379a00000000000000000000000000000000000000000000000000000000081526004016114f890615395565b60405180910390fd5b600073ffffffffffffffffffffffffffffffffffffffff1660cb836040516115299190615177565b9081526020016040518091039020826040516115459190615177565b908152602001604051809103902060009054906101000a900473ffffffffffffffffffffffffffffffffffffffff1673ffffffffffffffffffffffffffffffffffffffff1614156115cb576040517f08c379a00000000000000000000000000000000000000000000000000000000081526004016115c290615455565b60405180910390fd5b600060cb836040516115dd9190615177565b9081526020016040518091039020826040516115f99190615177565b908152602001604051809103902060006101000a81548173ffffffffffffffffffffffffffffffffffffffff021916908373ffffffffffffffffffffffffffffffffffffffff1602179055505050565b60cd8380516020810182018051848252602083016020850120818352809550505050505082805160208101820180518482526020830160208501208183528095505050505050818154811061169d57600080fd5b90600052602060002001600092509250505080546116ba9061584c565b80601f01602080910402602001604051908101604052809291908181526020018280546116e69061584c565b80156117335780601f1061170857610100808354040283529160200191611733565b820191906000526020600020905b81548152906001019060200180831161171657829003601f168201915b505050505081565b6001151560c960003373ffffffffffffffffffffffffffffffffffffffff1673ffffffffffffffffffffffffffffffffffffffff16815260200190815260200160002060009054906101000a900460ff161515146117ce576040517f08c379a00000000000000000000000000000000000000000000000000000000081526004016117c590615395565b60405180910390fd5b8560ca886040516117df9190615177565b9081526020016040518091039020600201819055508460ca886040516118059190615177565b9081526020016040518091039020600301819055508360ca8860405161182b9190615177565b9081526020016040518091039020600401819055508260ca886040516118519190615177565b9081526020016040518091039020600601819055508160ca886040516118779190615177565b9081526020016040518091039020600901819055508060ca8860405161189d9190615177565b9081526020016040518091039020600a018190555050505050505050565b600060019054906101000a900460ff16806118e1575060008054906101000a900460ff16155b611920576040517f08c379a000000000000000000000000000000000000000000000000000000000815260040161191790615435565b60405180910390fd5b60008060019054906101000a900460ff161590508015611970576001600060016101000a81548160ff02191690831515021790555060016000806101000a81548160ff0219169083151502179055505b611978613cca565b600160c960006119866119fb565b73ffffffffffffffffffffffffffffffffffffffff1673ffffffffffffffffffffffffffffffffffffffff16815260200190815260200160002060006101000a81548160ff02191690831515021790555080156119f85760008060016101000a81548160ff0219169083151502179055505b50565b6000609760009054906101000a900473ffffffffffffffffffffffffffffffffffffffff16905090565b60d0818051602081018201805184825260208301602085012081835280955050505050506000915054906101000a900473ffffffffffffffffffffffffffffffffffffffff1681565b611a76613bfc565b73ffffffffffffffffffffffffffffffffffffffff16611a946119fb565b73ffffffffffffffffffffffffffffffffffffffff1614611aea576040517f08c379a0000000000000000000000000000000000000000000000000000000008152600401611ae190615495565b60405180910390fd5b8160d460006101000a81548173ffffffffffffffffffffffffffffffffffffffff021916908373ffffffffffffffffffffffffffffffffffffffff1602179055508060d460009054906101000a900473ffffffffffffffffffffffffffffffffffffffff1673ffffffffffffffffffffffffffffffffffffffff166370a08231306040518263ffffffff1660e01b8152600401611b8791906151a5565b60206040518083038186803b158015611b9f57600080fd5b505afa158015611bb3573d6000803e3d6000fd5b505050506040513d601f19601f82011682018060405250810190611bd79190614b64565b1015611c18576040517f08c379a0000000000000000000000000000000000000000000000000000000008152600401611c0f906155b5565b60405180910390fd5b611c6c611c236119fb565b8260d460009054906101000a900473ffffffffffffffffffffffffffffffffffffffff1673ffffffffffffffffffffffffffffffffffffffff16613db39092919063ffffffff16565b5050565b600060ce82604051611c829190615177565b9081526020016040518091039020805490509050919050565b60cc828051602081018201805184825260208301602085012081835280955050505050506020528060005260406000206000915091509054906101000a900473ffffffffffffffffffffffffffffffffffffffff1681565b606060cd83604051611d059190615177565b908152602001604051809103902082604051611d219190615177565b9081526020016040518091039020805480602002602001604051908101604052809291908181526020016000905b82821015611dfb578382906000526020600020018054611d6e9061584c565b80601f0160208091040260200160405190810160405280929190818152602001828054611d9a9061584c565b8015611de75780601f10611dbc57610100808354040283529160200191611de7565b820191906000526020600020905b815481529060010190602001808311611dca57829003601f168201915b505050505081526020019060010190611d4f565b50505050905092915050565b60ca81805160208101820180518482526020830160208501208183528095505050505050600091509050806000018054611e409061584c565b80601f0160208091040260200160405190810160405280929190818152602001828054611e6c9061584c565b8015611eb95780601f10611e8e57610100808354040283529160200191611eb9565b820191906000526020600020905b815481529060010190602001808311611e9c57829003601f168201915b5050505050908060010160009054906101000a900473ffffffffffffffffffffffffffffffffffffffff16908060020154908060030154908060040154908060050160009054906101000a900460ff169080600601549080600701549080600801549080600901549080600a015490508b565b60cf8280516020810182018051848252602083016020850120818352809550505050505081805160208101820180518482526020830160208501208183528095505050505050600091509150505481565b606060d282604051611f8f9190615177565b9081526020016040518091039020805480602002602001604051908101604052809291908181526020016000905b82821015612069578382906000526020600020018054611fdc9061584c565b80601f01602080910402602001604051908101604052809291908181526020018280546120089061584c565b80156120555780601f1061202a57610100808354040283529160200191612055565b820191906000526020600020905b81548152906001019060200180831161203857829003601f168201915b505050505081526020019060010190611fbd565b505050509050919050565b6001151560c960003373ffffffffffffffffffffffffffffffffffffffff1673ffffffffffffffffffffffffffffffffffffffff16815260200190815260200160002060009054906101000a900460ff16151514612107576040517f08c379a00000000000000000000000000000000000000000000000000000000081526004016120fe90615395565b60405180910390fd5b600073ffffffffffffffffffffffffffffffffffffffff1660ca8260405161212f9190615177565b908152602001604051809103902060010160009054906101000a900473ffffffffffffffffffffffffffffffffffffffff1673ffffffffffffffffffffffffffffffffffffffff1614156121b8576040517f08c379a00000000000000000000000000000000000000000000000000000000081526004016121af906153f5565b60405180910390fd5b600060ca826040516121ca9190615177565b908152602001604051809103902060010160009054906101000a900473ffffffffffffffffffffffffffffffffffffffff1690508060d460006101000a81548173ffffffffffffffffffffffffffffffffffffffff021916908373ffffffffffffffffffffffffffffffffffffffff16021790555060005b60d2836040516122529190615177565b90815260200160405180910390208054905081101561253d57600060d28460405161227d9190615177565b908152602001604051809103902082815481106122c3577f4e487b7100000000000000000000000000000000000000000000000000000000600052603260045260246000fd5b9060005260206000200180546122d89061584c565b80601f01602080910402602001604051908101604052809291908181526020018280546123049061584c565b80156123515780601f1061232657610100808354040283529160200191612351565b820191906000526020600020905b81548152906001019060200180831161233457829003601f168201915b50505050509050600060d08260405161236a9190615177565b908152602001604051809103902060009054906101000a900473ffffffffffffffffffffffffffffffffffffffff169050600060d3866040516123ad9190615177565b9081526020016040518091039020836040516123c99190615177565b908152602001604051809103902054905060008111156125275760d460009054906101000a900473ffffffffffffffffffffffffffffffffffffffff1673ffffffffffffffffffffffffffffffffffffffff1663a9059cbb83836040518363ffffffff1660e01b81526004016124409291906151c0565b602060405180830381600087803b15801561245a57600080fd5b505af115801561246e573d6000803e3d6000fd5b505050506040513d601f19601f8201168201806040525081019061249291906147c6565b508060ca876040516124a49190615177565b908152602001604051809103902060070160008282546124c49190615748565b925050819055508060cf876040516124dc9190615177565b9081526020016040518091039020846040516124f89190615177565b908152602001604051809103902060008282546125159190615748565b925050819055506125268684611181565b5b5050508080612535906158af565b915050612242565b50600060ca836040516125509190615177565b9081526020016040518091039020600801819055505050565b6000151560ca8460405161257d9190615177565b908152602001604051809103902060050160009054906101000a900460ff161515146125de576040517f08c379a00000000000000000000000000000000000000000000000000000000081526004016125d590615555565b60405180910390fd5b600073ffffffffffffffffffffffffffffffffffffffff1660ca846040516126069190615177565b908152602001604051809103902060010160009054906101000a900473ffffffffffffffffffffffffffffffffffffffff1673ffffffffffffffffffffffffffffffffffffffff16141561268f576040517f08c379a0000000000000000000000000000000000000000000000000000000008152600401612686906153f5565b60405180910390fd5b4260ca846040516126a09190615177565b908152602001604051809103902060090154111580156126e157504260ca846040516126cc9190615177565b9081526020016040518091039020600a015410155b612720576040517f08c379a000000000000000000000000000000000000000000000000000000000815260040161271790615315565b60405180910390fd5b60ca836040516127309190615177565b90815260200160405180910390206006015460ca846040516127529190615177565b90815260200160405180910390206002015460ca856040516127749190615177565b90815260200160405180910390206008015460ca866040516127969190615177565b9081526020016040518091039020600701546127b29190615748565b6127bc9190615748565b11156127fd576040517f08c379a00000000000000000000000000000000000000000000000000000000081526004016127f4906154b5565b60405180910390fd5b600081905060008151111561290c5781805190602001208380519060200120141561285d576040517f08c379a000000000000000000000000000000000000000000000000000000000815260040161285490615515565b60405180910390fd5b600073ffffffffffffffffffffffffffffffffffffffff1660d0836040516128859190615177565b908152602001604051809103902060009054906101000a900473ffffffffffffffffffffffffffffffffffffffff1673ffffffffffffffffffffffffffffffffffffffff16141561290b576040517f08c379a000000000000000000000000000000000000000000000000000000000815260040161290290615415565b60405180910390fd5b5b600073ffffffffffffffffffffffffffffffffffffffff1660cb856040516129349190615177565b9081526020016040518091039020846040516129509190615177565b908152602001604051809103902060009054906101000a900473ffffffffffffffffffffffffffffffffffffffff1673ffffffffffffffffffffffffffffffffffffffff16146129d5576040517f08c379a00000000000000000000000000000000000000000000000000000000081526004016129cc906155d5565b60405180910390fd5b600073ffffffffffffffffffffffffffffffffffffffff1660cc856040516129fd9190615177565b908152602001604051809103902060003373ffffffffffffffffffffffffffffffffffffffff1673ffffffffffffffffffffffffffffffffffffffff16815260200190815260200160002060009054906101000a900473ffffffffffffffffffffffffffffffffffffffff1673ffffffffffffffffffffffffffffffffffffffff1614612b215760d160003373ffffffffffffffffffffffffffffffffffffffff1673ffffffffffffffffffffffffffffffffffffffff168152602001908152602001600020604051612ad09190615160565b6040518091039020838051906020012014612b20576040517f08c379a0000000000000000000000000000000000000000000000000000000008152600401612b1790615595565b60405180910390fd5b5b60008151111561347157600060d083604051612b3d9190615177565b908152602001604051809103902060009054906101000a900473ffffffffffffffffffffffffffffffffffffffff169050600060019050600073ffffffffffffffffffffffffffffffffffffffff1660cc87604051612b9c9190615177565b908152602001604051809103902060003373ffffffffffffffffffffffffffffffffffffffff1673ffffffffffffffffffffffffffffffffffffffff16815260200190815260200160002060009054906101000a900473ffffffffffffffffffffffffffffffffffffffff1673ffffffffffffffffffffffffffffffffffffffff1614612c2857600090505b801561346e57600060ca87604051612c409190615177565b908152602001604051809103902060010160009054906101000a900473ffffffffffffffffffffffffffffffffffffffff1690508060d460006101000a81548173ffffffffffffffffffffffffffffffffffffffff021916908373ffffffffffffffffffffffffffffffffffffffff1602179055508260cc88604051612cc69190615177565b908152602001604051809103902060003373ffffffffffffffffffffffffffffffffffffffff1673ffffffffffffffffffffffffffffffffffffffff16815260200190815260200160002060006101000a81548173ffffffffffffffffffffffffffffffffffffffff021916908373ffffffffffffffffffffffffffffffffffffffff160217905550600060d388604051612d619190615177565b908152602001604051809103902086604051612d7d9190615177565b9081526020016040518091039020541415612deb5760d287604051612da29190615177565b908152602001604051809103902085908060018154018082558091505060019003906000526020600020016000909190919091509080519060200190612de9929190614468565b505b60ca87604051612dfb9190615177565b90815260200160405180910390206002015460d388604051612e1d9190615177565b908152602001604051809103902086604051612e399190615177565b90815260200160405180910390206000828254612e569190615748565b9250508190555060ca87604051612e6d9190615177565b90815260200160405180910390206002015460ca88604051612e8f9190615177565b90815260200160405180910390206008016000828254612eaf9190615748565b92505081905550600060cc88604051612ec89190615177565b908152602001604051809103902060008573ffffffffffffffffffffffffffffffffffffffff1673ffffffffffffffffffffffffffffffffffffffff16815260200190815260200160002060009054906101000a900473ffffffffffffffffffffffffffffffffffffffff169050600073ffffffffffffffffffffffffffffffffffffffff168173ffffffffffffffffffffffffffffffffffffffff161461346b57600060d389604051612f7c9190615177565b908152602001604051809103902060d160008473ffffffffffffffffffffffffffffffffffffffff1673ffffffffffffffffffffffffffffffffffffffff168152602001908152602001600020604051612fd6919061518e565b90815260200160405180910390205414156130865760d288604051612ffb9190615177565b908152602001604051809103902060d160008373ffffffffffffffffffffffffffffffffffffffff1673ffffffffffffffffffffffffffffffffffffffff168152602001908152602001600020908060018154018082558091505060019003906000526020600020016000909190919091509080546130799061584c565b6130849291906144ee565b505b60ca886040516130969190615177565b90815260200160405180910390206003015460d3896040516130b89190615177565b908152602001604051809103902060d160008473ffffffffffffffffffffffffffffffffffffffff1673ffffffffffffffffffffffffffffffffffffffff168152602001908152602001600020604051613112919061518e565b9081526020016040518091039020600082825461312f9190615748565b9250508190555060ca886040516131469190615177565b90815260200160405180910390206003015460ca896040516131689190615177565b908152602001604051809103902060080160008282546131889190615748565b92505081905550600060cc896040516131a19190615177565b908152602001604051809103902060008373ffffffffffffffffffffffffffffffffffffffff1673ffffffffffffffffffffffffffffffffffffffff16815260200190815260200160002060009054906101000a900473ffffffffffffffffffffffffffffffffffffffff169050600073ffffffffffffffffffffffffffffffffffffffff168173ffffffffffffffffffffffffffffffffffffffff161461346957600060d38a6040516132559190615177565b908152602001604051809103902060d160008473ffffffffffffffffffffffffffffffffffffffff1673ffffffffffffffffffffffffffffffffffffffff1681526020019081526020016000206040516132af919061518e565b908152602001604051809103902054141561335f5760d2896040516132d49190615177565b908152602001604051809103902060d160008373ffffffffffffffffffffffffffffffffffffffff1673ffffffffffffffffffffffffffffffffffffffff168152602001908152602001600020908060018154018082558091505060019003906000526020600020016000909190919091509080546133529061584c565b61335d9291906144ee565b505b60ca8960405161336f9190615177565b90815260200160405180910390206004015460d38a6040516133919190615177565b908152602001604051809103902060d160008473ffffffffffffffffffffffffffffffffffffffff1673ffffffffffffffffffffffffffffffffffffffff1681526020019081526020016000206040516133eb919061518e565b908152602001604051809103902060008282546134089190615748565b9250508190555060ca8960405161341f9190615177565b90815260200160405180910390206004015460ca8a6040516134419190615177565b908152602001604051809103902060080160008282546134619190615748565b925050819055505b505b50505b50505b3360cb856040516134829190615177565b90815260200160405180910390208460405161349e9190615177565b908152602001604051809103902060006101000a81548173ffffffffffffffffffffffffffffffffffffffff021916908373ffffffffffffffffffffffffffffffffffffffff1602179055503360d0846040516134fb9190615177565b908152602001604051809103902060006101000a81548173ffffffffffffffffffffffffffffffffffffffff021916908373ffffffffffffffffffffffffffffffffffffffff1602179055508260d160003373ffffffffffffffffffffffffffffffffffffffff1673ffffffffffffffffffffffffffffffffffffffff168152602001908152602001600020908051906020019061359a929190614468565b5060ce846040516135ab9190615177565b9081526020016040518091039020839080600181540180825580915050600190039060005260206000200160009091909190915090805190602001906135f2929190614468565b5060cd846040516136039190615177565b90815260200160405180910390208260405161361f9190615177565b908152602001604051809103902083908060018154018082558091505060019003906000526020600020016000909190919091509080519060200190613666929190614468565b5050505050565b600060d28260405161367f9190615177565b9081526020016040518091039020805490509050919050565b6001151560c960003373ffffffffffffffffffffffffffffffffffffffff1673ffffffffffffffffffffffffffffffffffffffff16815260200190815260200160002060009054906101000a900460ff1615151461372b576040517f08c379a000000000000000000000000000000000000000000000000000000000815260040161372290615395565b60405180910390fd5b8060ca8360405161373c9190615177565b908152602001604051809103902060050160006101000a81548160ff0219169083151502179055505050565b60ce82805160208101820180518482526020830160208501208183528095505050505050818154811061379a57600080fd5b906000526020600020016000915091505080546137b69061584c565b80601f01602080910402602001604051908101604052809291908181526020018280546137e29061584c565b801561382f5780601f106138045761010080835404028352916020019161382f565b820191906000526020600020905b81548152906001019060200180831161381257829003601f168201915b505050505081565b61383f613bfc565b73ffffffffffffffffffffffffffffffffffffffff1661385d6119fb565b73ffffffffffffffffffffffffffffffffffffffff16146138b3576040517f08c379a00000000000000000000000000000000000000000000000000000000081526004016138aa90615495565b60405180910390fd5b600073ffffffffffffffffffffffffffffffffffffffff168173ffffffffffffffffffffffffffffffffffffffff161415613923576040517f08c379a000000000000000000000000000000000000000000000000000000000815260040161391a90615355565b60405180910390fd5b61392c81613c04565b50565b60d460009054906101000a900473ffffffffffffffffffffffffffffffffffffffff1681565b60006139837f360894a13ba1a3210667c828492db98dca3e2076cc3735a920a3ca505d382bbc60001b613e39565b60000160009054906101000a900473ffffffffffffffffffffffffffffffffffffffff16905090565b6139b4613bfc565b73ffffffffffffffffffffffffffffffffffffffff166139d26119fb565b73ffffffffffffffffffffffffffffffffffffffff1614613a28576040517f08c379a0000000000000000000000000000000000000000000000000000000008152600401613a1f90615495565b60405180910390fd5b50565b6000613a35613955565b9050613a4084613e43565b600083511180613a4d5750815b15613a5e57613a5c8484613efc565b505b6000613a8c7f4910fdfa16fed3260ed0e7147f7cc6da11a60208b5b9406d12a635614ffd914360001b613fe0565b90508060000160009054906101000a900460ff16613bf55760018160000160006101000a81548160ff021916908315150217905550613b588583604051602401613ad691906151a5565b6040516020818303038152906040527f3659cfe6000000000000000000000000000000000000000000000000000000007bffffffffffffffffffffffffffffffffffffffffffffffffffffffff19166020820180517bffffffffffffffffffffffffffffffffffffffffffffffffffffffff8381831617835250505050613efc565b5060008160000160006101000a81548160ff021916908315150217905550613b7e613955565b73ffffffffffffffffffffffffffffffffffffffff168273ffffffffffffffffffffffffffffffffffffffff1614613beb576040517f08c379a0000000000000000000000000000000000000000000000000000000008152600401613be290615335565b60405180910390fd5b613bf485613fea565b5b5050505050565b600033905090565b6000609760009054906101000a900473ffffffffffffffffffffffffffffffffffffffff16905081609760006101000a81548173ffffffffffffffffffffffffffffffffffffffff021916908373ffffffffffffffffffffffffffffffffffffffff1602179055508173ffffffffffffffffffffffffffffffffffffffff168173ffffffffffffffffffffffffffffffffffffffff167f8be0079c531659141344cd1fd0a4f28419497f9722a3daafe3b4186f6b6457e060405160405180910390a35050565b600060019054906101000a900460ff1680613cf0575060008054906101000a900460ff16155b613d2f576040517f08c379a0000000000000000000000000000000000000000000000000000000008152600401613d2690615435565b60405180910390fd5b60008060019054906101000a900460ff161590508015613d7f576001600060016101000a81548160ff02191690831515021790555060016000806101000a81548160ff0219169083151502179055505b613d87614039565b613d8f614112565b8015613db05760008060016101000a81548160ff0219169083151502179055505b50565b613e348363a9059cbb60e01b8484604051602401613dd29291906151c0565b604051602081830303815290604052907bffffffffffffffffffffffffffffffffffffffffffffffffffffffff19166020820180517bffffffffffffffffffffffffffffffffffffffffffffffffffffffff83818316178352505050506141fb565b505050565b6000819050919050565b613e4c816142c2565b613e8b576040517f08c379a0000000000000000000000000000000000000000000000000000000008152600401613e8290615475565b60405180910390fd5b80613eb87f360894a13ba1a3210667c828492db98dca3e2076cc3735a920a3ca505d382bbc60001b613e39565b60000160006101000a81548173ffffffffffffffffffffffffffffffffffffffff021916908373ffffffffffffffffffffffffffffffffffffffff16021790555050565b6060613f07836142c2565b613f46576040517f08c379a0000000000000000000000000000000000000000000000000000000008152600401613f3d906154d5565b60405180910390fd5b6000808473ffffffffffffffffffffffffffffffffffffffff1684604051613f6e9190615149565b600060405180830381855af49150503d8060008114613fa9576040519150601f19603f3d011682016040523d82523d6000602084013e613fae565b606091505b5091509150613fd68282604051806060016040528060278152602001615ee1602791396142d5565b9250505092915050565b6000819050919050565b613ff381613e43565b8073ffffffffffffffffffffffffffffffffffffffff167fbc7cd75a20ee27fd9adebab32041f755214dbc6bffa90cc0225b39da2e5c2d3b60405160405180910390a250565b600060019054906101000a900460ff168061405f575060008054906101000a900460ff16155b61409e576040517f08c379a000000000000000000000000000000000000000000000000000000000815260040161409590615435565b60405180910390fd5b60008060019054906101000a900460ff1615905080156140ee576001600060016101000a81548160ff02191690831515021790555060016000806101000a81548160ff0219169083151502179055505b801561410f5760008060016101000a81548160ff0219169083151502179055505b50565b600060019054906101000a900460ff1680614138575060008054906101000a900460ff16155b614177576040517f08c379a000000000000000000000000000000000000000000000000000000000815260040161416e90615435565b60405180910390fd5b60008060019054906101000a900460ff1615905080156141c7576001600060016101000a81548160ff02191690831515021790555060016000806101000a81548160ff0219169083151502179055505b6141d76141d2613bfc565b613c04565b80156141f85760008060016101000a81548160ff0219169083151502179055505b50565b600061425d826040518060400160405280602081526020017f5361666545524332303a206c6f772d6c6576656c2063616c6c206661696c65648152508573ffffffffffffffffffffffffffffffffffffffff1661433c9092919063ffffffff16565b90506000815111156142bd578080602001905181019061427d91906147c6565b6142bc576040517f08c379a00000000000000000000000000000000000000000000000000000000081526004016142b390615535565b60405180910390fd5b5b505050565b600080823b905060008111915050919050565b606083156142e557829050614335565b6000835111156142f85782518084602001fd5b816040517f08c379a000000000000000000000000000000000000000000000000000000000815260040161432c9190615241565b60405180910390fd5b9392505050565b606061434b8484600085614354565b90509392505050565b606082471015614399576040517f08c379a0000000000000000000000000000000000000000000000000000000008152600401614390906153d5565b60405180910390fd5b6143a2856142c2565b6143e1576040517f08c379a00000000000000000000000000000000000000000000000000000000081526004016143d8906154f5565b60405180910390fd5b6000808673ffffffffffffffffffffffffffffffffffffffff16858760405161440a9190615149565b60006040518083038185875af1925050503d8060008114614447576040519150601f19603f3d011682016040523d82523d6000602084013e61444c565b606091505b509150915061445c8282866142d5565b92505050949350505050565b8280546144749061584c565b90600052602060002090601f01602090048101928261449657600085556144dd565b82601f106144af57805160ff19168380011785556144dd565b828001600101855582156144dd579182015b828111156144dc5782518255916020019190600101906144c1565b5b5090506144ea919061457b565b5090565b8280546144fa9061584c565b90600052602060002090601f01602090048101928261451c576000855561456a565b82601f1061452d578054855561456a565b8280016001018555821561456a57600052602060002091601f016020900482015b8281111561456957825482559160010191906001019061454e565b5b509050614577919061457b565b5090565b5b8082111561459457600081600090555060010161457c565b5090565b60006145ab6145a684615635565b615610565b9050828152602081018484840111156145c357600080fd5b6145ce84828561580a565b509392505050565b60006145e96145e484615666565b615610565b90508281526020810184848401111561460157600080fd5b61460c84828561580a565b509392505050565b60008135905061462381615e9b565b92915050565b60008135905061463881615eb2565b92915050565b60008151905061464d81615eb2565b92915050565b600082601f83011261466457600080fd5b8135614674848260208601614598565b91505092915050565b600082601f83011261468e57600080fd5b813561469e8482602086016145d6565b91505092915050565b6000813590506146b681615ec9565b92915050565b6000815190506146cb81615ec9565b92915050565b6000602082840312156146e357600080fd5b60006146f184828501614614565b91505092915050565b6000806040838503121561470d57600080fd5b600061471b85828601614614565b925050602061472c85828601614629565b9150509250929050565b6000806040838503121561474957600080fd5b600061475785828601614614565b925050602083013567ffffffffffffffff81111561477457600080fd5b61478085828601614653565b9150509250929050565b6000806040838503121561479d57600080fd5b60006147ab85828601614614565b92505060206147bc858286016146a7565b9150509250929050565b6000602082840312156147d857600080fd5b60006147e68482850161463e565b91505092915050565b60006020828403121561480157600080fd5b600082013567ffffffffffffffff81111561481b57600080fd5b6148278482850161467d565b91505092915050565b6000806040838503121561484357600080fd5b600083013567ffffffffffffffff81111561485d57600080fd5b6148698582860161467d565b925050602061487a85828601614614565b9150509250929050565b6000806040838503121561489757600080fd5b600083013567ffffffffffffffff8111156148b157600080fd5b6148bd8582860161467d565b92505060206148ce85828601614629565b9150509250929050565b600080604083850312156148eb57600080fd5b600083013567ffffffffffffffff81111561490557600080fd5b6149118582860161467d565b925050602083013567ffffffffffffffff81111561492e57600080fd5b61493a8582860161467d565b9150509250929050565b60008060006060848603121561495957600080fd5b600084013567ffffffffffffffff81111561497357600080fd5b61497f8682870161467d565b935050602084013567ffffffffffffffff81111561499c57600080fd5b6149a88682870161467d565b925050604084013567ffffffffffffffff8111156149c557600080fd5b6149d18682870161467d565b9150509250925092565b6000806000606084860312156149f057600080fd5b600084013567ffffffffffffffff811115614a0a57600080fd5b614a168682870161467d565b935050602084013567ffffffffffffffff811115614a3357600080fd5b614a3f8682870161467d565b9250506040614a50868287016146a7565b9150509250925092565b60008060408385031215614a6d57600080fd5b600083013567ffffffffffffffff811115614a8757600080fd5b614a938582860161467d565b9250506020614aa4858286016146a7565b9150509250929050565b600080600080600080600060e0888a031215614ac957600080fd5b600088013567ffffffffffffffff811115614ae357600080fd5b614aef8a828b0161467d565b9750506020614b008a828b016146a7565b9650506040614b118a828b016146a7565b9550506060614b228a828b016146a7565b9450506080614b338a828b016146a7565b93505060a0614b448a828b016146a7565b92505060c0614b558a828b016146a7565b91505092959891949750929550565b600060208284031215614b7657600080fd5b6000614b84848285016146bc565b91505092915050565b6000614b998383614cf3565b905092915050565b614baa8161579e565b82525050565b6000614bbb826156d1565b614bc581856156ff565b935083602082028501614bd785615697565b8060005b85811015614c135784840389528151614bf48582614b8d565b9450614bff836156f2565b925060208a01995050600181019050614bdb565b50829750879550505050505092915050565b614c2e816157b0565b82525050565b6000614c3f826156dc565b614c498185615710565b9350614c59818560208601615819565b80840191505092915050565b60008154614c728161584c565b614c7c8186615710565b94506001821660008114614c975760018114614ca857614cdb565b60ff19831686528186019350614cdb565b614cb1856156a7565b60005b83811015614cd357815481890152600182019150602081019050614cb4565b838801955050505b50505092915050565b614ced816157e6565b82525050565b6000614cfe826156e7565b614d08818561571b565b9350614d18818560208601615819565b614d2181615985565b840191505092915050565b6000614d37826156e7565b614d41818561572c565b9350614d51818560208601615819565b614d5a81615985565b840191505092915050565b6000614d70826156e7565b614d7a818561573d565b9350614d8a818560208601615819565b80840191505092915050565b60008154614da38161584c565b614dad818661573d565b94506001821660008114614dc85760018114614dd957614e0c565b60ff19831686528186019350614e0c565b614de2856156bc565b60005b83811015614e0457815481890152600182019150602081019050614de5565b838801955050505b50505092915050565b6000614e22601c8361572c565b9150614e2d82615996565b602082019050919050565b6000614e45602f8361572c565b9150614e50826159bf565b604082019050919050565b6000614e6860268361572c565b9150614e7382615a0e565b604082019050919050565b6000614e8b602c8361572c565b9150614e9682615a5d565b604082019050919050565b6000614eae601d8361572c565b9150614eb982615aac565b602082019050919050565b6000614ed1602c8361572c565b9150614edc82615ad5565b604082019050919050565b6000614ef460268361572c565b9150614eff82615b24565b604082019050919050565b6000614f1760118361572c565b9150614f2282615b73565b602082019050919050565b6000614f3a60138361572c565b9150614f4582615b9c565b602082019050919050565b6000614f5d602e8361572c565b9150614f6882615bc5565b604082019050919050565b6000614f8060118361572c565b9150614f8b82615c14565b602082019050919050565b6000614fa3602d8361572c565b9150614fae82615c3d565b604082019050919050565b6000614fc660208361572c565b9150614fd182615c8c565b602082019050919050565b6000614fe960208361572c565b9150614ff482615cb5565b602082019050919050565b600061500c60268361572c565b915061501782615cde565b604082019050919050565b600061502f601d8361572c565b915061503a82615d2d565b602082019050919050565b600061505260148361572c565b915061505d82615d56565b602082019050919050565b6000615075602a8361572c565b915061508082615d7f565b604082019050919050565b600061509860128361572c565b91506150a382615dce565b602082019050919050565b60006150bb60138361572c565b91506150c682615df7565b602082019050919050565b60006150de601b8361572c565b91506150e982615e20565b602082019050919050565b6000615101600e8361572c565b915061510c82615e49565b602082019050919050565b6000615124600b8361572c565b915061512f82615e72565b602082019050919050565b615143816157dc565b82525050565b60006151558284614c34565b915081905092915050565b600061516c8284614c65565b915081905092915050565b60006151838284614d65565b915081905092915050565b600061519a8284614d96565b915081905092915050565b60006020820190506151ba6000830184614ba1565b92915050565b60006040820190506151d56000830185614ba1565b6151e2602083018461513a565b9392505050565b600060208201905081810360008301526152038184614bb0565b905092915050565b60006020820190506152206000830184614c25565b92915050565b600060208201905061523b6000830184614ce4565b92915050565b6000602082019050818103600083015261525b8184614d2c565b905092915050565b600061016082019050818103600083015261527e818e614d2c565b905061528d602083018d614ba1565b61529a604083018c61513a565b6152a7606083018b61513a565b6152b4608083018a61513a565b6152c160a0830189614c25565b6152ce60c083018861513a565b6152db60e083018761513a565b6152e961010083018661513a565b6152f761012083018561513a565b61530561014083018461513a565b9c9b505050505050505050505050565b6000602082019050818103600083015261532e81614e15565b9050919050565b6000602082019050818103600083015261534e81614e38565b9050919050565b6000602082019050818103600083015261536e81614e5b565b9050919050565b6000602082019050818103600083015261538e81614e7e565b9050919050565b600060208201905081810360008301526153ae81614ea1565b9050919050565b600060208201905081810360008301526153ce81614ec4565b9050919050565b600060208201905081810360008301526153ee81614ee7565b9050919050565b6000602082019050818103600083015261540e81614f0a565b9050919050565b6000602082019050818103600083015261542e81614f2d565b9050919050565b6000602082019050818103600083015261544e81614f50565b9050919050565b6000602082019050818103600083015261546e81614f73565b9050919050565b6000602082019050818103600083015261548e81614f96565b9050919050565b600060208201905081810360008301526154ae81614fb9565b9050919050565b600060208201905081810360008301526154ce81614fdc565b9050919050565b600060208201905081810360008301526154ee81614fff565b9050919050565b6000602082019050818103600083015261550e81615022565b9050919050565b6000602082019050818103600083015261552e81615045565b9050919050565b6000602082019050818103600083015261554e81615068565b9050919050565b6000602082019050818103600083015261556e8161508b565b9050919050565b6000602082019050818103600083015261558e816150ae565b9050919050565b600060208201905081810360008301526155ae816150d1565b9050919050565b600060208201905081810360008301526155ce816150f4565b9050919050565b600060208201905081810360008301526155ee81615117565b9050919050565b600060208201905061560a600083018461513a565b92915050565b600061561a61562b565b9050615626828261587e565b919050565b6000604051905090565b600067ffffffffffffffff8211156156505761564f615956565b5b61565982615985565b9050602081019050919050565b600067ffffffffffffffff82111561568157615680615956565b5b61568a82615985565b9050602081019050919050565b6000819050602082019050919050565b60008190508160005260206000209050919050565b60008190508160005260206000209050919050565b600081519050919050565b600081519050919050565b600081519050919050565b6000602082019050919050565b600082825260208201905092915050565b600081905092915050565b600082825260208201905092915050565b600082825260208201905092915050565b600081905092915050565b6000615753826157dc565b915061575e836157dc565b9250827fffffffffffffffffffffffffffffffffffffffffffffffffffffffffffffffff03821115615793576157926158f8565b5b828201905092915050565b60006157a9826157bc565b9050919050565b60008115159050919050565b600073ffffffffffffffffffffffffffffffffffffffff82169050919050565b6000819050919050565b60006157f1826157f8565b9050919050565b6000615803826157bc565b9050919050565b82818337600083830152505050565b60005b8381101561583757808201518184015260208101905061581c565b83811115615846576000848401525b50505050565b6000600282049050600182168061586457607f821691505b6020821081141561587857615877615927565b5b50919050565b61588782615985565b810181811067ffffffffffffffff821117156158a6576158a5615956565b5b80604052505050565b60006158ba826157dc565b91507fffffffffffffffffffffffffffffffffffffffffffffffffffffffffffffffff8214156158ed576158ec6158f8565b5b600182019050919050565b7f4e487b7100000000000000000000000000000000000000000000000000000000600052601160045260246000fd5b7f4e487b7100000000000000000000000000000000000000000000000000000000600052602260045260246000fd5b7f4e487b7100000000000000000000000000000000000000000000000000000000600052604160045260246000fd5b6000601f19601f8301169050919050565b7f50726f6772616d206e6f74207374617274206f72206578706972656400000000600082015250565b7f45524331393637557067726164653a207570677261646520627265616b73206660008201527f7572746865722075706772616465730000000000000000000000000000000000602082015250565b7f4f776e61626c653a206e6577206f776e657220697320746865207a65726f206160008201527f6464726573730000000000000000000000000000000000000000000000000000602082015250565b7f46756e6374696f6e206d7573742062652063616c6c6564207468726f7567682060008201527f64656c656761746563616c6c0000000000000000000000000000000000000000602082015250565b7f43616c6c6572206973206e6f74206120617070726f76616c2075736572000000600082015250565b7f46756e6374696f6e206d7573742062652063616c6c6564207468726f7567682060008201527f6163746976652070726f78790000000000000000000000000000000000000000602082015250565b7f416464726573733a20696e73756666696369656e742062616c616e636520666f60008201527f722063616c6c0000000000000000000000000000000000000000000000000000602082015250565b7f50726f6772616d206e6f7420666f756e64000000000000000000000000000000600082015250565b7f57726f6e6720726566657272657220636f646500000000000000000000000000600082015250565b7f496e697469616c697a61626c653a20636f6e747261637420697320616c72656160008201527f647920696e697469616c697a6564000000000000000000000000000000000000602082015250565b7f4163636f756e74206e6f7420666f756e64000000000000000000000000000000600082015250565b7f455243313936373a206e657720696d706c656d656e746174696f6e206973206e60008201527f6f74206120636f6e747261637400000000000000000000000000000000000000602082015250565b7f4f776e61626c653a2063616c6c6572206973206e6f7420746865206f776e6572600082015250565b7f50726f6772616d20776173207370656e7420616c6c20616c6c6f636174696f6e600082015250565b7f416464726573733a2064656c65676174652063616c6c20746f206e6f6e2d636f60008201527f6e74726163740000000000000000000000000000000000000000000000000000602082015250565b7f416464726573733a2063616c6c20746f206e6f6e2d636f6e7472616374000000600082015250565b7f43616e6e6f74206a6f696e20796f757273656c66000000000000000000000000600082015250565b7f5361666545524332303a204552433230206f7065726174696f6e20646964206e60008201527f6f74207375636365656400000000000000000000000000000000000000000000602082015250565b7f50726f6772616d2069732070617573696e670000000000000000000000000000600082015250565b7f50726f6772616d206973206578697374696e6700000000000000000000000000600082015250565b7f54686973207569642075736564206f7468657220616464726573730000000000600082015250565b7f416d6f756e742065786365656473000000000000000000000000000000000000600082015250565b7f55736572206a6f696e6564000000000000000000000000000000000000000000600082015250565b615ea48161579e565b8114615eaf57600080fd5b50565b615ebb816157b0565b8114615ec657600080fd5b50565b615ed2816157dc565b8114615edd57600080fd5b5056fe416464726573733a206c6f772d6c6576656c2064656c65676174652063616c6c206661696c6564a2646970667358221220840aafcf10cb8c652b9cc1baaafbe54fc45d341279e54492bf054a0141bd0b9e64736f6c63430008020033",
  "linkReferences": {},
  "deployedLinkReferences": {}
}