{
  "_format": "hh-sol-artifact-1",
  "contractName": "ReferralContract",
  "sourceName": "contracts/ReferralContract.sol",
  "abi": [
    {
      "inputs": [],
      "stateMutability": "nonpayable",
      "type": "constructor"
    },
    {
      "anonymous": false,
      "inputs": [
        {
          "indexed": false,
          "internalType": "address",
          "name": "previousAdmin",
          "type": "address"
        },
        {
          "indexed": false,
          "internalType": "address",
          "name": "newAdmin",
          "type": "address"
        }
      ],
      "name": "AdminChanged",
      "type": "event"
    },
    {
      "anonymous": false,
      "inputs": [
        {
          "indexed": true,
          "internalType": "address",
          "name": "beacon",
          "type": "address"
        }
      ],
      "name": "BeaconUpgraded",
      "type": "event"
    },
    {
      "anonymous": false,
      "inputs": [
        {
          "indexed": true,
          "internalType": "address",
          "name": "previousOwner",
          "type": "address"
        },
        {
          "indexed": true,
          "internalType": "address",
          "name": "newOwner",
          "type": "address"
        }
      ],
      "name": "OwnershipTransferred",
      "type": "event"
    },
    {
      "anonymous": false,
      "inputs": [
        {
          "indexed": true,
          "internalType": "address",
          "name": "implementation",
          "type": "address"
        }
      ],
      "name": "Upgraded",
      "type": "event"
    },
    {
      "inputs": [
        {
          "internalType": "string",
          "name": "_programCode",
          "type": "string"
        },
        {
          "internalType": "address",
          "name": "_tokenAddress",
          "type": "address"
        }
      ],
      "name": "addProgram",
      "outputs": [],
      "stateMutability": "nonpayable",
      "type": "function"
    },
    {
      "inputs": [
        {
          "internalType": "address",
          "name": "",
          "type": "address"
        }
      ],
      "name": "addressJoined",
      "outputs": [
        {
          "internalType": "string",
          "name": "",
          "type": "string"
        }
      ],
      "stateMutability": "view",
      "type": "function"
    },
    {
      "inputs": [
        {
          "internalType": "address",
          "name": "",
          "type": "address"
        }
      ],
      "name": "admins",
      "outputs": [
        {
          "internalType": "bool",
          "name": "",
          "type": "bool"
        }
      ],
      "stateMutability": "view",
      "type": "function"
    },
    {
      "inputs": [
        {
          "internalType": "string",
          "name": "_programCode",
          "type": "string"
        }
      ],
      "name": "approveAllIncentive",
      "outputs": [],
      "stateMutability": "nonpayable",
      "type": "function"
    },
    {
      "inputs": [
        {
          "internalType": "string",
          "name": "_programCode",
          "type": "string"
        },
        {
          "internalType": "uint256",
          "name": "_index",
          "type": "uint256"
        }
      ],
      "name": "denyIncentive",
      "outputs": [],
      "stateMutability": "nonpayable",
      "type": "function"
    },
    {
      "inputs": [
        {
          "internalType": "address",
          "name": "_tokenAddress",
          "type": "address"
        },
        {
          "internalType": "uint256",
          "name": "_amount",
          "type": "uint256"
        }
      ],
      "name": "emergencyWithdrawToken",
      "outputs": [],
      "stateMutability": "nonpayable",
      "type": "function"
    },
    {
      "inputs": [
        {
          "internalType": "string",
          "name": "",
          "type": "string"
        },
        {
          "internalType": "uint256",
          "name": "",
          "type": "uint256"
        }
      ],
      "name": "holdReferrer",
      "outputs": [
        {
          "internalType": "string",
          "name": "",
          "type": "string"
        }
      ],
      "stateMutability": "view",
      "type": "function"
    },
    {
      "inputs": [
        {
          "internalType": "string",
          "name": "",
          "type": "string"
        },
        {
          "internalType": "string",
          "name": "",
          "type": "string"
        }
      ],
      "name": "incentiveHold",
      "outputs": [
        {
          "internalType": "uint256",
          "name": "",
          "type": "uint256"
        }
      ],
      "stateMutability": "view",
      "type": "function"
    },
    {
      "inputs": [],
      "name": "initialize",
      "outputs": [],
      "stateMutability": "nonpayable",
      "type": "function"
    },
    {
      "inputs": [
        {
          "internalType": "string",
          "name": "_programCode",
          "type": "string"
        },
        {
          "internalType": "string",
          "name": "_uid",
          "type": "string"
        },
        {
          "internalType": "string",
          "name": "_referrerCode",
          "type": "string"
        }
      ],
      "name": "joinProgram",
      "outputs": [],
      "stateMutability": "nonpayable",
      "type": "function"
    },
    {
      "inputs": [],
      "name": "owner",
      "outputs": [
        {
          "internalType": "address",
          "name": "",
          "type": "address"
        }
      ],
      "stateMutability": "view",
      "type": "function"
    },
    {
      "inputs": [
        {
          "internalType": "string",
          "name": "",
          "type": "string"
        }
      ],
      "name": "programs",
      "outputs": [
        {
          "internalType": "string",
          "name": "code",
          "type": "string"
        },
        {
          "internalType": "address",
          "name": "tokenAddress",
          "type": "address"
        },
        {
          "internalType": "uint256",
          "name": "incentiveL0",
          "type": "uint256"
        },
        {
          "internalType": "uint256",
          "name": "incentiveL1",
          "type": "uint256"
        },
        {
          "internalType": "uint256",
          "name": "incentiveL2",
          "type": "uint256"
        },
        {
          "internalType": "bool",
          "name": "paused",
          "type": "bool"
        }
      ],
      "stateMutability": "view",
      "type": "function"
    },
    {
      "inputs": [
        {
          "internalType": "string",
          "name": "",
          "type": "string"
        },
        {
          "internalType": "address",
          "name": "",
          "type": "address"
        }
      ],
      "name": "rUserFromReferer",
      "outputs": [
        {
          "internalType": "address",
          "name": "",
          "type": "address"
        }
      ],
      "stateMutability": "view",
      "type": "function"
    },
    {
      "inputs": [
        {
          "internalType": "string",
          "name": "_programCode",
          "type": "string"
        },
        {
          "internalType": "string",
          "name": "_uid",
          "type": "string"
        }
      ],
      "name": "removeJoinProgram",
      "outputs": [],
      "stateMutability": "nonpayable",
      "type": "function"
    },
    {
      "inputs": [],
      "name": "renounceOwnership",
      "outputs": [],
      "stateMutability": "nonpayable",
      "type": "function"
    },
    {
      "inputs": [
        {
          "internalType": "address",
          "name": "_adminAddress",
          "type": "address"
        },
        {
          "internalType": "bool",
          "name": "_allow",
          "type": "bool"
        }
      ],
      "name": "setAdmin",
      "outputs": [],
      "stateMutability": "nonpayable",
      "type": "function"
    },
    {
      "inputs": [
        {
          "internalType": "string",
          "name": "_programCode",
          "type": "string"
        },
        {
          "internalType": "uint256",
          "name": "_amount1",
          "type": "uint256"
        },
        {
          "internalType": "uint256",
          "name": "_amount2",
          "type": "uint256"
        },
        {
          "internalType": "uint256",
          "name": "_amount3",
          "type": "uint256"
        }
      ],
      "name": "setIncentiveAmount",
      "outputs": [],
      "stateMutability": "nonpayable",
      "type": "function"
    },
    {
      "inputs": [
        {
          "internalType": "string",
          "name": "_programCode",
          "type": "string"
        },
        {
          "internalType": "bool",
          "name": "_pause",
          "type": "bool"
        }
      ],
      "name": "setPause",
      "outputs": [],
      "stateMutability": "nonpayable",
      "type": "function"
    },
    {
      "inputs": [],
      "name": "token",
      "outputs": [
        {
          "internalType": "contract IERC20Upgradeable",
          "name": "",
          "type": "address"
        }
      ],
      "stateMutability": "view",
      "type": "function"
    },
    {
      "inputs": [
        {
          "internalType": "address",
          "name": "newOwner",
          "type": "address"
        }
      ],
      "name": "transferOwnership",
      "outputs": [],
      "stateMutability": "nonpayable",
      "type": "function"
    },
    {
      "inputs": [
        {
          "internalType": "string",
          "name": "",
          "type": "string"
        },
        {
          "internalType": "string",
          "name": "",
          "type": "string"
        }
      ],
      "name": "uidJoined",
      "outputs": [
        {
          "internalType": "address",
          "name": "",
          "type": "address"
        }
      ],
      "stateMutability": "view",
      "type": "function"
    },
    {
      "inputs": [
        {
          "internalType": "address",
          "name": "newImplementation",
          "type": "address"
        }
      ],
      "name": "upgradeTo",
      "outputs": [],
      "stateMutability": "nonpayable",
      "type": "function"
    },
    {
      "inputs": [
        {
          "internalType": "address",
          "name": "newImplementation",
          "type": "address"
        },
        {
          "internalType": "bytes",
          "name": "data",
          "type": "bytes"
        }
      ],
      "name": "upgradeToAndCall",
      "outputs": [],
      "stateMutability": "payable",
      "type": "function"
    },
    {
      "inputs": [
        {
          "internalType": "string",
          "name": "",
          "type": "string"
        }
      ],
      "name": "userJoined",
      "outputs": [
        {
          "internalType": "address",
          "name": "",
          "type": "address"
        }
      ],
      "stateMutability": "view",
      "type": "function"
    },
    {
      "inputs": [
        {
          "internalType": "string",
          "name": "",
          "type": "string"
        },
        {
          "internalType": "address",
          "name": "",
          "type": "address"
        },
        {
          "internalType": "uint256",
          "name": "",
          "type": "uint256"
        }
      ],
      "name": "userReferees",
      "outputs": [
        {
          "internalType": "address",
          "name": "",
          "type": "address"
        }
      ],
      "stateMutability": "view",
      "type": "function"
    },
    {
      "inputs": [],
      "name": "version",
      "outputs": [
        {
          "internalType": "string",
          "name": "",
          "type": "string"
        }
      ],
      "stateMutability": "pure",
      "type": "function"
    }
  ],
  "bytecode": "0x60a06040523073ffffffffffffffffffffffffffffffffffffffff1660809073ffffffffffffffffffffffffffffffffffffffff1660601b8152503480156200004757600080fd5b50600060019054906101000a900460ff16806200006f575060008054906101000a900460ff16155b620000b1576040517f08c379a0000000000000000000000000000000000000000000000000000000008152600401620000a89062000152565b60405180910390fd5b60008060019054906101000a900460ff16159050801562000102576001600060016101000a81548160ff02191690831515021790555060016000806101000a81548160ff0219169083151502179055505b8015620001245760008060016101000a81548160ff0219169083151502179055505b50620001d4565b60006200013a602e8362000174565b9150620001478262000185565b604082019050919050565b600060208201905081810360008301526200016d816200012b565b9050919050565b600082825260208201905092915050565b7f496e697469616c697a61626c653a20636f6e747261637420697320616c72656160008201527f647920696e697469616c697a6564000000000000000000000000000000000000602082015250565b60805160601c61529d6200020860003960008181610967015281816109f601528181610de70152610e76015261529d6000f3fe6080604052600436106101815760003560e01c806375f274a2116100d1578063b055b2711161008a578063cb25b67d11610064578063cb25b67d14610598578063df7662b8146105c1578063f2fde38b146105ea578063fc0c546a1461061357610181565b8063b055b271146104f0578063b5dd4a321461052d578063ca0f059a1461056f57610181565b806375f274a2146103f65780638129fc1c1461041f5780638da5cb5b14610436578063922f917814610461578063a4c3b0911461049e578063ab4d837c146104c757610181565b8063467823541161013e57806354fd4d501161011857806354fd4d501461033a5780636326a0a014610365578063715018a6146103a257806373742514146103b957610181565b806346782354146102b85780634b0bddd2146102f55780634f1ef2861461031e57610181565b80630b3d3f461461018657806319e9e88f146101af57806333ae0e7a146101ec5780633659cfe614610229578063398fa16a14610252578063429b62e51461027b575b600080fd5b34801561019257600080fd5b506101ad60048036038101906101a89190613dc7565b61063e565b005b3480156101bb57600080fd5b506101d660048036038101906101d19190613ed6565b6108a3565b6040516101e391906149c8565b60405180910390f35b3480156101f857600080fd5b50610213600480360381019061020e9190613e1b565b6108f4565b6040516102209190614604565b60405180910390f35b34801561023557600080fd5b50610250600480360381019061024b9190613c68565b610965565b005b34801561025e57600080fd5b506102796004803603810190610274919061402d565b610b14565b005b34801561028757600080fd5b506102a2600480360381019061029d9190613c68565b610c1f565b6040516102af9190614648565b60405180910390f35b3480156102c457600080fd5b506102df60048036038101906102da9190613fd9565b610c3f565b6040516102ec919061467e565b60405180910390f35b34801561030157600080fd5b5061031c60048036038101906103179190613c91565b610d0e565b005b61033860048036038101906103339190613ccd565b610de5565b005b34801561034657600080fd5b5061034f610f22565b60405161035c919061467e565b60405180910390f35b34801561037157600080fd5b5061038c60048036038101906103879190613c68565b610f5f565b604051610399919061467e565b60405180910390f35b3480156103ae57600080fd5b506103b7610fff565b005b3480156103c557600080fd5b506103e060048036038101906103db9190613ed6565b611087565b6040516103ed9190614604565b60405180910390f35b34801561040257600080fd5b5061041d60048036038101906104189190613ed6565b6110f5565b005b34801561042b57600080fd5b506104346112d0565b005b34801561044257600080fd5b5061044b611410565b6040516104589190614604565b60405180910390f35b34801561046d57600080fd5b5061048860048036038101906104839190613d86565b61143a565b6040516104959190614604565b60405180910390f35b3480156104aa57600080fd5b506104c560048036038101906104c09190613d21565b611483565b005b3480156104d357600080fd5b506104ee60048036038101906104e99190613fd9565b611685565b005b3480156104fc57600080fd5b5061051760048036038101906105129190613dc7565b6118cf565b6040516105249190614604565b60405180910390f35b34801561053957600080fd5b50610554600480360381019061054f9190613d86565b611927565b604051610566969594939291906146a0565b60405180910390f35b34801561057b57600080fd5b5061059660048036038101906105919190613d86565b611a2e565b005b3480156105a457600080fd5b506105bf60048036038101906105ba9190613f42565b611e83565b005b3480156105cd57600080fd5b506105e860048036038101906105e39190613e82565b612cfe565b005b3480156105f657600080fd5b50610611600480360381019061060c9190613c68565b612dce565b005b34801561061f57600080fd5b50610628612ec6565b6040516106359190614663565b60405180910390f35b6001151560c960003373ffffffffffffffffffffffffffffffffffffffff1673ffffffffffffffffffffffffffffffffffffffff16815260200190815260200160002060009054906101000a900460ff161515146106d1576040517f08c379a00000000000000000000000000000000000000000000000000000000081526004016106c890614788565b60405180910390fd5b600073ffffffffffffffffffffffffffffffffffffffff1660ca836040516106f991906145d6565b908152602001604051809103902060010160009054906101000a900473ffffffffffffffffffffffffffffffffffffffff1673ffffffffffffffffffffffffffffffffffffffff1614610781576040517f08c379a000000000000000000000000000000000000000000000000000000000815260040161077890614948565b60405180910390fd5b6040518060c001604052808381526020018273ffffffffffffffffffffffffffffffffffffffff16815260200166470de4df8200008152602001662386f26fc10000815260200166038d7ea4c6800081526020016000151581525060ca836040516107ec91906145d6565b908152602001604051809103902060008201518160000190805190602001906108169291906139ff565b5060208201518160010160006101000a81548173ffffffffffffffffffffffffffffffffffffffff021916908373ffffffffffffffffffffffffffffffffffffffff16021790555060408201518160020155606082015181600301556080820151816004015560a08201518160050160006101000a81548160ff0219169083151502179055509050505050565b60d18280516020810182018051848252602083016020850120818352809550505050505081805160208101820180518482526020830160208501208183528095505050505050600091509150505481565b60cd83805160208101820180518482526020830160208501208183528095505050505050602052816000526040600020818154811061093257600080fd5b90600052602060002001600092509250509054906101000a900473ffffffffffffffffffffffffffffffffffffffff1681565b7f000000000000000000000000000000000000000000000000000000000000000073ffffffffffffffffffffffffffffffffffffffff163073ffffffffffffffffffffffffffffffffffffffff1614156109f4576040517f08c379a00000000000000000000000000000000000000000000000000000000081526004016109eb90614768565b60405180910390fd5b7f000000000000000000000000000000000000000000000000000000000000000073ffffffffffffffffffffffffffffffffffffffff16610a33612eec565b73ffffffffffffffffffffffffffffffffffffffff1614610a89576040517f08c379a0000000000000000000000000000000000000000000000000000000008152600401610a80906147a8565b60405180910390fd5b610a9281612f43565b610b1181600067ffffffffffffffff811115610ad7577f4e487b7100000000000000000000000000000000000000000000000000000000600052604160045260246000fd5b6040519080825280601f01601f191660200182016040528015610b095781602001600182028036833780820191505090505b506000612fc2565b50565b6001151560c960003373ffffffffffffffffffffffffffffffffffffffff1673ffffffffffffffffffffffffffffffffffffffff16815260200190815260200160002060009054906101000a900460ff16151514610ba7576040517f08c379a0000000000000000000000000000000000000000000000000000000008152600401610b9e90614788565b60405180910390fd5b8260ca85604051610bb891906145d6565b9081526020016040518091039020600201819055508160ca85604051610bde91906145d6565b9081526020016040518091039020600301819055508060ca85604051610c0491906145d6565b90815260200160405180910390206004018190555050505050565b60c96020528060005260406000206000915054906101000a900460ff1681565b60d0828051602081018201805184825260208301602085012081835280955050505050508181548110610c7157600080fd5b90600052602060002001600091509150508054610c8d90614bd5565b80601f0160208091040260200160405190810160405280929190818152602001828054610cb990614bd5565b8015610d065780601f10610cdb57610100808354040283529160200191610d06565b820191906000526020600020905b815481529060010190602001808311610ce957829003601f168201915b505050505081565b610d16613193565b73ffffffffffffffffffffffffffffffffffffffff16610d34611410565b73ffffffffffffffffffffffffffffffffffffffff1614610d8a576040517f08c379a0000000000000000000000000000000000000000000000000000000008152600401610d8190614888565b60405180910390fd5b8060c960008473ffffffffffffffffffffffffffffffffffffffff1673ffffffffffffffffffffffffffffffffffffffff16815260200190815260200160002060006101000a81548160ff0219169083151502179055505050565b7f000000000000000000000000000000000000000000000000000000000000000073ffffffffffffffffffffffffffffffffffffffff163073ffffffffffffffffffffffffffffffffffffffff161415610e74576040517f08c379a0000000000000000000000000000000000000000000000000000000008152600401610e6b90614768565b60405180910390fd5b7f000000000000000000000000000000000000000000000000000000000000000073ffffffffffffffffffffffffffffffffffffffff16610eb3612eec565b73ffffffffffffffffffffffffffffffffffffffff1614610f09576040517f08c379a0000000000000000000000000000000000000000000000000000000008152600401610f00906147a8565b60405180910390fd5b610f1282612f43565b610f1e82826001612fc2565b5050565b60606040518060400160405280600281526020017f7631000000000000000000000000000000000000000000000000000000000000815250905090565b60cf6020528060005260406000206000915090508054610f7e90614bd5565b80601f0160208091040260200160405190810160405280929190818152602001828054610faa90614bd5565b8015610ff75780601f10610fcc57610100808354040283529160200191610ff7565b820191906000526020600020905b815481529060010190602001808311610fda57829003601f168201915b505050505081565b611007613193565b73ffffffffffffffffffffffffffffffffffffffff16611025611410565b73ffffffffffffffffffffffffffffffffffffffff161461107b576040517f08c379a000000000000000000000000000000000000000000000000000000000815260040161107290614888565b60405180910390fd5b611085600061319b565b565b60cb82805160208101820180518482526020830160208501208183528095505050505050818051602081018201805184825260208301602085012081835280955050505050506000915091509054906101000a900473ffffffffffffffffffffffffffffffffffffffff1681565b6001151560c960003373ffffffffffffffffffffffffffffffffffffffff1673ffffffffffffffffffffffffffffffffffffffff16815260200190815260200160002060009054906101000a900460ff16151514611188576040517f08c379a000000000000000000000000000000000000000000000000000000000815260040161117f90614788565b60405180910390fd5b600073ffffffffffffffffffffffffffffffffffffffff1660cb836040516111b091906145d6565b9081526020016040518091039020826040516111cc91906145d6565b908152602001604051809103902060009054906101000a900473ffffffffffffffffffffffffffffffffffffffff1673ffffffffffffffffffffffffffffffffffffffff161415611252576040517f08c379a000000000000000000000000000000000000000000000000000000000815260040161124990614848565b60405180910390fd5b600060cb8360405161126491906145d6565b90815260200160405180910390208260405161128091906145d6565b908152602001604051809103902060006101000a81548173ffffffffffffffffffffffffffffffffffffffff021916908373ffffffffffffffffffffffffffffffffffffffff1602179055505050565b600060019054906101000a900460ff16806112f6575060008054906101000a900460ff16155b611335576040517f08c379a000000000000000000000000000000000000000000000000000000000815260040161132c90614828565b60405180910390fd5b60008060019054906101000a900460ff161590508015611385576001600060016101000a81548160ff02191690831515021790555060016000806101000a81548160ff0219169083151502179055505b61138d613261565b600160c9600061139b611410565b73ffffffffffffffffffffffffffffffffffffffff1673ffffffffffffffffffffffffffffffffffffffff16815260200190815260200160002060006101000a81548160ff021916908315150217905550801561140d5760008060016101000a81548160ff0219169083151502179055505b50565b6000609760009054906101000a900473ffffffffffffffffffffffffffffffffffffffff16905090565b60ce818051602081018201805184825260208301602085012081835280955050505050506000915054906101000a900473ffffffffffffffffffffffffffffffffffffffff1681565b61148b613193565b73ffffffffffffffffffffffffffffffffffffffff166114a9611410565b73ffffffffffffffffffffffffffffffffffffffff16146114ff576040517f08c379a00000000000000000000000000000000000000000000000000000000081526004016114f690614888565b60405180910390fd5b8160d260006101000a81548173ffffffffffffffffffffffffffffffffffffffff021916908373ffffffffffffffffffffffffffffffffffffffff1602179055508060d260009054906101000a900473ffffffffffffffffffffffffffffffffffffffff1673ffffffffffffffffffffffffffffffffffffffff166370a08231306040518263ffffffff1660e01b815260040161159c9190614604565b60206040518083038186803b1580156115b457600080fd5b505afa1580156115c8573d6000803e3d6000fd5b505050506040513d601f19601f820116820180604052508101906115ec91906140a8565b101561162d576040517f08c379a000000000000000000000000000000000000000000000000000000000815260040161162490614988565b60405180910390fd5b611681611638611410565b8260d260009054906101000a900473ffffffffffffffffffffffffffffffffffffffff1673ffffffffffffffffffffffffffffffffffffffff1661334a9092919063ffffffff16565b5050565b6001151560c960003373ffffffffffffffffffffffffffffffffffffffff1673ffffffffffffffffffffffffffffffffffffffff16815260200190815260200160002060009054906101000a900460ff16151514611718576040517f08c379a000000000000000000000000000000000000000000000000000000000815260040161170f90614788565b60405180910390fd5b600073ffffffffffffffffffffffffffffffffffffffff1660ca8360405161174091906145d6565b908152602001604051809103902060010160009054906101000a900473ffffffffffffffffffffffffffffffffffffffff1673ffffffffffffffffffffffffffffffffffffffff1614156117c9576040517f08c379a00000000000000000000000000000000000000000000000000000000081526004016117c0906147e8565b60405180910390fd5b8060d0836040516117da91906145d6565b9081526020016040518091039020805490501161182c576040517f08c379a000000000000000000000000000000000000000000000000000000000815260040161182390614708565b60405180910390fd5b600060d18360405161183e91906145d6565b908152602001604051809103902060d08460405161185c91906145d6565b908152602001604051809103902083815481106118a2577f4e487b7100000000000000000000000000000000000000000000000000000000600052603260045260246000fd5b906000526020600020016040516118b991906145ed565b9081526020016040518091039020819055505050565b60cc828051602081018201805184825260208301602085012081835280955050505050506020528060005260406000206000915091509054906101000a900473ffffffffffffffffffffffffffffffffffffffff1681565b60ca8180516020810182018051848252602083016020850120818352809550505050505060009150905080600001805461196090614bd5565b80601f016020809104026020016040519081016040528092919081815260200182805461198c90614bd5565b80156119d95780601f106119ae576101008083540402835291602001916119d9565b820191906000526020600020905b8154815290600101906020018083116119bc57829003601f168201915b5050505050908060010160009054906101000a900473ffffffffffffffffffffffffffffffffffffffff16908060020154908060030154908060040154908060050160009054906101000a900460ff16905086565b6001151560c960003373ffffffffffffffffffffffffffffffffffffffff1673ffffffffffffffffffffffffffffffffffffffff16815260200190815260200160002060009054906101000a900460ff16151514611ac1576040517f08c379a0000000000000000000000000000000000000000000000000000000008152600401611ab890614788565b60405180910390fd5b600073ffffffffffffffffffffffffffffffffffffffff1660ca82604051611ae991906145d6565b908152602001604051809103902060010160009054906101000a900473ffffffffffffffffffffffffffffffffffffffff1673ffffffffffffffffffffffffffffffffffffffff161415611b72576040517f08c379a0000000000000000000000000000000000000000000000000000000008152600401611b69906147e8565b60405180910390fd5b600060ca82604051611b8491906145d6565b908152602001604051809103902060010160009054906101000a900473ffffffffffffffffffffffffffffffffffffffff1690508060d260006101000a81548173ffffffffffffffffffffffffffffffffffffffff021916908373ffffffffffffffffffffffffffffffffffffffff16021790555060005b60d083604051611c0c91906145d6565b908152602001604051809103902080549050811015611e3457600060ce60d085604051611c3991906145d6565b90815260200160405180910390208381548110611c7f577f4e487b7100000000000000000000000000000000000000000000000000000000600052603260045260246000fd5b90600052602060002001604051611c9691906145ed565b908152602001604051809103902060009054906101000a900473ffffffffffffffffffffffffffffffffffffffff169050600060d185604051611cd991906145d6565b908152602001604051809103902060d086604051611cf791906145d6565b90815260200160405180910390208481548110611d3d577f4e487b7100000000000000000000000000000000000000000000000000000000600052603260045260246000fd5b90600052602060002001604051611d5491906145ed565b90815260200160405180910390205490506000811115611e1f5760d260009054906101000a900473ffffffffffffffffffffffffffffffffffffffff1673ffffffffffffffffffffffffffffffffffffffff1663a9059cbb83836040518363ffffffff1660e01b8152600401611dcb92919061461f565b602060405180830381600087803b158015611de557600080fd5b505af1158015611df9573d6000803e3d6000fd5b505050506040513d601f19601f82011682018060405250810190611e1d9190613d5d565b505b50508080611e2c90614c38565b915050611bfc565b5060005b60d083604051611e4891906145d6565b908152602001604051809103902080549050811015611e7e57611e6b8382611685565b8080611e7690614c38565b915050611e38565b505050565b6000151560ca84604051611e9791906145d6565b908152602001604051809103902060050160009054906101000a900460ff16151514611ef8576040517f08c379a0000000000000000000000000000000000000000000000000000000008152600401611eef90614928565b60405180910390fd5b600073ffffffffffffffffffffffffffffffffffffffff1660ca84604051611f2091906145d6565b908152602001604051809103902060010160009054906101000a900473ffffffffffffffffffffffffffffffffffffffff1673ffffffffffffffffffffffffffffffffffffffff161415611fa9576040517f08c379a0000000000000000000000000000000000000000000000000000000008152600401611fa0906147e8565b60405180910390fd5b60008190506000815111156120b857818051906020012083805190602001201415612009576040517f08c379a0000000000000000000000000000000000000000000000000000000008152600401612000906148e8565b60405180910390fd5b600073ffffffffffffffffffffffffffffffffffffffff1660ce8360405161203191906145d6565b908152602001604051809103902060009054906101000a900473ffffffffffffffffffffffffffffffffffffffff1673ffffffffffffffffffffffffffffffffffffffff1614156120b7576040517f08c379a00000000000000000000000000000000000000000000000000000000081526004016120ae90614808565b60405180910390fd5b5b600073ffffffffffffffffffffffffffffffffffffffff1660cb856040516120e091906145d6565b9081526020016040518091039020846040516120fc91906145d6565b908152602001604051809103902060009054906101000a900473ffffffffffffffffffffffffffffffffffffffff1673ffffffffffffffffffffffffffffffffffffffff1614612181576040517f08c379a0000000000000000000000000000000000000000000000000000000008152600401612178906149a8565b60405180910390fd5b600073ffffffffffffffffffffffffffffffffffffffff1660cc856040516121a991906145d6565b908152602001604051809103902060003373ffffffffffffffffffffffffffffffffffffffff1673ffffffffffffffffffffffffffffffffffffffff16815260200190815260200160002060009054906101000a900473ffffffffffffffffffffffffffffffffffffffff1673ffffffffffffffffffffffffffffffffffffffff16146122cd5760cf60003373ffffffffffffffffffffffffffffffffffffffff1673ffffffffffffffffffffffffffffffffffffffff16815260200190815260200160002060405161227c91906145bf565b60405180910390208380519060200120146122cc576040517f08c379a00000000000000000000000000000000000000000000000000000000081526004016122c390614968565b60405180910390fd5b5b600081511115612bce57600060ce836040516122e991906145d6565b908152602001604051809103902060009054906101000a900473ffffffffffffffffffffffffffffffffffffffff169050600060019050600073ffffffffffffffffffffffffffffffffffffffff1660cc8760405161234891906145d6565b908152602001604051809103902060003373ffffffffffffffffffffffffffffffffffffffff1673ffffffffffffffffffffffffffffffffffffffff16815260200190815260200160002060009054906101000a900473ffffffffffffffffffffffffffffffffffffffff1673ffffffffffffffffffffffffffffffffffffffff16146123d457600090505b8015612bcb57600060ca876040516123ec91906145d6565b908152602001604051809103902060010160009054906101000a900473ffffffffffffffffffffffffffffffffffffffff1690508060d260006101000a81548173ffffffffffffffffffffffffffffffffffffffff021916908373ffffffffffffffffffffffffffffffffffffffff1602179055508260cc8860405161247291906145d6565b908152602001604051809103902060003373ffffffffffffffffffffffffffffffffffffffff1673ffffffffffffffffffffffffffffffffffffffff16815260200190815260200160002060006101000a81548173ffffffffffffffffffffffffffffffffffffffff021916908373ffffffffffffffffffffffffffffffffffffffff16021790555060cd8760405161250b91906145d6565b908152602001604051809103902060008473ffffffffffffffffffffffffffffffffffffffff1673ffffffffffffffffffffffffffffffffffffffff168152602001908152602001600020339080600181540180825580915050600190039060005260206000200160009091909190916101000a81548173ffffffffffffffffffffffffffffffffffffffff021916908373ffffffffffffffffffffffffffffffffffffffff160217905550600060d1886040516125c991906145d6565b9081526020016040518091039020866040516125e591906145d6565b90815260200160405180910390205414156126535760d08760405161260a91906145d6565b9081526020016040518091039020859080600181540180825580915050600190039060005260206000200160009091909190915090805190602001906126519291906139ff565b505b60ca8760405161266391906145d6565b90815260200160405180910390206002015460d18860405161268591906145d6565b9081526020016040518091039020866040516126a191906145d6565b908152602001604051809103902060008282546126be9190614ad1565b92505081905550600060cc886040516126d791906145d6565b908152602001604051809103902060008573ffffffffffffffffffffffffffffffffffffffff1673ffffffffffffffffffffffffffffffffffffffff16815260200190815260200160002060009054906101000a900473ffffffffffffffffffffffffffffffffffffffff169050600073ffffffffffffffffffffffffffffffffffffffff168173ffffffffffffffffffffffffffffffffffffffff1614612bc857600060d18960405161278b91906145d6565b908152602001604051809103902060cf60008473ffffffffffffffffffffffffffffffffffffffff1673ffffffffffffffffffffffffffffffffffffffff1681526020019081526020016000206040516127e591906145ed565b90815260200160405180910390205414156128955760d08860405161280a91906145d6565b908152602001604051809103902060cf60008373ffffffffffffffffffffffffffffffffffffffff1673ffffffffffffffffffffffffffffffffffffffff1681526020019081526020016000209080600181540180825580915050600190039060005260206000200160009091909190915090805461288890614bd5565b612893929190613a85565b505b60ca886040516128a591906145d6565b90815260200160405180910390206003015460d1896040516128c791906145d6565b908152602001604051809103902060cf60008473ffffffffffffffffffffffffffffffffffffffff1673ffffffffffffffffffffffffffffffffffffffff16815260200190815260200160002060405161292191906145ed565b9081526020016040518091039020600082825461293e9190614ad1565b92505081905550600060cc8960405161295791906145d6565b908152602001604051809103902060008373ffffffffffffffffffffffffffffffffffffffff1673ffffffffffffffffffffffffffffffffffffffff16815260200190815260200160002060009054906101000a900473ffffffffffffffffffffffffffffffffffffffff169050600073ffffffffffffffffffffffffffffffffffffffff168173ffffffffffffffffffffffffffffffffffffffff1614612bc657600060d18a604051612a0b91906145d6565b908152602001604051809103902060cf60008473ffffffffffffffffffffffffffffffffffffffff1673ffffffffffffffffffffffffffffffffffffffff168152602001908152602001600020604051612a6591906145ed565b9081526020016040518091039020541415612b155760d089604051612a8a91906145d6565b908152602001604051809103902060cf60008373ffffffffffffffffffffffffffffffffffffffff1673ffffffffffffffffffffffffffffffffffffffff16815260200190815260200160002090806001815401808255809150506001900390600052602060002001600090919091909150908054612b0890614bd5565b612b13929190613a85565b505b60ca89604051612b2591906145d6565b90815260200160405180910390206004015460d18a604051612b4791906145d6565b908152602001604051809103902060cf60008473ffffffffffffffffffffffffffffffffffffffff1673ffffffffffffffffffffffffffffffffffffffff168152602001908152602001600020604051612ba191906145ed565b90815260200160405180910390206000828254612bbe9190614ad1565b925050819055505b505b50505b50505b3360cb85604051612bdf91906145d6565b908152602001604051809103902084604051612bfb91906145d6565b908152602001604051809103902060006101000a81548173ffffffffffffffffffffffffffffffffffffffff021916908373ffffffffffffffffffffffffffffffffffffffff1602179055503360ce84604051612c5891906145d6565b908152602001604051809103902060006101000a81548173ffffffffffffffffffffffffffffffffffffffff021916908373ffffffffffffffffffffffffffffffffffffffff1602179055508260cf60003373ffffffffffffffffffffffffffffffffffffffff1673ffffffffffffffffffffffffffffffffffffffff1681526020019081526020016000209080519060200190612cf79291906139ff565b5050505050565b6001151560c960003373ffffffffffffffffffffffffffffffffffffffff1673ffffffffffffffffffffffffffffffffffffffff16815260200190815260200160002060009054906101000a900460ff16151514612d91576040517f08c379a0000000000000000000000000000000000000000000000000000000008152600401612d8890614788565b60405180910390fd5b8060ca83604051612da291906145d6565b908152602001604051809103902060050160006101000a81548160ff0219169083151502179055505050565b612dd6613193565b73ffffffffffffffffffffffffffffffffffffffff16612df4611410565b73ffffffffffffffffffffffffffffffffffffffff1614612e4a576040517f08c379a0000000000000000000000000000000000000000000000000000000008152600401612e4190614888565b60405180910390fd5b600073ffffffffffffffffffffffffffffffffffffffff168173ffffffffffffffffffffffffffffffffffffffff161415612eba576040517f08c379a0000000000000000000000000000000000000000000000000000000008152600401612eb190614748565b60405180910390fd5b612ec38161319b565b50565b60d260009054906101000a900473ffffffffffffffffffffffffffffffffffffffff1681565b6000612f1a7f360894a13ba1a3210667c828492db98dca3e2076cc3735a920a3ca505d382bbc60001b6133d0565b60000160009054906101000a900473ffffffffffffffffffffffffffffffffffffffff16905090565b612f4b613193565b73ffffffffffffffffffffffffffffffffffffffff16612f69611410565b73ffffffffffffffffffffffffffffffffffffffff1614612fbf576040517f08c379a0000000000000000000000000000000000000000000000000000000008152600401612fb690614888565b60405180910390fd5b50565b6000612fcc612eec565b9050612fd7846133da565b600083511180612fe45750815b15612ff557612ff38484613493565b505b60006130237f4910fdfa16fed3260ed0e7147f7cc6da11a60208b5b9406d12a635614ffd914360001b613577565b90508060000160009054906101000a900460ff1661318c5760018160000160006101000a81548160ff0219169083151502179055506130ef858360405160240161306d9190614604565b6040516020818303038152906040527f3659cfe6000000000000000000000000000000000000000000000000000000007bffffffffffffffffffffffffffffffffffffffffffffffffffffffff19166020820180517bffffffffffffffffffffffffffffffffffffffffffffffffffffffff8381831617835250505050613493565b5060008160000160006101000a81548160ff021916908315150217905550613115612eec565b73ffffffffffffffffffffffffffffffffffffffff168273ffffffffffffffffffffffffffffffffffffffff1614613182576040517f08c379a000000000000000000000000000000000000000000000000000000000815260040161317990614728565b60405180910390fd5b61318b85613581565b5b5050505050565b600033905090565b6000609760009054906101000a900473ffffffffffffffffffffffffffffffffffffffff16905081609760006101000a81548173ffffffffffffffffffffffffffffffffffffffff021916908373ffffffffffffffffffffffffffffffffffffffff1602179055508173ffffffffffffffffffffffffffffffffffffffff168173ffffffffffffffffffffffffffffffffffffffff167f8be0079c531659141344cd1fd0a4f28419497f9722a3daafe3b4186f6b6457e060405160405180910390a35050565b600060019054906101000a900460ff1680613287575060008054906101000a900460ff16155b6132c6576040517f08c379a00000000000000000000000000000000000000000000000000000000081526004016132bd90614828565b60405180910390fd5b60008060019054906101000a900460ff161590508015613316576001600060016101000a81548160ff02191690831515021790555060016000806101000a81548160ff0219169083151502179055505b61331e6135d0565b6133266136a9565b80156133475760008060016101000a81548160ff0219169083151502179055505b50565b6133cb8363a9059cbb60e01b848460405160240161336992919061461f565b604051602081830303815290604052907bffffffffffffffffffffffffffffffffffffffffffffffffffffffff19166020820180517bffffffffffffffffffffffffffffffffffffffffffffffffffffffff8381831617835250505050613792565b505050565b6000819050919050565b6133e381613859565b613422576040517f08c379a000000000000000000000000000000000000000000000000000000000815260040161341990614868565b60405180910390fd5b8061344f7f360894a13ba1a3210667c828492db98dca3e2076cc3735a920a3ca505d382bbc60001b6133d0565b60000160006101000a81548173ffffffffffffffffffffffffffffffffffffffff021916908373ffffffffffffffffffffffffffffffffffffffff16021790555050565b606061349e83613859565b6134dd576040517f08c379a00000000000000000000000000000000000000000000000000000000081526004016134d4906148a8565b60405180910390fd5b6000808473ffffffffffffffffffffffffffffffffffffffff168460405161350591906145a8565b600060405180830381855af49150503d8060008114613540576040519150601f19603f3d011682016040523d82523d6000602084013e613545565b606091505b509150915061356d82826040518060600160405280602781526020016152416027913961386c565b9250505092915050565b6000819050919050565b61358a816133da565b8073ffffffffffffffffffffffffffffffffffffffff167fbc7cd75a20ee27fd9adebab32041f755214dbc6bffa90cc0225b39da2e5c2d3b60405160405180910390a250565b600060019054906101000a900460ff16806135f6575060008054906101000a900460ff16155b613635576040517f08c379a000000000000000000000000000000000000000000000000000000000815260040161362c90614828565b60405180910390fd5b60008060019054906101000a900460ff161590508015613685576001600060016101000a81548160ff02191690831515021790555060016000806101000a81548160ff0219169083151502179055505b80156136a65760008060016101000a81548160ff0219169083151502179055505b50565b600060019054906101000a900460ff16806136cf575060008054906101000a900460ff16155b61370e576040517f08c379a000000000000000000000000000000000000000000000000000000000815260040161370590614828565b60405180910390fd5b60008060019054906101000a900460ff16159050801561375e576001600060016101000a81548160ff02191690831515021790555060016000806101000a81548160ff0219169083151502179055505b61376e613769613193565b61319b565b801561378f5760008060016101000a81548160ff0219169083151502179055505b50565b60006137f4826040518060400160405280602081526020017f5361666545524332303a206c6f772d6c6576656c2063616c6c206661696c65648152508573ffffffffffffffffffffffffffffffffffffffff166138d39092919063ffffffff16565b905060008151111561385457808060200190518101906138149190613d5d565b613853576040517f08c379a000000000000000000000000000000000000000000000000000000000815260040161384a90614908565b60405180910390fd5b5b505050565b600080823b905060008111915050919050565b6060831561387c578290506138cc565b60008351111561388f5782518084602001fd5b816040517f08c379a00000000000000000000000000000000000000000000000000000000081526004016138c3919061467e565b60405180910390fd5b9392505050565b60606138e284846000856138eb565b90509392505050565b606082471015613930576040517f08c379a0000000000000000000000000000000000000000000000000000000008152600401613927906147c8565b60405180910390fd5b61393985613859565b613978576040517f08c379a000000000000000000000000000000000000000000000000000000000815260040161396f906148c8565b60405180910390fd5b6000808673ffffffffffffffffffffffffffffffffffffffff1685876040516139a191906145a8565b60006040518083038185875af1925050503d80600081146139de576040519150601f19603f3d011682016040523d82523d6000602084013e6139e3565b606091505b50915091506139f382828661386c565b92505050949350505050565b828054613a0b90614bd5565b90600052602060002090601f016020900481019282613a2d5760008555613a74565b82601f10613a4657805160ff1916838001178555613a74565b82800160010185558215613a74579182015b82811115613a73578251825591602001919060010190613a58565b5b509050613a819190613b12565b5090565b828054613a9190614bd5565b90600052602060002090601f016020900481019282613ab35760008555613b01565b82601f10613ac45780548555613b01565b82800160010185558215613b0157600052602060002091601f016020900482015b82811115613b00578254825591600101919060010190613ae5565b5b509050613b0e9190613b12565b5090565b5b80821115613b2b576000816000905550600101613b13565b5090565b6000613b42613b3d84614a08565b6149e3565b905082815260208101848484011115613b5a57600080fd5b613b65848285614b93565b509392505050565b6000613b80613b7b84614a39565b6149e3565b905082815260208101848484011115613b9857600080fd5b613ba3848285614b93565b509392505050565b600081359050613bba816151fb565b92915050565b600081359050613bcf81615212565b92915050565b600081519050613be481615212565b92915050565b600082601f830112613bfb57600080fd5b8135613c0b848260208601613b2f565b91505092915050565b600082601f830112613c2557600080fd5b8135613c35848260208601613b6d565b91505092915050565b600081359050613c4d81615229565b92915050565b600081519050613c6281615229565b92915050565b600060208284031215613c7a57600080fd5b6000613c8884828501613bab565b91505092915050565b60008060408385031215613ca457600080fd5b6000613cb285828601613bab565b9250506020613cc385828601613bc0565b9150509250929050565b60008060408385031215613ce057600080fd5b6000613cee85828601613bab565b925050602083013567ffffffffffffffff811115613d0b57600080fd5b613d1785828601613bea565b9150509250929050565b60008060408385031215613d3457600080fd5b6000613d4285828601613bab565b9250506020613d5385828601613c3e565b9150509250929050565b600060208284031215613d6f57600080fd5b6000613d7d84828501613bd5565b91505092915050565b600060208284031215613d9857600080fd5b600082013567ffffffffffffffff811115613db257600080fd5b613dbe84828501613c14565b91505092915050565b60008060408385031215613dda57600080fd5b600083013567ffffffffffffffff811115613df457600080fd5b613e0085828601613c14565b9250506020613e1185828601613bab565b9150509250929050565b600080600060608486031215613e3057600080fd5b600084013567ffffffffffffffff811115613e4a57600080fd5b613e5686828701613c14565b9350506020613e6786828701613bab565b9250506040613e7886828701613c3e565b9150509250925092565b60008060408385031215613e9557600080fd5b600083013567ffffffffffffffff811115613eaf57600080fd5b613ebb85828601613c14565b9250506020613ecc85828601613bc0565b9150509250929050565b60008060408385031215613ee957600080fd5b600083013567ffffffffffffffff811115613f0357600080fd5b613f0f85828601613c14565b925050602083013567ffffffffffffffff811115613f2c57600080fd5b613f3885828601613c14565b9150509250929050565b600080600060608486031215613f5757600080fd5b600084013567ffffffffffffffff811115613f7157600080fd5b613f7d86828701613c14565b935050602084013567ffffffffffffffff811115613f9a57600080fd5b613fa686828701613c14565b925050604084013567ffffffffffffffff811115613fc357600080fd5b613fcf86828701613c14565b9150509250925092565b60008060408385031215613fec57600080fd5b600083013567ffffffffffffffff81111561400657600080fd5b61401285828601613c14565b925050602061402385828601613c3e565b9150509250929050565b6000806000806080858703121561404357600080fd5b600085013567ffffffffffffffff81111561405d57600080fd5b61406987828801613c14565b945050602061407a87828801613c3e565b935050604061408b87828801613c3e565b925050606061409c87828801613c3e565b91505092959194509250565b6000602082840312156140ba57600080fd5b60006140c884828501613c53565b91505092915050565b6140da81614b27565b82525050565b6140e981614b39565b82525050565b60006140fa82614a94565b6141048185614aaa565b9350614114818560208601614ba2565b80840191505092915050565b6000815461412d81614bd5565b6141378186614aaa565b94506001821660008114614152576001811461416357614196565b60ff19831686528186019350614196565b61416c85614a6a565b60005b8381101561418e5781548189015260018201915060208101905061416f565b838801955050505b50505092915050565b6141a881614b6f565b82525050565b60006141b982614a9f565b6141c38185614ab5565b93506141d3818560208601614ba2565b6141dc81614d0e565b840191505092915050565b60006141f282614a9f565b6141fc8185614ac6565b935061420c818560208601614ba2565b80840191505092915050565b6000815461422581614bd5565b61422f8186614ac6565b9450600182166000811461424a576001811461425b5761428e565b60ff1983168652818601935061428e565b61426485614a7f565b60005b8381101561428657815481890152600182019150602081019050614267565b838801955050505b50505092915050565b60006142a4600983614ab5565b91506142af82614d1f565b602082019050919050565b60006142c7602f83614ab5565b91506142d282614d48565b604082019050919050565b60006142ea602683614ab5565b91506142f582614d97565b604082019050919050565b600061430d602c83614ab5565b915061431882614de6565b604082019050919050565b6000614330601d83614ab5565b915061433b82614e35565b602082019050919050565b6000614353602c83614ab5565b915061435e82614e5e565b604082019050919050565b6000614376602683614ab5565b915061438182614ead565b604082019050919050565b6000614399601183614ab5565b91506143a482614efc565b602082019050919050565b60006143bc601383614ab5565b91506143c782614f25565b602082019050919050565b60006143df602e83614ab5565b91506143ea82614f4e565b604082019050919050565b6000614402601183614ab5565b915061440d82614f9d565b602082019050919050565b6000614425602d83614ab5565b915061443082614fc6565b604082019050919050565b6000614448602083614ab5565b915061445382615015565b602082019050919050565b600061446b602683614ab5565b91506144768261503e565b604082019050919050565b600061448e601d83614ab5565b91506144998261508d565b602082019050919050565b60006144b1601483614ab5565b91506144bc826150b6565b602082019050919050565b60006144d4602a83614ab5565b91506144df826150df565b604082019050919050565b60006144f7601283614ab5565b91506145028261512e565b602082019050919050565b600061451a601383614ab5565b915061452582615157565b602082019050919050565b600061453d601b83614ab5565b915061454882615180565b602082019050919050565b6000614560600e83614ab5565b915061456b826151a9565b602082019050919050565b6000614583600b83614ab5565b915061458e826151d2565b602082019050919050565b6145a281614b65565b82525050565b60006145b482846140ef565b915081905092915050565b60006145cb8284614120565b915081905092915050565b60006145e282846141e7565b915081905092915050565b60006145f98284614218565b915081905092915050565b600060208201905061461960008301846140d1565b92915050565b600060408201905061463460008301856140d1565b6146416020830184614599565b9392505050565b600060208201905061465d60008301846140e0565b92915050565b6000602082019050614678600083018461419f565b92915050565b6000602082019050818103600083015261469881846141ae565b905092915050565b600060c08201905081810360008301526146ba81896141ae565b90506146c960208301886140d1565b6146d66040830187614599565b6146e36060830186614599565b6146f06080830185614599565b6146fd60a08301846140e0565b979650505050505050565b6000602082019050818103600083015261472181614297565b9050919050565b60006020820190508181036000830152614741816142ba565b9050919050565b60006020820190508181036000830152614761816142dd565b9050919050565b6000602082019050818103600083015261478181614300565b9050919050565b600060208201905081810360008301526147a181614323565b9050919050565b600060208201905081810360008301526147c181614346565b9050919050565b600060208201905081810360008301526147e181614369565b9050919050565b600060208201905081810360008301526148018161438c565b9050919050565b60006020820190508181036000830152614821816143af565b9050919050565b60006020820190508181036000830152614841816143d2565b9050919050565b60006020820190508181036000830152614861816143f5565b9050919050565b6000602082019050818103600083015261488181614418565b9050919050565b600060208201905081810360008301526148a18161443b565b9050919050565b600060208201905081810360008301526148c18161445e565b9050919050565b600060208201905081810360008301526148e181614481565b9050919050565b60006020820190508181036000830152614901816144a4565b9050919050565b60006020820190508181036000830152614921816144c7565b9050919050565b60006020820190508181036000830152614941816144ea565b9050919050565b600060208201905081810360008301526149618161450d565b9050919050565b6000602082019050818103600083015261498181614530565b9050919050565b600060208201905081810360008301526149a181614553565b9050919050565b600060208201905081810360008301526149c181614576565b9050919050565b60006020820190506149dd6000830184614599565b92915050565b60006149ed6149fe565b90506149f98282614c07565b919050565b6000604051905090565b600067ffffffffffffffff821115614a2357614a22614cdf565b5b614a2c82614d0e565b9050602081019050919050565b600067ffffffffffffffff821115614a5457614a53614cdf565b5b614a5d82614d0e565b9050602081019050919050565b60008190508160005260206000209050919050565b60008190508160005260206000209050919050565b600081519050919050565b600081519050919050565b600081905092915050565b600082825260208201905092915050565b600081905092915050565b6000614adc82614b65565b9150614ae783614b65565b9250827fffffffffffffffffffffffffffffffffffffffffffffffffffffffffffffffff03821115614b1c57614b1b614c81565b5b828201905092915050565b6000614b3282614b45565b9050919050565b60008115159050919050565b600073ffffffffffffffffffffffffffffffffffffffff82169050919050565b6000819050919050565b6000614b7a82614b81565b9050919050565b6000614b8c82614b45565b9050919050565b82818337600083830152505050565b60005b83811015614bc0578082015181840152602081019050614ba5565b83811115614bcf576000848401525b50505050565b60006002820490506001821680614bed57607f821691505b60208210811415614c0157614c00614cb0565b5b50919050565b614c1082614d0e565b810181811067ffffffffffffffff82111715614c2f57614c2e614cdf565b5b80604052505050565b6000614c4382614b65565b91507fffffffffffffffffffffffffffffffffffffffffffffffffffffffffffffffff821415614c7657614c75614c81565b5b600182019050919050565b7f4e487b7100000000000000000000000000000000000000000000000000000000600052601160045260246000fd5b7f4e487b7100000000000000000000000000000000000000000000000000000000600052602260045260246000fd5b7f4e487b7100000000000000000000000000000000000000000000000000000000600052604160045260246000fd5b6000601f19601f8301169050919050565b7f4e6f7420666f756e640000000000000000000000000000000000000000000000600082015250565b7f45524331393637557067726164653a207570677261646520627265616b73206660008201527f7572746865722075706772616465730000000000000000000000000000000000602082015250565b7f4f776e61626c653a206e6577206f776e657220697320746865207a65726f206160008201527f6464726573730000000000000000000000000000000000000000000000000000602082015250565b7f46756e6374696f6e206d7573742062652063616c6c6564207468726f7567682060008201527f64656c656761746563616c6c0000000000000000000000000000000000000000602082015250565b7f43616c6c6572206973206e6f74206120617070726f76616c2075736572000000600082015250565b7f46756e6374696f6e206d7573742062652063616c6c6564207468726f7567682060008201527f6163746976652070726f78790000000000000000000000000000000000000000602082015250565b7f416464726573733a20696e73756666696369656e742062616c616e636520666f60008201527f722063616c6c0000000000000000000000000000000000000000000000000000602082015250565b7f50726f6772616d206e6f7420666f756e64000000000000000000000000000000600082015250565b7f57726f6e6720726566657272657220636f646500000000000000000000000000600082015250565b7f496e697469616c697a61626c653a20636f6e747261637420697320616c72656160008201527f647920696e697469616c697a6564000000000000000000000000000000000000602082015250565b7f4163636f756e74206e6f7420666f756e64000000000000000000000000000000600082015250565b7f455243313936373a206e657720696d706c656d656e746174696f6e206973206e60008201527f6f74206120636f6e747261637400000000000000000000000000000000000000602082015250565b7f4f776e61626c653a2063616c6c6572206973206e6f7420746865206f776e6572600082015250565b7f416464726573733a2064656c65676174652063616c6c20746f206e6f6e2d636f60008201527f6e74726163740000000000000000000000000000000000000000000000000000602082015250565b7f416464726573733a2063616c6c20746f206e6f6e2d636f6e7472616374000000600082015250565b7f43616e6e6f74206a6f696e20796f757273656c66000000000000000000000000600082015250565b7f5361666545524332303a204552433230206f7065726174696f6e20646964206e60008201527f6f74207375636365656400000000000000000000000000000000000000000000602082015250565b7f50726f6772616d2069732070617573696e670000000000000000000000000000600082015250565b7f50726f6772616d206973206578697374696e6700000000000000000000000000600082015250565b7f54686973207569642075736564206f7468657220616464726573730000000000600082015250565b7f416d6f756e742065786365656473000000000000000000000000000000000000600082015250565b7f55736572206a6f696e6564000000000000000000000000000000000000000000600082015250565b61520481614b27565b811461520f57600080fd5b50565b61521b81614b39565b811461522657600080fd5b50565b61523281614b65565b811461523d57600080fd5b5056fe416464726573733a206c6f772d6c6576656c2064656c65676174652063616c6c206661696c6564a26469706673582212205006ed8ee5e28bccb72f5428cfcfa262f55edb82f58834fddc4d4f8ce50c87b764736f6c63430008020033",
  "linkReferences": {},
  "deployedLinkReferences": {}
}