{
  "_format": "hh-sol-artifact-1",
  "contractName": "ValidUserContract",
  "sourceName": "contracts/ValidUserContract.sol",
  "abi": [
    {
      "inputs": [],
      "stateMutability": "nonpayable",
      "type": "constructor"
    },
    {
      "anonymous": false,
      "inputs": [
        {
          "indexed": false,
          "internalType": "address",
          "name": "previousAdmin",
          "type": "address"
        },
        {
          "indexed": false,
          "internalType": "address",
          "name": "newAdmin",
          "type": "address"
        }
      ],
      "name": "AdminChanged",
      "type": "event"
    },
    {
      "anonymous": false,
      "inputs": [
        {
          "indexed": true,
          "internalType": "address",
          "name": "beacon",
          "type": "address"
        }
      ],
      "name": "BeaconUpgraded",
      "type": "event"
    },
    {
      "anonymous": false,
      "inputs": [
        {
          "indexed": true,
          "internalType": "address",
          "name": "previousOwner",
          "type": "address"
        },
        {
          "indexed": true,
          "internalType": "address",
          "name": "newOwner",
          "type": "address"
        }
      ],
      "name": "OwnershipTransferred",
      "type": "event"
    },
    {
      "anonymous": false,
      "inputs": [
        {
          "indexed": true,
          "internalType": "address",
          "name": "implementation",
          "type": "address"
        }
      ],
      "name": "Upgraded",
      "type": "event"
    },
    {
      "inputs": [
        {
          "internalType": "address",
          "name": "",
          "type": "address"
        }
      ],
      "name": "addressUsers",
      "outputs": [
        {
          "internalType": "string",
          "name": "",
          "type": "string"
        }
      ],
      "stateMutability": "view",
      "type": "function"
    },
    {
      "inputs": [],
      "name": "admin",
      "outputs": [
        {
          "internalType": "address",
          "name": "",
          "type": "address"
        }
      ],
      "stateMutability": "view",
      "type": "function"
    },
    {
      "inputs": [],
      "name": "initialize",
      "outputs": [],
      "stateMutability": "nonpayable",
      "type": "function"
    },
    {
      "inputs": [],
      "name": "owner",
      "outputs": [
        {
          "internalType": "address",
          "name": "",
          "type": "address"
        }
      ],
      "stateMutability": "view",
      "type": "function"
    },
    {
      "inputs": [],
      "name": "renounceOwnership",
      "outputs": [],
      "stateMutability": "nonpayable",
      "type": "function"
    },
    {
      "inputs": [
        {
          "internalType": "address",
          "name": "addressUser",
          "type": "address"
        },
        {
          "internalType": "string",
          "name": "uid",
          "type": "string"
        }
      ],
      "name": "setUser",
      "outputs": [],
      "stateMutability": "nonpayable",
      "type": "function"
    },
    {
      "inputs": [
        {
          "internalType": "address",
          "name": "newOwner",
          "type": "address"
        }
      ],
      "name": "transferOwnership",
      "outputs": [],
      "stateMutability": "nonpayable",
      "type": "function"
    },
    {
      "inputs": [
        {
          "internalType": "string",
          "name": "",
          "type": "string"
        }
      ],
      "name": "uidUsers",
      "outputs": [
        {
          "internalType": "address",
          "name": "",
          "type": "address"
        }
      ],
      "stateMutability": "view",
      "type": "function"
    },
    {
      "inputs": [
        {
          "internalType": "address",
          "name": "addressUser",
          "type": "address"
        }
      ],
      "name": "unsetUser",
      "outputs": [],
      "stateMutability": "nonpayable",
      "type": "function"
    },
    {
      "inputs": [
        {
          "internalType": "address",
          "name": "newImplementation",
          "type": "address"
        }
      ],
      "name": "upgradeTo",
      "outputs": [],
      "stateMutability": "nonpayable",
      "type": "function"
    },
    {
      "inputs": [
        {
          "internalType": "address",
          "name": "newImplementation",
          "type": "address"
        },
        {
          "internalType": "bytes",
          "name": "data",
          "type": "bytes"
        }
      ],
      "name": "upgradeToAndCall",
      "outputs": [],
      "stateMutability": "payable",
      "type": "function"
    },
    {
      "inputs": [],
      "name": "version",
      "outputs": [
        {
          "internalType": "string",
          "name": "",
          "type": "string"
        }
      ],
      "stateMutability": "pure",
      "type": "function"
    }
  ],
  "bytecode": "0x60a06040523073ffffffffffffffffffffffffffffffffffffffff1660809073ffffffffffffffffffffffffffffffffffffffff1660601b8152503480156200004757600080fd5b50600060019054906101000a900460ff16806200006f575060008054906101000a900460ff16155b620000b1576040517f08c379a0000000000000000000000000000000000000000000000000000000008152600401620000a89062000152565b60405180910390fd5b60008060019054906101000a900460ff16159050801562000102576001600060016101000a81548160ff02191690831515021790555060016000806101000a81548160ff0219169083151502179055505b8015620001245760008060016101000a81548160ff0219169083151502179055505b50620001d4565b60006200013a602e8362000174565b9150620001478262000185565b604082019050919050565b600060208201905081810360008301526200016d816200012b565b9050919050565b600082825260208201905092915050565b7f496e697469616c697a61626c653a20636f6e747261637420697320616c72656160008201527f647920696e697469616c697a6564000000000000000000000000000000000000602082015250565b60805160601c6123386200020860003960008181610297015281816103260152818161081301526108a201526123386000f3fe6080604052600436106100a75760003560e01c8063715018a611610064578063715018a6146101bf5780638129fc1c146101d65780638da5cb5b146101ed578063e3073c8014610218578063f2fde38b14610241578063f851a4401461026a576100a7565b80633659cfe6146100ac5780633f1a51b8146100d55780634a44211b146100fe5780634f1ef2861461013b57806354fd4d501461015757806356de10e814610182575b600080fd5b3480156100b857600080fd5b506100d360048036038101906100ce9190611879565b610295565b005b3480156100e157600080fd5b506100fc60048036038101906100f791906118f6565b610444565b005b34801561010a57600080fd5b5061012560048036038101906101209190611879565b610771565b6040516101329190611c22565b60405180910390f35b610155600480360381019061015091906118a2565b610811565b005b34801561016357600080fd5b5061016c61094e565b6040516101799190611c22565b60405180910390f35b34801561018e57600080fd5b506101a960048036038101906101a4919061194a565b61098b565b6040516101b69190611c07565b60405180910390f35b3480156101cb57600080fd5b506101d46109d4565b005b3480156101e257600080fd5b506101eb610a5c565b005b3480156101f957600080fd5b50610202610b7e565b60405161020f9190611c07565b60405180910390f35b34801561022457600080fd5b5061023f600480360381019061023a9190611879565b610ba8565b005b34801561024d57600080fd5b5061026860048036038101906102639190611879565b610d39565b005b34801561027657600080fd5b5061027f610e31565b60405161028c9190611c07565b60405180910390f35b7f000000000000000000000000000000000000000000000000000000000000000073ffffffffffffffffffffffffffffffffffffffff163073ffffffffffffffffffffffffffffffffffffffff161415610324576040517f08c379a000000000000000000000000000000000000000000000000000000000815260040161031b90611ca4565b60405180910390fd5b7f000000000000000000000000000000000000000000000000000000000000000073ffffffffffffffffffffffffffffffffffffffff16610363610e57565b73ffffffffffffffffffffffffffffffffffffffff16146103b9576040517f08c379a00000000000000000000000000000000000000000000000000000000081526004016103b090611ce4565b60405180910390fd5b6103c281610eae565b61044181600067ffffffffffffffff811115610407577f4e487b7100000000000000000000000000000000000000000000000000000000600052604160045260246000fd5b6040519080825280601f01601f1916602001820160405280156104395781602001600182028036833780820191505090505b506000610f2d565b50565b6000819050600081511161048d576040517f08c379a000000000000000000000000000000000000000000000000000000000815260040161048490611d04565b60405180910390fd5b600073ffffffffffffffffffffffffffffffffffffffff168373ffffffffffffffffffffffffffffffffffffffff1614156104fd576040517f08c379a00000000000000000000000000000000000000000000000000000000081526004016104f490611d84565b60405180910390fd5b600060ca60008573ffffffffffffffffffffffffffffffffffffffff1673ffffffffffffffffffffffffffffffffffffffff168152602001908152602001600020805461054990611efc565b80601f016020809104026020016040519081016040528092919081815260200182805461057590611efc565b80156105c25780601f10610597576101008083540402835291602001916105c2565b820191906000526020600020905b8154815290600101906020018083116105a557829003601f168201915b50505050509050600081511461060d576040517f08c379a000000000000000000000000000000000000000000000000000000000815260040161060490611cc4565b60405180910390fd5b600073ffffffffffffffffffffffffffffffffffffffff1660cb846040516106359190611bf0565b908152602001604051809103902060009054906101000a900473ffffffffffffffffffffffffffffffffffffffff1673ffffffffffffffffffffffffffffffffffffffff16146106ba576040517f08c379a00000000000000000000000000000000000000000000000000000000081526004016106b190611c44565b60405180910390fd5b8260ca60008673ffffffffffffffffffffffffffffffffffffffff1673ffffffffffffffffffffffffffffffffffffffff168152602001908152602001600020908051906020019061070d9291906116f1565b508360cb8460405161071f9190611bf0565b908152602001604051809103902060006101000a81548173ffffffffffffffffffffffffffffffffffffffff021916908373ffffffffffffffffffffffffffffffffffffffff16021790555050505050565b60ca602052806000526040600020600091509050805461079090611efc565b80601f01602080910402602001604051908101604052809291908181526020018280546107bc90611efc565b80156108095780601f106107de57610100808354040283529160200191610809565b820191906000526020600020905b8154815290600101906020018083116107ec57829003601f168201915b505050505081565b7f000000000000000000000000000000000000000000000000000000000000000073ffffffffffffffffffffffffffffffffffffffff163073ffffffffffffffffffffffffffffffffffffffff1614156108a0576040517f08c379a000000000000000000000000000000000000000000000000000000000815260040161089790611ca4565b60405180910390fd5b7f000000000000000000000000000000000000000000000000000000000000000073ffffffffffffffffffffffffffffffffffffffff166108df610e57565b73ffffffffffffffffffffffffffffffffffffffff1614610935576040517f08c379a000000000000000000000000000000000000000000000000000000000815260040161092c90611ce4565b60405180910390fd5b61093e82610eae565b61094a82826001610f2d565b5050565b60606040518060400160405280600281526020017f7631000000000000000000000000000000000000000000000000000000000000815250905090565b60cb818051602081018201805184825260208301602085012081835280955050505050506000915054906101000a900473ffffffffffffffffffffffffffffffffffffffff1681565b6109dc6110fe565b73ffffffffffffffffffffffffffffffffffffffff166109fa610b7e565b73ffffffffffffffffffffffffffffffffffffffff1614610a50576040517f08c379a0000000000000000000000000000000000000000000000000000000008152600401610a4790611d64565b60405180910390fd5b610a5a6000611106565b565b600060019054906101000a900460ff1680610a82575060008054906101000a900460ff16155b610ac1576040517f08c379a0000000000000000000000000000000000000000000000000000000008152600401610ab890611d24565b60405180910390fd5b60008060019054906101000a900460ff161590508015610b11576001600060016101000a81548160ff02191690831515021790555060016000806101000a81548160ff0219169083151502179055505b610b196111cc565b3360c960006101000a81548173ffffffffffffffffffffffffffffffffffffffff021916908373ffffffffffffffffffffffffffffffffffffffff1602179055508015610b7b5760008060016101000a81548160ff0219169083151502179055505b50565b6000609760009054906101000a900473ffffffffffffffffffffffffffffffffffffffff16905090565b600060ca60008373ffffffffffffffffffffffffffffffffffffffff1673ffffffffffffffffffffffffffffffffffffffff1681526020019081526020016000208054610bf490611efc565b80601f0160208091040260200160405190810160405280929190818152602001828054610c2090611efc565b8015610c6d5780601f10610c4257610100808354040283529160200191610c6d565b820191906000526020600020905b815481529060010190602001808311610c5057829003601f168201915b505050505090506040518060200160405280600081525060ca60008473ffffffffffffffffffffffffffffffffffffffff1673ffffffffffffffffffffffffffffffffffffffff1681526020019081526020016000209080519060200190610cd69291906116f1565b50600060cb82604051610ce99190611bf0565b908152602001604051809103902060006101000a81548173ffffffffffffffffffffffffffffffffffffffff021916908373ffffffffffffffffffffffffffffffffffffffff1602179055505050565b610d416110fe565b73ffffffffffffffffffffffffffffffffffffffff16610d5f610b7e565b73ffffffffffffffffffffffffffffffffffffffff1614610db5576040517f08c379a0000000000000000000000000000000000000000000000000000000008152600401610dac90611d64565b60405180910390fd5b600073ffffffffffffffffffffffffffffffffffffffff168173ffffffffffffffffffffffffffffffffffffffff161415610e25576040517f08c379a0000000000000000000000000000000000000000000000000000000008152600401610e1c90611c84565b60405180910390fd5b610e2e81611106565b50565b60c960009054906101000a900473ffffffffffffffffffffffffffffffffffffffff1681565b6000610e857f360894a13ba1a3210667c828492db98dca3e2076cc3735a920a3ca505d382bbc60001b6112b5565b60000160009054906101000a900473ffffffffffffffffffffffffffffffffffffffff16905090565b610eb66110fe565b73ffffffffffffffffffffffffffffffffffffffff16610ed4610b7e565b73ffffffffffffffffffffffffffffffffffffffff1614610f2a576040517f08c379a0000000000000000000000000000000000000000000000000000000008152600401610f2190611d64565b60405180910390fd5b50565b6000610f37610e57565b9050610f42846112bf565b600083511180610f4f5750815b15610f6057610f5e8484611378565b505b6000610f8e7f4910fdfa16fed3260ed0e7147f7cc6da11a60208b5b9406d12a635614ffd914360001b61145c565b90508060000160009054906101000a900460ff166110f75760018160000160006101000a81548160ff02191690831515021790555061105a8583604051602401610fd89190611c07565b6040516020818303038152906040527f3659cfe6000000000000000000000000000000000000000000000000000000007bffffffffffffffffffffffffffffffffffffffffffffffffffffffff19166020820180517bffffffffffffffffffffffffffffffffffffffffffffffffffffffff8381831617835250505050611378565b5060008160000160006101000a81548160ff021916908315150217905550611080610e57565b73ffffffffffffffffffffffffffffffffffffffff168273ffffffffffffffffffffffffffffffffffffffff16146110ed576040517f08c379a00000000000000000000000000000000000000000000000000000000081526004016110e490611c64565b60405180910390fd5b6110f685611466565b5b5050505050565b600033905090565b6000609760009054906101000a900473ffffffffffffffffffffffffffffffffffffffff16905081609760006101000a81548173ffffffffffffffffffffffffffffffffffffffff021916908373ffffffffffffffffffffffffffffffffffffffff1602179055508173ffffffffffffffffffffffffffffffffffffffff168173ffffffffffffffffffffffffffffffffffffffff167f8be0079c531659141344cd1fd0a4f28419497f9722a3daafe3b4186f6b6457e060405160405180910390a35050565b600060019054906101000a900460ff16806111f2575060008054906101000a900460ff16155b611231576040517f08c379a000000000000000000000000000000000000000000000000000000000815260040161122890611d24565b60405180910390fd5b60008060019054906101000a900460ff161590508015611281576001600060016101000a81548160ff02191690831515021790555060016000806101000a81548160ff0219169083151502179055505b6112896114b5565b61129161158e565b80156112b25760008060016101000a81548160ff0219169083151502179055505b50565b6000819050919050565b6112c881611677565b611307576040517f08c379a00000000000000000000000000000000000000000000000000000000081526004016112fe90611d44565b60405180910390fd5b806113347f360894a13ba1a3210667c828492db98dca3e2076cc3735a920a3ca505d382bbc60001b6112b5565b60000160006101000a81548173ffffffffffffffffffffffffffffffffffffffff021916908373ffffffffffffffffffffffffffffffffffffffff16021790555050565b606061138383611677565b6113c2576040517f08c379a00000000000000000000000000000000000000000000000000000000081526004016113b990611da4565b60405180910390fd5b6000808473ffffffffffffffffffffffffffffffffffffffff16846040516113ea9190611bd9565b600060405180830381855af49150503d8060008114611425576040519150601f19603f3d011682016040523d82523d6000602084013e61142a565b606091505b509150915061145282826040518060600160405280602781526020016122dc6027913961168a565b9250505092915050565b6000819050919050565b61146f816112bf565b8073ffffffffffffffffffffffffffffffffffffffff167fbc7cd75a20ee27fd9adebab32041f755214dbc6bffa90cc0225b39da2e5c2d3b60405160405180910390a250565b600060019054906101000a900460ff16806114db575060008054906101000a900460ff16155b61151a576040517f08c379a000000000000000000000000000000000000000000000000000000000815260040161151190611d24565b60405180910390fd5b60008060019054906101000a900460ff16159050801561156a576001600060016101000a81548160ff02191690831515021790555060016000806101000a81548160ff0219169083151502179055505b801561158b5760008060016101000a81548160ff0219169083151502179055505b50565b600060019054906101000a900460ff16806115b4575060008054906101000a900460ff16155b6115f3576040517f08c379a00000000000000000000000000000000000000000000000000000000081526004016115ea90611d24565b60405180910390fd5b60008060019054906101000a900460ff161590508015611643576001600060016101000a81548160ff02191690831515021790555060016000806101000a81548160ff0219169083151502179055505b61165361164e6110fe565b611106565b80156116745760008060016101000a81548160ff0219169083151502179055505b50565b600080823b905060008111915050919050565b6060831561169a578290506116ea565b6000835111156116ad5782518084602001fd5b816040517f08c379a00000000000000000000000000000000000000000000000000000000081526004016116e19190611c22565b60405180910390fd5b9392505050565b8280546116fd90611efc565b90600052602060002090601f01602090048101928261171f5760008555611766565b82601f1061173857805160ff1916838001178555611766565b82800160010185558215611766579182015b8281111561176557825182559160200191906001019061174a565b5b5090506117739190611777565b5090565b5b80821115611790576000816000905550600101611778565b5090565b60006117a76117a284611de9565b611dc4565b9050828152602081018484840111156117bf57600080fd5b6117ca848285611eba565b509392505050565b60006117e56117e084611e1a565b611dc4565b9050828152602081018484840111156117fd57600080fd5b611808848285611eba565b509392505050565b60008135905061181f816122c4565b92915050565b600082601f83011261183657600080fd5b8135611846848260208601611794565b91505092915050565b600082601f83011261186057600080fd5b81356118708482602086016117d2565b91505092915050565b60006020828403121561188b57600080fd5b600061189984828501611810565b91505092915050565b600080604083850312156118b557600080fd5b60006118c385828601611810565b925050602083013567ffffffffffffffff8111156118e057600080fd5b6118ec85828601611825565b9150509250929050565b6000806040838503121561190957600080fd5b600061191785828601611810565b925050602083013567ffffffffffffffff81111561193457600080fd5b6119408582860161184f565b9150509250929050565b60006020828403121561195c57600080fd5b600082013567ffffffffffffffff81111561197657600080fd5b6119828482850161184f565b91505092915050565b61199481611e88565b82525050565b60006119a582611e4b565b6119af8185611e61565b93506119bf818560208601611ec9565b80840191505092915050565b60006119d682611e56565b6119e08185611e6c565b93506119f0818560208601611ec9565b6119f981611fbd565b840191505092915050565b6000611a0f82611e56565b611a198185611e7d565b9350611a29818560208601611ec9565b80840191505092915050565b6000611a42600c83611e6c565b9150611a4d82611fce565b602082019050919050565b6000611a65602f83611e6c565b9150611a7082611ff7565b604082019050919050565b6000611a88602683611e6c565b9150611a9382612046565b604082019050919050565b6000611aab602c83611e6c565b9150611ab682612095565b604082019050919050565b6000611ace601083611e6c565b9150611ad9826120e4565b602082019050919050565b6000611af1602c83611e6c565b9150611afc8261210d565b604082019050919050565b6000611b14600983611e6c565b9150611b1f8261215c565b602082019050919050565b6000611b37602e83611e6c565b9150611b4282612185565b604082019050919050565b6000611b5a602d83611e6c565b9150611b65826121d4565b604082019050919050565b6000611b7d602083611e6c565b9150611b8882612223565b602082019050919050565b6000611ba0600d83611e6c565b9150611bab8261224c565b602082019050919050565b6000611bc3602683611e6c565b9150611bce82612275565b604082019050919050565b6000611be5828461199a565b915081905092915050565b6000611bfc8284611a04565b915081905092915050565b6000602082019050611c1c600083018461198b565b92915050565b60006020820190508181036000830152611c3c81846119cb565b905092915050565b60006020820190508181036000830152611c5d81611a35565b9050919050565b60006020820190508181036000830152611c7d81611a58565b9050919050565b60006020820190508181036000830152611c9d81611a7b565b9050919050565b60006020820190508181036000830152611cbd81611a9e565b9050919050565b60006020820190508181036000830152611cdd81611ac1565b9050919050565b60006020820190508181036000830152611cfd81611ae4565b9050919050565b60006020820190508181036000830152611d1d81611b07565b9050919050565b60006020820190508181036000830152611d3d81611b2a565b9050919050565b60006020820190508181036000830152611d5d81611b4d565b9050919050565b60006020820190508181036000830152611d7d81611b70565b9050919050565b60006020820190508181036000830152611d9d81611b93565b9050919050565b60006020820190508181036000830152611dbd81611bb6565b9050919050565b6000611dce611ddf565b9050611dda8282611f2e565b919050565b6000604051905090565b600067ffffffffffffffff821115611e0457611e03611f8e565b5b611e0d82611fbd565b9050602081019050919050565b600067ffffffffffffffff821115611e3557611e34611f8e565b5b611e3e82611fbd565b9050602081019050919050565b600081519050919050565b600081519050919050565b600081905092915050565b600082825260208201905092915050565b600081905092915050565b6000611e9382611e9a565b9050919050565b600073ffffffffffffffffffffffffffffffffffffffff82169050919050565b82818337600083830152505050565b60005b83811015611ee7578082015181840152602081019050611ecc565b83811115611ef6576000848401525b50505050565b60006002820490506001821680611f1457607f821691505b60208210811415611f2857611f27611f5f565b5b50919050565b611f3782611fbd565b810181811067ffffffffffffffff82111715611f5657611f55611f8e565b5b80604052505050565b7f4e487b7100000000000000000000000000000000000000000000000000000000600052602260045260246000fd5b7f4e487b7100000000000000000000000000000000000000000000000000000000600052604160045260246000fd5b6000601f19601f8301169050919050565b7f4578697374696e67207569640000000000000000000000000000000000000000600082015250565b7f45524331393637557067726164653a207570677261646520627265616b73206660008201527f7572746865722075706772616465730000000000000000000000000000000000602082015250565b7f4f776e61626c653a206e6577206f776e657220697320746865207a65726f206160008201527f6464726573730000000000000000000000000000000000000000000000000000602082015250565b7f46756e6374696f6e206d7573742062652063616c6c6564207468726f7567682060008201527f64656c656761746563616c6c0000000000000000000000000000000000000000602082015250565b7f4578697374696e67206164647265737300000000000000000000000000000000600082015250565b7f46756e6374696f6e206d7573742062652063616c6c6564207468726f7567682060008201527f6163746976652070726f78790000000000000000000000000000000000000000602082015250565b7f456d707479207569640000000000000000000000000000000000000000000000600082015250565b7f496e697469616c697a61626c653a20636f6e747261637420697320616c72656160008201527f647920696e697469616c697a6564000000000000000000000000000000000000602082015250565b7f455243313936373a206e657720696d706c656d656e746174696f6e206973206e60008201527f6f74206120636f6e747261637400000000000000000000000000000000000000602082015250565b7f4f776e61626c653a2063616c6c6572206973206e6f7420746865206f776e6572600082015250565b7f456d707479206164647265737300000000000000000000000000000000000000600082015250565b7f416464726573733a2064656c65676174652063616c6c20746f206e6f6e2d636f60008201527f6e74726163740000000000000000000000000000000000000000000000000000602082015250565b6122cd81611e88565b81146122d857600080fd5b5056fe416464726573733a206c6f772d6c6576656c2064656c65676174652063616c6c206661696c6564a264697066735822122033ef1bec1d6f63ae914cd18f1c1ea0652e51be2f6c0ee76457fcd7078cad7c6864736f6c63430008020033",
  "linkReferences": {},
  "deployedLinkReferences": {}
}